:100000000C9409020C944C180C9450020C9450025D
:100010000C9450020C9450020C9450020C94500218
:100020000C9450020C9450020C94B01F0C9482203B
:100030000C94FE1A0C9450020C9450020C94500232
:100040000C9450020C9450020C9450020C945002E8
:100050000C9450020C94731B0C9450020C9450029C
:100060000C9450020C9450020C9450020C945002C8
:100070000C9450020C9450020C9450020C945002B8
:100080000C9450020C9450020C9450020C945002A8
:100090000C9450020C9450020C9450020C94500298
:1000A0000C9450020C9450020C945002D304D304CC
:1000B00005050505520586068606860670050506B1
:1000C000160616067606860686067F06220722078D
:1000D000340734072B073407340734072207220775
:1000E0003007340734073007EF2016210E2216217F
:1000F0000E22622185210E22DC21EB2135001E001B
:100100001F002000210022002E00290014001A00E8
:1001100008001500170030002B000400160007002F
:1001200009000A003200E2001D001B000600190051
:1001300005000151E30011506500E0000251E100AB
:100140002C002D0027002600250024002300890014
:100150002F00130012000C0018001C008700340050
:1001600033000F000E000D000B004C00E6003800BD
:1001700037003600100011002A00E700115065001A
:10018000E4003500E5002800000000000000000049
:1001900000000000A800E0004200430044004500C9
:1001A000E200A900E1003E003F0040004100E10004
:1001B000AA00E2003A003B003C003D00E0000100E4
:1001C000E30010506500E000E000E100E200000004
:1001D000000000000000000000008800E40045006E
:1001E000440043004200E6008A00E5004100400070
:1001F0003F003E00E5008B00E6003D003C003B0078
:100200003A00E4000000E70010506500E400E4005C
:10021000E500E600290053002F0000000000000068
:100220000000290089005F00600061005500560051
:100230002B0062005C005D005E0054005700E2008D
:10024000630059005A005B0087000000E300E200F1
:10025000E100E0000100E1002C0049005300000033
:10026000000000000000000000004C0028002C00EE
:100270002A000000490065004F0051005200500064
:1002800000004C00E6004D004E004B004A0000000C
:100290002A00E700E600E500E4002C00E500280065
:1002A00000000000000000000000000000004C0002
:1002B0000000000000000000E20000002A005000E2
:1002C000520051004F00E100000028004A004B009E
:1002D0004E004D00E0000000E300125010500000FE
:1002E000E000E100E200000053002F0000000000E9
:1002F0000000000000008900610060005F00550000
:100300005600000062005E005D005C005400570073
:10031000000063005B005A005900870000000000E5
:100320000000000000000000000000001203450073
:10033000720067006F0044006100730068000000F5
:100340000C034F006D006B006200640000000403AA
:10035000090409023B00020100A0FA09040000019F
:10036000030101000921110100012240000705815C
:100370000308000A0904010001030000000921111B
:100380000100012232000705820320000A12010049
:100390000200000008EDFE6060000101020001059E
:1003A000010980A101850319012AB700150126B7AB
:1003B00000950175108100C0050C0901A10185049B
:1003C00019012AA002150126A002950175108100CD
:1003D000C005010906A101050719E029E715002557
:1003E00001950875018102950175088101050719BC
:1003F0000029FF150026FF009506750881000508F5
:100400001901290595057501910295017503910161
:10041000C00011241FBECFEFDAE0DEBFCDBF04B6AF
:1004200003FE27C080919C0290919D02A0919E02A4
:10043000B0919F028730904BA740B04BD1F41092FF
:100440009C0210929D0210929E0210929F0214BE76
:1004500084B7877F84BF0FB6F894A8958091600019
:10046000886180936000109260000FBEE0E0F8E3C6
:10047000099511E0A0E0B1E0E8E6F5E402C00590DE
:100480000D92A23AB107D9F722E0A2EAB1E001C089
:100490001D92AC39B207E1F70E9467150C94B222A5
:1004A0000C9400000C948A11089581E0089581E075
:1004B00008950C94570208950C945B021F93CF93F8
:1004C000DF9300D000D01F92CDB7DEB749835A83A7
:1004D0006B833091A40189819A81311114C0662304
:1004E00059F0222349F00E94C608182F682F8981ED
:1004F0009A810E946F0803C00E949A08182F698190
:100500007A81812F04C00E94C60869817A810F9088
:100510000F900F900F900F90DF91CF911F910C943F
:10052000430FFC01262F40815181628173818481B8
:100530000C945E0281E00895CF93DF93EC0160E0BC
:100540000E949102BE01DF91CF910C945C020E9447
:1005500052110E9417030C9452020C9488110E94AD
:1005600010070E9454022FEF84E39CE0215080404A
:100570009040E1F700C000000C94991B0F931F936B
:10058000CF93DF938C0161E00E949102EC01B801EE
:100590000E9459028823F1F1B801CE010E94FD1595
:1005A0008823C1F1B801CE010E944F16882391F132
:1005B000B801CE010E947A17882361F1F801828187
:1005C000882309F1CB358DE5D807C1F050F4C1156A
:1005D000FCE5DF0781F0CF3DDC45A9F40E945B0E0E
:1005E00019C0CC35EDE5DE0761F0CD35DD4559F4B8
:1005F0000E94E50C08C00E94AF020CC00E94EE0CE5
:1006000002C00E94F10CC801DF91CF911F910F91A0
:100610000C94550280E0DF91CF911F910F910895C6
:1006200008950C94100381E008950C941303089529
:10063000CF93C82F0E9411038C2F0E941503CF91D6
:100640000895CF93DF93CDB7DEB72B970FB6F8940D
:10065000DEBF0FBECDBF4F83588769877A878B87F0
:1006600061110E94140D9E012F5F3F4F86E0F9013A
:1006700011928A95E9F785E0FE013796D90101903C
:100680000D928A95E1F789819A814C815D81452B94
:1006900031F09F3F31F491E08F3F19F403C091E0B6
:1006A00001C090E090FF09C049815A816B817C8133
:1006B0008D819E810E94140C05C0C9010E949A027E
:1006C0008111F2CF2B960FB6F894DEBF0FBECDBFCF
:1006D000DF91CF910895FC01808191810E940809EA
:1006E0000895CF93882309F49CC0C82F8238C1F4A1
:1006F0000E94D01981FD95C069E38091000190911D
:1007000001010E945C1A0E94460D2FEF81EE94E0D9
:10071000215080409040E1F700C0000069E319C01B
:10072000833801F50E94D01980FD7BC063E580917C
:100730000001909101010E945C1A0E94460D2FEF6A
:1007400081EE94E0215080409040E1F700C000002D
:1007500063E580910001909101010E945E1ACF91A2
:100760000C94460D8438C1F40E94D01982FD59C002
:1007700067E480910001909101010E945C1A0E943F
:10078000460D2FEF81EE94E0215080409040E1F73C
:1007900000C0000067E4DDCF8CEF8C0F813AD0F40D
:1007A0006C2F80910001909101010E94261A8823EC
:1007B00049F06C2F80910001909101010E945E1A16
:1007C0000E94460D6C2F80910001909101010E94C2
:1007D0005C1AC5CF80E28C0F883048F4C77081E086
:1007E00001C0880FCA95EAF70E94F70CB8CFEBE575
:1007F000EC0FE33040F4F0E0E65AFE4F808190E0E9
:10080000CF910C94EE19C85AC73158F4EC2FF0E090
:10081000EE0FFF1FE45DFE4F80819181CF910C941C
:10082000041ACF910895882309F45BC0682F823899
:1008300079F40E94D01981FF54C069E380910001CE
:10084000909101010E945C1A0E94460D69E310C05C
:100850008338B1F40E94D01980FF43C063E58091D2
:100860000001909101010E945C1A0E94460D63E50F
:1008700080910001909101010E945E1A0C94460D36
:10088000843879F40E94D01982FF2BC067E48091EC
:100890000001909101010E945C1A0E94460D67E4DC
:1008A000E7CF8CEF860F813A18F380E2860F88300D
:1008B00048F4677081E001C0880F6A95EAF70E94EA
:1008C000FD0CDCCF8BE5860F833020F480E090E0D8
:1008D0000C94EE19685A673120F480E090E00C9493
:1008E000041A08951F93CF93DF93182FEB010E94F2
:1008F0007103209741F08FE99FE00197F1F700C065
:1009000000002197F6CF812FDF91CF911F910C949A
:100910001304893319F060E070E002C060E570E014
:100920000C947204882321F00E94F70C0C94460D5D
:100930000895882321F00E94FD0C0C94460D089523
:10094000CF92DF92EF92FF920F931F93CF93DF939B
:100950007C01062FC72FFC01D281158112951F70D3
:100960000E94CC0C882399F0DD2389F08C2F807FA6
:10097000803421F080E2800F883048F082E00E94CD
:10098000960D0E94CC0C91E0D82ED92601C0D12C16
:10099000CC2EC2948FE0C8228C2D90E0FC01EA5A44
:1009A000FF4F0C9454228C2F807FCF70882311F03E
:1009B000C295C07FDD2399F0CC2309F482C180E287
:1009C000800F883010F0011104C08C2F0E94F70CAA
:1009D00003C08C2F0E94070D0E94460D72C1802F0C
:1009E0000E941304CC2309F491C180E2800F883067
:1009F00010F0011104C08C2F0E94FD0C03C08C2F3D
:100A00000E940D0D0E94460D81C18C2F807FCF70FA
:100A1000803211F0C295C07F002319F00130C9F077
:100A200022C0DD2371F0112341F0113031F40E9416
:100A3000270D8C2B0E942F0D69C10E94270D8C2B36
:100A40001DC0112319F0113009F460C10E943C0D42
:100A500025C0DD2321F0163008F058C10EC0153036
:100A600008F054C11BC0DD2361F0112331F0F70100
:100A7000858180FF26C18F7085838C2F0E94920410
:100A800045C1112359F0093309F02CC1FFEF27EEBE
:100A900083E0F15020408040E1F722C18C2F0E947A
:100AA000990434C18C2F86958695837019F0813016
:100AB00061F02CC1DD2321F0802F9C2F937002C0A8
:100AC00080E090E00E94EE1929C1DD2321F0802F03
:100AD0009C2F937002C080E090E00E94041A1EC117
:100AE0008C2F837009F045C0D11114C1402F42955D
:100AF00046954770440F440F602F6F70862F90E02B
:100B0000A0E0B0E0042E04C0880F991FAA1FBB1FED
:100B10000A94D2F704FF10C00FE010E020E030E0AC
:100B200004C0000F111F221F331F4A95D2F70095F2
:100B300010952095309503C000E010E09801C6950F
:100B4000C695C370BC01CD01602B712B822B932BFA
:100B5000C23049F058F4C13019F00E948507DAC05C
:100B60000E947307D7C00E949707D4C00E947107E4
:100B7000D1C0DD2319F08C2F817001C086958823A8
:100B800009F4C8C0402F429546954770440F440F62
:100B9000602F6F70862F90E0A0E0B0E0042E04C0BC
:100BA000880F991FAA1FBB1F0A94D2F704FF10C019
:100BB0000FE010E020E030E004C0000F111F221F02
:100BC000331F4A95D2F7009510952095309503C0B4
:100BD00000E010E09801C695C695C370BC01CD0138
:100BE000602B712B822B932BC23049F058F4C1300B
:100BF00019F00E944A088EC00E9438088BC00E94DB
:100C00005C0888C00E94AB0785C0CF70DD2339F037
:100C10008C2F0E94D107802F0E9492047BC0802FCE
:100C20000E9499048C2F0E94F20774C0023F01F1C8
:100C300028F4003F41F0013FA1F03FC0033FF9F02D
:100C4000043F39F13AC0DD2341F0153008F05EC0B1
:100C50008C2F8F710E94170859C0163008F056C0AB
:100C6000F7CFDD2339F08C2F8F710E94D1074EC052
:100C7000DD23C9F38C2F8F710E94F20747C0DD235B
:100C800029F08C2F8F710E94BC0740C00E94B707CB
:100C90003DC0DD2349F0CF718C2F0E94D10763E066
:100CA0008C2F0E947B0D32C081E00E94960D123085
:100CB00068F182E00E94960D29C0DD2331F01123F6
:100CC00091F2802F0E94710321C0112399F2093300
:100CD00049F49FEFE7EEF3E09150E040F040E1F798
:100CE00000C00000802F0E94130410C04C2F4F70D2
:100CF000602FC7010E943F0F0E9436090FC04C2F82
:100D00004F70602FC7010E94420F08C088EF8C0D02
:100D1000843020F40E94D0190E941803DD20C9F00D
:100D20000E94C80C80FD15C0F70112820E94C20CFF
:100D30000E94D107C7010E94CA060E94C20CDF911F
:100D4000CF911F910F91FF90EF90DF90CF900C9477
:100D5000F207DF91CF911F910F91FF90EF90DF90FD
:100D6000CF9008950F931F93CF93DF93EC01688189
:100D700079818A810E9413098C010E946E080E9469
:100D80005F07B801CE010E94A004DF91CF911F91AF
:100D90000F910895CF93DF93EC01988189812B8186
:100DA0003C81232B31F08F3F31F481E09F3F19F4D8
:100DB00003C081E001C080E080FD19C0CE010E9427
:100DC000BE0281110CC00E94CC0C882381F08A8164
:100DD000882369F082E0DF91CF910C94960DCE01CB
:100DE0000E94B206CE01DF91CF910C949C02DF915C
:100DF000CF91089580E090E00E94EE1980E090E0AD
:100E00000E94041A0E94140D0E94240D0C94460D99
:100E100080910001909101010E94601A0C94FA06E1
:100E20000E94040D0C940807E92FE295EF704E2FF5
:100E300050E0FA013297EE30F105B0F4EA59FF4F75
:100E40000C945422803F91F018F4883E68F40EC050
:100E5000843F51F40BC0883E48F0813F29F406C01E
:100E600093FB882780F9089580E0089581E0089534
:100E7000FC01808191810E9408090E941407089555
:100E8000CF93DF9300D000D01F92CDB7DEB70F9085
:100E90000F900F900F900F90DF91CF910895CF9307
:100EA000DF9300D000D000D0CDB7DEB726960FB6C6
:100EB000F894DEBF0FBECDBFDF91CF9108950895A6
:100EC00008950C9460070C9461070E946307609377
:100ED000D6017093D7018093D8019093D9010C94D7
:100EE000FA060C9465070F931F930091D601109199
:100EF000D7012091D8013091D901602B712B822B21
:100F0000932B1F910F910C9465070F931F930091E2
:100F1000D6011091D7012091D8013091D9016023D9
:100F20007123822393231F910F910C9465070F93D4
:100F30001F930091D6011091D7012091D8013091D3
:100F4000D90160277127822793271F910F910C9455
:100F500065070C9460070E94A9076093D201709303
:100F6000D3018093D4019093D5010C94FA0660E0EC
:100F700070E0CB010C94AB070F931F9341E050E05E
:100F800060E070E08A019B0104C0000F111F221F66
:100F9000331F8A95D2F7C901B8011F910F910C94A4
:100FA000AB070F931F9341E050E060E070E004C096
:100FB000440F551F661F771F8A95D2F78091D20183
:100FC0009091D301A091D401B091D5018A019B01E8
:100FD000082B192B2A2B3B2BC901B8011F910F910C
:100FE0000C94AB070F931F9341E050E060E070E07A
:100FF00004C0440F551F661F771F8A95D2F740958E
:101000005095609570958091D2019091D301A091F7
:10101000D401B091D5018A019B01082319232A2309
:101020003B23C901B8011F910F910C94AB070F939B
:101030001F9341E050E060E070E004C0440F551F92
:10104000661F771F8A95D2F78091D2019091D301C4
:10105000A091D401B091D5018A019B0108271927DD
:101060002A273B27C901B8011F910F910C94AB07A8
:101070000F931F930091D2011091D3012091D401BD
:101080003091D501602B712B822B932B1F910F91E7
:101090000C94AB070F931F930091D2011091D301D1
:1010A0002091D4013091D5016023712382239323B1
:1010B0001F910F910C94AB070F931F930091D201D6
:1010C0001091D3012091D4013091D501602771276F
:1010D000822793271F910F910C94AB07089527E067
:1010E000929F800D1124E82FE695E695E69587708E
:1010F00051E001C0550F8A95EAF785E0E89FF001BD
:101100001124EB55FE4F20E030E070E04081CB0130
:10111000022E02C0969587950A94E2F78170819518
:1011200084278523842781932F5F3F4F2530310506
:1011300069F7089527E0929F800D1124682F669526
:1011400066956695982F977085E0689FB001112489
:1011500040E050E080E0FB01E40FF51FEB55FE4F4F
:10116000208130E0092E02C0369527950A94E2F7D7
:1011700021703327042E01C0220F0A94EAF7822B34
:101180004F5F5F4F4530510531F70895BF92CF92C1
:10119000DF92EF92FF920F931F93CF93DF938C0117
:1011A000C090D201D090D301E090D401F090D5014D
:1011B0008091D6019091D701A091D801B091D90129
:1011C000C82AD92AEA2AFB2ACFE1D0E0D701C601F2
:1011D0000C2E04C0B695A795979587950A94D2F7DB
:1011E00080FD04C0219790F7B12C07C0BC2EB80138
:1011F0008C2F0E9473100197A9F38B2DDF91CF9153
:101200001F910F91FF90EF90DF90CF90BF900895C6
:10121000CF93DF93EC010E94C608BE010E947310B9
:10122000DF91CF9108951F93CF93DF93EB019091BE
:10123000A401992321F0CB010E94080913C088233F
:1012400049F0CB010E94C608182F682FCE010E94DA
:101250006F0804C0CB010E949A08182FBE01812F8D
:101260000E947310DF91CF911F910895EF92FF922A
:101270000F931F93CF93DF938C01892B09F46CC0DC
:10128000F12CEE24E394E8012196F801849184374F
:1012900040F4843008F051C0813081F0823019F17F
:1012A0005BC0853709F444C0A8F19CE7980F9037DC
:1012B00008F052C08F770E94130441C00E5F1F4F89
:1012C000FE01849190E2980F983050F48770FE2DC3
:1012D00001C0FF0F8A95EAF78F2F0E94170D14C0E7
:1012E0000E9471032DC00E5F1F4FFE01849190E29A
:1012F000980F983060F48770FE2D01C0FF0F8A951B
:10130000EAF78F2F0E941D0D0E94460D19C00E9402
:10131000130416C00E5F1F4FFE01C491CC2381F051
:101320008FE99FE00197F1F700C00000C150F6CFB0
:101330000E5F1F4FFE01F49003C00E9471038E01E7
:101340008F2D882309F49FCFEFE9FFE03197F1F764
:1013500000C000008150F5CFDF91CF911F910F9118
:10136000FF90EF9008951F93CF93DF93C091DA0120
:1013700016E08091DB01C81799F0D0E01C9FF001C6
:101380001D9FF00D1124E452FE4F40815181628176
:101390007381848195810E944F072196C770E9CFA0
:1013A000DF91CF911F91089540910C0250910D0251
:1013B00060910E0270910F028091100290911102C3
:1013C0000C944F070F931F93CF93DF9380911102DB
:1013D00082958F7009F05DC080910E02882309F418
:1013E00058C08091DA011091DB0160910C0270917C
:1013F0000D02C0910F02D091100291E06F3F09F0F1
:1014000090E0292F06E0811709F443C0209721F0CE
:101410007F3F21F030E003C031E001C0322F90E087
:1014200030FD34C0089FF001099FF00D1124DF0149
:10143000A452BE4F11963C911197371327C03C918F
:10144000361324C012963C91129731111FC0139687
:101450004D915C9114974C1B5D0B48375105B0F4CE
:10146000809111028F70806180931102EF51FE4FC5
:1014700080818F70806180838CE092E00E94CA0638
:10148000DF91CF911F910F910C94B3090196877052
:10149000BACFDF91CF911F910F9108959F92AF9294
:1014A000BF92CF92DF92EF92FF920F931F93CF9351
:1014B000DF93CDB7DEB761970FB6F894DEBF0FBEEE
:1014C000CDBF8C0185E0F801DE011D9601900D92E3
:1014D0008A95E1F7F801E28090910C0260910D028B
:1014E00020910F02309110022115310531F06F3F2C
:1014F00031F481E09F3F19F403C081E001C080E036
:10150000F82FF1709F2E80FD3FC1F801408151817D
:10151000A380B4808CE0C82E82E0D82EF0900E021A
:10152000F501E21BF30BFF2009F4D9C080911102F1
:10153000E837F10508F095C0282F207F09F052C048
:10154000561313C0491311C0FE2CE1100EC08F704A
:101550008061809311020E94D409C6010E94CA06CC
:1015600080911102F80185834CC1AB2831F05F3FB7
:1015700031F481E04F3F19F403C081E001C080E005
:1015800080FD03C081E08E2502C080E090E0F82F4E
:10159000F170FF2E80FF1CC08091DA012091DB01E9
:1015A00036E0821709F40BC190E0389FF001399FB3
:1015B000F00D1124E452FE4F6181561306C0608184
:1015C000461303C06281E61203C001968770E9CF1B
:1015D000FE2CEE2009F415C18091110281608093E8
:1015E000110254C0561306C0491304C0E11002C0D2
:1015F000F80199C0C8010E943807882361F1EE20E4
:1016000051F120911102822F82958F7090E0029704
:1016100074F080910C0290910D0298878F83198647
:10162000BB86AA862C87CE0107960E94CA0686E052
:10163000F801ACE0B2E001900D928A95E1F70E94CA
:10164000E2090E94D4090AC0561711F1C8010E948C
:10165000380781112CC0C8010E94CA06FF24F394E8
:10166000D0C0282F207F81F77A2DB98AA88A6E2DC5
:1016700089890E9440078CE092E00E94CA0686E0B9
:10168000F60111928A95E9F70E94D409F12CB9C0AC
:101690004913DCCFE110DACFF8018583C8010E943D
:1016A000CA0686E0F60111928A95E9F7AAC0EE20F3
:1016B00091F220911102822F82958F7090E0029713
:1016C0000CF4B5CF80910C0290910D029A8389831E
:1016D0001B82BD82AC822E83CE010196A6CFE83755
:1016E000F10508F044C0FE2CEE2009F4B4CF5613E7
:1016F00030C049132EC02091110220FD21C0822F3D
:1017000082958F70482F50E041155105C9F0F801BE
:1017100025834F30510541F08F5F982F9295907F30
:10172000822F8F70892B8583C8010E94CA0686E0AC
:10173000F801ACE0B2E001900D928A95E1F73CC06F
:1017400086E0F801ACE0B2E001900D928A95E1F7F5
:1017500058C0C8010E943807811169CF80911102D9
:10176000816080931102C8010E94CA064AC07A2D86
:10177000B98AA88A6E2D89890E94400786E0F60101
:1017800011928A95E9F718C0EE2009F464CFC801D8
:101790000E943807F82E882309F45DCF86E0F8010F
:1017A000ACE0B2E001900D928A95E1F78CE092E016
:1017B0000E946B030E94E2090E94D40922C04D8757
:1017C0005E878D859E850E940809292F22952F709E
:1017D000223028F49F7039F0811105C00BC02430ED
:1017E00028F49F7049F4805E883020F0C8010E9480
:1017F000CA069F2CF92C05C0F8019581907F99F7B6
:10180000F9CF8F2D61960FB6F894DEBF0FBECDBF16
:10181000DF91CF911F910F91FF90EF90DF90CF90CC
:10182000BF90AF909F9008951F93CF93DF93CDB754
:10183000DEB72C970FB6F894DEBF0FBECDBF4F8337
:10184000588769877A878B879C87CE0107960E9485
:101850004E0A8823D1F09F8188852A853B85232BDA
:1018600031F08F3F31F481E09F3F19F403C081E0F4
:1018700001C080E080FD47C04F81588569857A8529
:101880008B859C850E944F073EC086E0FE013796FF
:10189000DE01119601900D928A95E1F7FF81E885AE
:1018A0006A857B856115710531F0EF3F31F481E088
:1018B000FF3F19F403C081E001C080E080FD23C038
:1018C0002091DB0130E0C901019687709927409192
:1018D000DA0150E084179507F1F1F983EA837D83FB
:1018E0006C8396E0929FD001939FB00D1124A45277
:1018F000BE4FFE01319601900D929A95E1F78093CB
:10190000DB010E94B30916E08091DA019091DB01BE
:10191000891771F1189FC001112484529E4F0E94B3
:101920004E0A882329F1E091DA011E9FF00111246B
:10193000E452FE4F4081518162817381848195819F
:101940000E944F078091DA0190E0019687709927F5
:101950008093DA01D9CF0E9410071092DB01109218
:10196000DA01ECE0F2E086E0DF011D928A95E9F70A
:101970002C960FB6F894DEBF0FBECDBFDF91CF918E
:101980001F910895809112028595859585950895FA
:10199000809112028770089590911202977081E0F1
:1019A00009F480E0089590916F0292FB222720F9BC
:1019B000281751F080FB92F990936F0280916E028C
:1019C00090916F020C94D70D089580916F0282FB65
:1019D000882780F991E089270C94D30C81E00C943E
:1019E000D30C80E00C94D30C80911E02089590914A
:1019F0001E02892B80931E020895809590911E02ED
:101A0000892380931E02089510921E0208959091DA
:101A10001D02892B80931D020895809590911D02CF
:101A2000892380931D02089510921D0208959091BC
:101A30001C02892B80931C020895809590911C02B2
:101A4000892380931C02089510921C0208958091AE
:101A50001302089508950C942A0D0C942B0D909167
:101A60006F0292FD08C090911302981721F08093A5
:101A700013020C942D0D089580911302882329F0F0
:101A80001092130280E00C942D0D0895E091000156
:101A9000F091010180911E028083E0910001F0919C
:101AA0000101908180911D02892B8083E0910001CA
:101AB000F0910101908180911C02892B808380919B
:101AC0001302882381F0E0910001F09101019081DF
:101AD000892B808380910001909101010E941A1A44
:101AE00081110E943C0D80910001909101010C94A4
:101AF000E3190C942A0D90916F0292FD10C098E0AA
:101B0000899F90011124262B209312020E94D10755
:101B1000809112028595859585950C94790D0C948C
:101B2000D1071092120280E00C94790D20911202DC
:101B30008095822380931202982F977041F430E0B1
:101B4000482F082E000C550B2417350721F49091CF
:101B50006F0292FF07C08595859585950E94F207D3
:101B60000C94910D089580E090E00E94782221E08D
:101B7000893E9E4F09F020E0822F089582E090E098
:101B80000C94702283E090E00C947022CF9384E058
:101B900090E00E947022C82F82E290E00E947022A2
:101BA0002C2F30E0A901582BCA01CF910895CF9373
:101BB000C92F682F84E090E00E947E226C2F82E281
:101BC00090E0CF910C947E22AB01BC018FE090E0BD
:101BD0000C949022AB01BC0183E190E00C94902224
:101BE00060E070E0CB010C94EA0D60E070E0CB01A6
:101BF0000E94E40D0C94F00D69EE7EEF80E090E021
:101C00000E949C2260E082E090E00E947E2260E0E0
:101C100083E090E00E947E221092D6011092D701BC
:101C20001092D8011092D90160E084E090E00E9407
:101C30007E2260E082E290E00E947E2260E085E009
:101C400090E00E947E2260E086E090E00E947E228A
:101C50006FEF87E090E00E947E2240E050E0BA0102
:101C600088E090E00E94902260E08DE090E00E9489
:101C70007E2240E050E0BA0188E190E00E9490228C
:101C800060E087E190E00E947E2240E050E0BA01EF
:101C90008CE190E00E94902260E070E080E290E0B1
:101CA0000E949C2240E050E0BA0188E190E00E944E
:101CB00090220C94F50D0C94FC0D682F8EE090E0B2
:101CC0000C947E220E943C1B60932E0270932F0284
:101CD000809330029093310260932A0270932B021A
:101CE00080932C0290932D02089585B7806885BF5C
:101CF00085B7806885BF08950C94351308950C94BA
:101D00007E0E0C947E0E0C94810E0C947E0E0C9420
:101D1000850E0C947E0E0E94750E8FE491E10E9458
:101D2000AA1B0E94890E0C94870E0E947F0E0C94B1
:101D30007E0E0E94271B0E94671A0E9430120E948A
:101D400072150C94830E9F92AF92BF92CF92DF9246
:101D5000EF92FF920F931F93CF93DF93CDB7DEB730
:101D60002A970FB6F894DEBF0FBECDBF0E94AA120D
:101D700081110E94620E80E2A82E82E0B82E00E05F
:101D800010E0902E802F0E947611D82EF501C19080
:101D90005F01C826B1F40F5F1F4F0A30110589F7A4
:101DA0008FEF89838A831B820E94301B8160782F8A
:101DB0009D838C8349815A816B818D810E9421038F
:101DC0002FC08091320281FD0E947C11E12CFF2402
:101DD000F3948C2D8F21F1F00E947C0E882399F0D2
:101DE000EE829F82DF2081E009F480E088870E94F4
:101DF000301B8160782F9A8789874E815F81688543
:101E00008A850E942103F801E05EFD4F8081F8265B
:101E1000F08206C0E394FF0CF7E0EF12DACFBBCFFD
:101E20000E94D01990911F028917B9F00E94D01911
:101E300080931F022A960FB6F894DEBF0FBECDBF67
:101E4000DF91CF911F910F91FF90EF90DF90CF9096
:101E5000BF90AF909F900C9418032A960FB6F894F9
:101E6000DEBF0FBECDBFDF91CF911F910F91FF90CD
:101E7000EF90DF90CF90BF90AF909F90089580E05B
:101E800090E00895089526E4829FC0011124FC018A
:101E900027E0729FE00DF11D1124E60FF11DEE0FFA
:101EA000FF1FE450FF4F859194910895880F991F6B
:101EB000FC01E45DFC4F859194910895CF93DF93ED
:101EC0000E947810EC01811520E5920708F041C0CE
:101ED000811540E4940708F0CBC0803E910520F5C1
:101EE000803C910508F0B8C0883A910570F4853AB5
:101EF000910508F0A8C08130910509F4A1C008F44B
:101F0000EBC0049708F0EBC0E7C08F3B910508F0E9
:101F1000E3C0885AC82FD0E0CC0FDD1FC35ADE4F74
:101F2000888199819464DCC0811550E2950750F452
:101F3000C11581E0D80708F0D2C0C83ED10508F429
:101F4000CEC0CAC0811520E3920708F08AC09F70F6
:101F500085C0811545E5940708F046C0811554E514
:101F6000950708F09DC0C11582E5D80718F5C11581
:101F700021E5D20708F07FC0CE01F4E09695879561
:101F8000FA95E1F7282F23703C2F337081E090E021
:101F900002C0880F991F3A95E2F79C68922B2C2F6C
:101FA0002F702695269540E2249F90011124822BC4
:101FB000932B96C09E01237033279C2F9695969560
:101FC000C115D34508F05CC041E050E002C0440FA9
:101FD000551F2A95E2F780E2989F90011124CA01CB
:101FE000822B932B9C687CC0811559E5950798F44A
:101FF000C11588E5D80708F058C0C11526E5D207F5
:1020000008F06AC08C2F0E940C118F7190E0982FFD
:102010008827906265C081154AE5940708F44AC094
:1020200090568115904208F057C08D2F8F710E94F5
:102030000C119E01332730628F71A901582B4AC0C1
:1020400081E090E04DC0855AC82FD0E0C557DE4FE3
:10205000888190E0906444C0805C91090E94560F92
:102060003FC09927D3FF02C0986C3AC0906C38C02B
:102070009F70906A35C09C2F8827816F906A30C00E
:1020800041E050E002C0440F551F2A95E2F780E27C
:10209000989F90011124CA01822B932B9A6820C02B
:1020A000982F8827846F906A1BC09C2F8827806F89
:1020B000906A16C08F700E940C119E0194E03695B4
:1020C00027959A95E1F72F7030E0322F222730695B
:1020D000A901482BCA0104C080E090E001C0CE01F4
:1020E000DF91CF9108950E94430F0E945E0F0895E3
:1020F0008238910569F1B0F48133910509F46DC01E
:1021000048F48932910509F463C08A32910509F4D3
:1021100069C008958533910509F455C08933910547
:10212000B9F00895833E910569F138F4803E910538
:10213000B1F0823E910509F10895863E9105A9F11D
:10214000873E9105B9F1843E910509F064C023C032
:1021500020916E0220FD4FC021FD4DC00895809159
:102160006E0280FD44C080916F0280FF44C0809168
:102170006E0284FD42C083EE4DC080916E0282FFEC
:1021800038C0F5CF80916E0282FD33C080916F021E
:1021900080FD31C0ECCF80916F0281FF32C0809111
:1021A0006E0284FD2AC087EE35C080916E0283FFE7
:1021B00026C0F5CF80916E0283FD21C080916F0211
:1021C00081FD1FC0ECCF80916E0285FD1CC01DC03B
:1021D00080916E0285FD19C016C080916E0286FD49
:1021E00016C017C080916E0286FD13C010C089E32F
:1021F00011C082EE0FC080EE0DC080E00BC086EEF5
:1022000009C084EE07C089E205C085E303C08AE205
:1022100001C081E390E0089590916E0292FF0DC09D
:10222000282F2871283019F4877F846006C0282F52
:102230002471243011F48B7F886093FF0DC0282F08
:102240002871283119F4877E846106C0282F2471F3
:10225000243111F48B7E886120916F0220FF0DC024
:10226000382F3871383019F4877F816006C0382FD5
:102270003171313011F48E7F886021FF0DC0282F1D
:102280002871283119F4877E816106C0282F2171B9
:10229000213111F48E7E886194FD877E089580E05F
:1022A000089508950E94B30D811102C00E945B0E33
:1022B0000E94BE0D809332020E94C60D90936F0261
:1022C00080936E020E9451110E94C20D682F70E02F
:1022D00080E090E00E9471076091D2017091D3017B
:1022E0008091D4019091D5010C94A907E82FF0E0DA
:1022F000E658FD4F80810895089580EA8A95F1F7A8
:10230000089500C008950C947D1108950C948511D2
:102310000C9486110C948511F894E82FE295EF70D7
:10232000F0E031A1282F2F7081E090E001C0880FEC
:102330002A95EAF7982F9095932391A392A1892B40
:1023400082A37894089508950C94A3110F931F937A
:10235000CF93DF93C5E9D1E089918F3F11F00E94BF
:102360008C1181E0CA39D807B9F7CEE8D1E005E988
:1023700011E089918F3F11F00E948C110C171D07FD
:10238000C1F7DF91CF911F910F910895CF92DF9206
:10239000EF92FF920F931F93CF93DF938C01C62F81
:1023A000D0E0CE018B569E4F7C01FC0190819F3F77
:1023B00009F44DC0D62EF894E92FE295EF70F0E0C5
:1023C00081A19F7021E030E001C0220F9A95EAF7C9
:1023D000822B81A382A12095282322A378940E9496
:1023E0008111EEE8F1E020E030E0C12C51E04191B4
:1023F0004F3FB1F0A42FA295AF70B0E090968C91B2
:1024000090E04F7002C0959587954A95E2F780FD60
:1024100007C0852F022E01C0880F0A94EAF701C079
:1024200080E0C82A2F5F3F4F2730310501F7F701C1
:1024300080818F3F11F00E948C1161E0C11001C0BA
:1024400060E08D2D0E948311C00FD11FC882DF91E3
:10245000CF911F910F91FF90EF90DF90CF90089553
:102460000E944F138091020180910201811102C0EC
:1024700095E001C090E09093850285E0891B8093F0
:1024800084020E94A611E0E7F2E0AAE7B2E011920E
:102490001D9282E0EA37F807D1F785E00E94FE122C
:1024A0000E94A7020C9459130F931F93CF93DF93AD
:1024B00000D000D01F92CDB7DEB70E9435136091D7
:1024C0008502882379F18E010F5F1F4F85E0F801A7
:1024D00011928A95E9F7862F90E0B80186589D4FB2
:1024E0000E946713E09184029E012A5F3F4FF0E053
:1024F000E658FD4FD801882361F010E08D9190815E
:10250000981711F0808311E03196A217B307B1F745
:1025100006C011921D92A217B307D9F711E00E94CD
:10252000AD020DC070E066587D4F8091840290E04E
:1025300086589D4F0E94F7130E94A41110E0812F2E
:102540000F900F900F900F900F90DF91CF911F91F0
:102550000F910895EF92FF920F931F93CF93DF9304
:10256000CDB7DEB72A970FB6F894DEBF0FBECDBF4A
:102570008E010F5F1F4F8AE0F80111928A95E9F7EB
:10258000F12C6F2DC8010E94C611F394F5E0FF12E3
:10259000F8CF4AE050E0B80180E792E00E945A226A
:1025A0007C0121E0892B09F420E0E114F10441F0E1
:1025B0008AE0F801A0E7B2E001900D928A95E1F778
:1025C0006091850270E066587D4F45E080E792E0BB
:1025D0000E94FF12EF2819F40E94541202C081E0F9
:1025E00090E02A960FB6F894DEBF0FBECDBFDF9104
:1025F000CF911F910F91FF90EF9008950895FF9252
:102600000F931F93CF93DF938C01F62ED72FC42FF8
:10261000222349F081E0809335020E94301B909381
:10262000340280933302809135028823C1F0809177
:102630003302909134020E94481B059780F0EF2DE1
:10264000FD2FD8014C2F50E0CD01801B910B84173A
:1026500095071CF48D918193F7CF10923502DF918D
:10266000CF911F910F91FF900895809138028111B1
:102670000DC00E944722811102C082E001C081E0AA
:1026800080933802823011F40E94422281E09091BE
:102690003802913009F080E008950C9435130E94BF
:1026A0004D13809302010E94351381110C949F13E6
:1026B00008950E943513811102C00C94A11308954E
:1026C00081E0909139029A3008F080E008950F93EC
:1026D0001F93CF93DF93EC018B01809139028A30F5
:1026E00038F4B801CE010E94F51381111DC00AC053
:1026F00080913602909137020E94481B843F91409E
:1027000080F715C0809139028F3F19F08F5F809359
:102710003902809139028A3060F00E94301B909318
:1027200037028093360203C01092390202C080E063
:1027300001C081E0DF91CF911F910F9108950C941A
:1027400006180C940918EF92FF920F931F93CF93E2
:10275000DF937901C82F880FDD0B41155105A9F0D2
:102760008AE08C9FF0018D9FF00D1124ED5FFE4FEC
:1027700083819481865C9D4F228130E0421753070C
:1027800008F49A01A9010E946722CE010E94131940
:10279000892B09F50115110501F18AE08C9FF001E3
:1027A0008D9FF00D1124ED5FFE4F458150E0041721
:1027B000150708F4A8018AE08C9FF0018D9FF00DA9
:1027C0001124ED5FFE4F66817781665C7D4FC70106
:1027D0000E94672202C080E001C081E0DF91CF91BA
:1027E0001F910F91FF90EF9008950C9411150C9488
:1027F0002D150F931F93CF93DF9300D000D0CDB74B
:10280000DEB7609151027091520280915302909113
:1028100054020E94571B643671058105910528F109
:102820000E948D1ADC01CB010296A11DB11D898386
:102830009A83AB83BC8300E010E020E030E044E00A
:1028400050E0BE016F5F7F4F82E00E94A313182FFC
:10285000882361F00E943C1B6093510270935202E6
:10286000809353029093540201C011E0812F0F9086
:102870000F900F900F90DF91CF911F910F910895BE
:10288000AF92BF92CF92DF92EF92FF920F931F937E
:10289000CF93DF937C015B016A010E946013811179
:1028A00003C001E010E002C00AE010E0C1E0D0E0A7
:1028B000F894B501C701F60109957894811115C006
:1028C00021960C171D0794F0CC9F9001CD9F300DE1
:1028D000300D112480E090E045E34A95F1F70000C7
:1028E000019682179307C1F7E3CF81E0DF91CF9183
:1028F0001F910F91FF90EF90DF90CF90BF90AF901E
:102900000895AF92BF92CF92DF92EF92FF920F9312
:102910001F93CF93DF9300D000D000D0CDB7DEB7A8
:102920007B01C0909F01D090A00101E010E09E01CA
:102930002A5F3F4F40E050E060E070E080E00E949E
:10294000A313182F882309F43EC056018FEFA81A4D
:10295000B80A60914D0270914E0280914F029091A1
:1029600050020E94571B643671058105910518F1CC
:1029700005E010E09E012F5F3F4F40E050E060E037
:1029800070E081E00E94A313182F65E070E0C5019C
:102990000E94731591E02E81281390E0192339F1DC
:1029A0000E943C1B60934D0270934E0280934F0235
:1029B0009093500211C065E070E0C5010E9473154C
:1029C0009E818913D5CF85E0F6013196DE011196FF
:1029D00001900D928A95E1F7112349F085E0FE01FF
:1029E0003196A8E4B2E001900D928A95E1F785E076
:1029F000E8E4F2E0D70101900D928A95E1F7812F8A
:102A000026960FB6F894DEBF0FBECDBFDF91CF91F3
:102A10001F910F91FF90EF90DF90CF90BF90AF90FC
:102A200008950F931F93CF93DF93EC018B0141E83F
:102A300054E10E944014882351F049EF53E1B8015A
:102A4000CE01DF91CF911F910F910C94401480E043
:102A5000DF91CF911F910F9108950F931F93CF9303
:102A6000DF93F894C0919F01D091A001CE0101960F
:102A700025E0FB01DC0101900D922A95E1F765E06C
:102A800070E00E94731588837894F8946E817F813A
:102A90008885998500914402109145022091460253
:102AA00030914702601771078207930751F06093D6
:102AB00044027093450280934602909347020E941D
:102AC000701A7894DF91CF911F910F9108950E9411
:102AD000A81A0E94ED1C0E94061D0E94181D0E944B
:102AE000950EFBCF0895FC01680F791F8FEF91E3DE
:102AF000E617F70771F02191822728E030E087FF81
:102B000003C0880F892701C0880F21503109B9F708
:102B1000EFCF08950F931F93CF93DF93C42FD22F3E
:102B2000FC0182818823C9F0409357020E94301B28
:102B3000909356028093550280E28C0F883008F003
:102B400057C0C77081E001C0880FCA95EAF7DF91CE
:102B5000CF911F910F910C949204809157024813CA
:102B600030C080915502909156020E94481B8837D0
:102B7000910538F510E21D0FCD17B9F080E28C0FEA
:102B8000883040F4C77081E001C0880FCA95EAF729
:102B90000E949904183028F581E09D2F977001C09C
:102BA000880F9A95EAF70E949204802F0E94890468
:102BB0001830F0F4D77081E001C0880FDA95EAF799
:102BC0000AC080E28C0F883098F4C77081E001C0A1
:102BD000880FCA95EAF7DF91CF911F910F910C945E
:102BE0009904802FDF91CF911F910F910C9489044C
:102BF000DF91CF911F910F9108950F939C01CB010D
:102C0000243F4CE5340731F188F4293DFCE53F07CA
:102C1000D9F02A3D4CE5340779F1283D3C45A9F52A
:102C200006E221EE41EE68ED7CE52BC0263FFCE597
:102C30003F07E1F0A8F0273F3C4539F507E225EED4
:102C400046EE67EF7CE51DC007E225EE45EE69ED37
:102C50007CE517C006E221EE40EE64EF7CE511C092
:102C600007E225EE44EE65EF7CE50BC006E221EEBF
:102C700042EE66EF7CE505C008E221E045EE6AED34
:102C80007CE50E948A1580E008C0FC0182818823CF
:102C900019F01092570201C081E00F910895CF936F
:102CA000DF93EC01FB018281882309F41FC1C2304C
:102CB000FCE5DF0708F41BC1C6319CE5D90738F0F5
:102CC0009E012B5F3C452930310508F010C10E9460
:102CD000C60D90936F0280936E02C031ECE5DE0763
:102CE00009F4C3C008F041C0C8308CE5D80709F426
:102CF0009AC0F0F4C430ECE5DE0709F487C068F44C
:102D0000C2308CE5D80709F477C0C330DC4509F040
:102D1000E3C080916E02826076C0C630ECE5DE07CB
:102D200009F46EC008F07BC080916E0288606BC0B1
:102D3000CC308CE5D80709F485C068F4CA30ECE5DE
:102D4000DE0709F474C008F079C00E941007809172
:102D50006E02806858C0CE308CE5D80709F476C082
:102D600008F07FC080916E028BC0CC3FECE5DE079F
:102D700009F44FC018F5C3318CE5D80709F47DC0BC
:102D800078F4C131ECE5DE0709F473C0C231DC45EB
:102D900009F0A2C00E94100780916E028F7733C0A5
:102DA000C5318CE5D80709F472C008F486C0CB3F62
:102DB000DC4509F091C080916F023EC0C115FDE570
:102DC000DF0709F45FC058F4CE3F9CE5D90709F44A
:102DD00044C008F43FC080916F0282602DC0C230B1
:102DE000FDE5DF0709F475C008F45DC0C330DD45BB
:102DF00009F072C080E06EC080916E02816003C0F5
:102E000080916E02806180936E0266C080916E0236
:102E100011C080916F02826080936F025DC08091CB
:102E20006E028062F0CF80916E028064ECCF809160
:102E30006E0288608460E7CF8160EECF80916E0281
:102E40008E7FE1CF80916E028D7FDDCF80916E020B
:102E5000877FD9CF80916F0218C080916F028D7FDC
:102E6000DBCF80916E028F7ECECF80916E028F7D00
:102E7000CACF80916E028F7BC6CF80916E02877F12
:102E80008B7FC1CF80916F028D7F8E7FC5CF809168
:102E90006E0282FB222720F991E0922790FB82F9B3
:102EA00090FB83F9B0CF80916F02982F909591702D
:102EB0008E7F892B90FB81F9AFCF0E941007809104
:102EC0006E0287FB222720F991E0922790FB87F979
:102ED0009ACF81E00E945D0E80916E0290916F0208
:102EE0000E94D70D0E94100780E001C081E0DF91B1
:102EF000CF910895CF93DF9386319C4541F5EB0147
:102F00000E94F40C982F8A812091000130910101D8
:102F1000882379F09A7A81E009F480E0809358025E
:102F2000911102C069E201C065E3C9010E945C1A07
:102F30000AC080915802811102C069E201C065E3B4
:102F4000C9010E945E1A0E94460D80E001C081E026
:102F5000DF91CF9108958EE1489B02C08150E1F747
:102F6000489BFECF0895589880E28A95F1F7589AC9
:102F70000895FC012AE02A95F1F728E090E080E02E
:102F800031E040E14A95F1F7880F489B02C081602B
:102F9000932700C0000040E14A95F1F7215089F7DE
:102FA00020E12A95F1F729B100C0000030E13A95FF
:102FB000F1F7217092272081920F90830895EF926C
:102FC000FF920F931F93CF93DF931F92CDB7DEB77E
:102FD00019828C017C01E60EF11C0E151F0551F0C3
:102FE0000E94AB17CE0101960E94B917F801819398
:102FF0008F01F3CF81E09981911180E00F90DF91F3
:10300000CF911F910F91FF90EF900895509A589A89
:1030100008955098589AE89AE9E6F0E080818C7F0C
:1030200080830895615091E001C0990F6A95EAF795
:1030300020E031E0992361F0492F482319F0589A94
:10304000232701C0589840E24A95F1F79695F2CFB0
:10305000222311F0589A01C0589880E28A95F1F71E
:1030600058980895FF920F931F93CF93DF93EC012D
:103070008C01060F111DC017D10741F0F9900E9475
:10308000B31768E08F2D0E941218F5CFDF91CF9112
:103090001F910F91FF9008951F920F920FB60F92FC
:1030A0001124EF92FF920F931F932F933F934F930F
:1030B0005F936F937F938F939F93AF93BF93EF93A0
:1030C000FF93CF93DF931F92CDB7DEB719820E9493
:1030D000AB17CE0101960E94B917A82FA695A69509
:1030E000A6959A2F969595702A2F2570920F292FC5
:1030F000237096959695920F877089137CC089816D
:10310000811179C0A43008F076C080E18A95F1F78A
:10311000589A509AB2E0BA95F1F700C05898EA2E42
:10312000F12CEAE0AE9FD0011124AD5FBE4F18969E
:10313000ED91FC9119973097B1F060919F017091DA
:10314000A00116962D913C911797260F371F1396C5
:103150008D919C911497680F791F15964C91159736
:1031600012968C9109958AE08E9DF0018F9DF00D4D
:103170001124ED5FFE4F6581662351F080919F0120
:103180009091A00126813781820F931F0E943218EF
:103190000E94B317F0E1FA95F1F758985098589AB1
:1031A00080E18A95F1F78AE08E9D80018F9D100D58
:1031B00011240D5F1E4FD80112966C911297662351
:1031C00099F080919F019091A00113962D913C91CF
:1031D0001497820F931F0E94DF17D801ED91FC9185
:1031E000811105C082E004C0D801ED91FC9188E016
:1031F00080830E94AB170F90DF91CF91FF91EF91E9
:10320000BF91AF919F918F917F916F915F914F91FE
:103210003F912F911F910F91FF90EF900F900FBE54
:103220000F901F9018950F931F93CF93DF938430C7
:1032300091050CF0A9C02AE0289FF001299FF00D0C
:103240001124ED5FFE4F20813181232B09F49CC0B6
:10325000EC01F894509A589885E08A95F1F70000AF
:103260008C2F869585709C2F9570890F982F937061
:10327000869586958E0123E0000F111F2A95E1F7B0
:10328000890F082B0E94B317A4E0AA95F1F700C09C
:1032900068E0802F0E941218B0E1BA95F1F75098BB
:1032A000589A489902C000C0FCCF87E090E0489B44
:1032B00017C0019799F4509A589A8AE08C9FF001B0
:1032C0008D9FF00D1124ED5FFE4F0190F081E02DF8
:1032D00081E08083789481E090E058C000C0E7CF1F
:1032E0008AE08C9F80018D9F100D11240D5F1E4F71
:1032F000F80165816623B9F080919F019091A0014A
:1033000026813781820F931F0E94DF1781110BC026
:10331000509A589AD801ED91FC9182E0808378947C
:1033200082E090E033C00E94AB17B0E2BA95F1F7AB
:103330005898509AE0E1EA95F1F78AE08C9FF00105
:103340008D9FF00D1124ED5FFE4F6281662351F0D9
:1033500080919F019091A00123813481820F931F5E
:103360000E9432180E94B3178AE08C9FF0018D9F53
:10337000F00D1124ED5FFE4F0190F081E02D1082E1
:10338000789480E090E002C084E090E0DF91CF91FB
:103390001F910F91089590935F0280935E020895AC
:1033A0000E943513811103C0809159020895E09164
:1033B0005E02F0915F02309721F00190F081E02DE4
:1033C000099480E00895E0915E02F0915F023097E9
:1033D00021F00280F381E02D0994089520915C0290
:1033E00030915D022817390771F090935D02809348
:1033F0005C02E0915E02F0915F02309721F006805E
:10340000F781E02D0994089520915A0230915B02D2
:103410002817390771F090935B0280935A02E0916C
:103420005E02F0915F02309721F00084F185E02D7B
:1034300009940895FC01329697E080E0915029F0BC
:1034400021912223D9F38F5FF9CF0895662349F0A4
:10345000FC01329608962191621729F0E817F907C6
:10346000D1F780E0089581E008959C01FC01329637
:103470009FEF80E04191461789F09F3F19F4411179
:1034800001C0982F8F5F8630A9F79F3F39F0F9016F
:10349000E90FF11D97FDFA956283089508959C0147
:1034A0002A5F3F4FFC014281461301C01282019600
:1034B00082179307B9F708950C94351A0C944F1A94
:1034C000029626E0FC0111922A95E9F708951092E0
:1034D0008702109288021092890210928A0208953F
:1034E000CF92DF92EF92FF926B017C010E94351325
:1034F00081110EC00E943C1BC61AD70AE80AF90ABD
:10350000C0928702D0928802E0928902F0928A02E9
:10351000FF90EF90DF90CF9008950F931F930E943C
:103520003513882321F01F910F910C943C1B0E94AE
:103530003C1B0091870210918802209189023091F2
:103540008A02600F711F821F931F1F910F910895B0
:10355000089508950C94A91A0C94A91ACF930E9467
:10356000AC1A0E94AA120E94AA1AC0E08C2F0E94D4
:103570007611811104C0CF5FCA30C1F701C081E06C
:10358000CF9108950C94A91A0C94C21A80919302B9
:10359000843049F10E94C41A80E00E9418031092FE
:1035A000600220E488E190E00FB6F894A89580933B
:1035B00060000FBE2093600083B7817F846083BF6B
:1035C00083B7816083BF7894889583B78E7F83BFEC
:1035D0000FB6F894A8958091600088618093600090
:1035E000109260000FBE08950C94A91A0E94100753
:1035F0000E94D0190E9418030C94F41A1F920F9283
:103600000FB60F9211248F939F93AF93BF93809126
:103610006002811113C080918B0290918C02A09165
:103620008D02B0918E024196A11DB11D80938B0237
:1036300090938C02A0938D02B0938E02BF91AF91B4
:103640009F918F910F900FBE0F901F90189582E061
:1036500084BD93E095BD9AEF97BD80936E00089569
:103660002FB7F89480918B0290918C02A0918D02DB
:10367000B0918E022FBF08952FB7F89460918B02FE
:1036800070918C0280918D0290918E022FBF0895CF
:103690009C014FB7F89480918B0290918C02A0917D
:1036A0008D02B0918E024FBF821B930B0895CF9273
:1036B000DF92EF92FF922FB7F894C0908B02D090D8
:1036C0008C02E0908D02F0908E022FBFA701960130
:1036D000261B370B480B590BCA01B901FF90EF901D
:1036E000DF90CF90089578941F920F920FB60F92AB
:1036F00011248F939F93AF93BF9380918B029091EE
:103700008C02A0918D02B0918E020196A11DB11D77
:1037100080938B0290938C02A0938D02B0938E02C3
:10372000BF91AF919F918F910F900FBE0F901F90FF
:10373000189587E797E790930108809300089AE02F
:1037400088E10FB6F894A895809360000FBE90931F
:103750006000FFCF9093A3018093A2010895809110
:103760006C02089590919302943031F58093610238
:10377000709363026093620282E08093E9008FEFAE
:103780009091E800815095FD06C095ED9A95F1F76E
:1037900000008111F5CF8091E80085FF0DC040E069
:1037A00050E063E070E081E692E00E94A41D809109
:1037B000E8008E778093E8000895BC0184E00C94C3
:1037C000B21BBC0183E00C94B21BCF93DF9321E0CA
:1037D0002093E9002FEF3091E800215035FD06C01D
:1037E00035ED3A95F1F700002111F5CF2091E80071
:1037F00025FF14C0EC0140E050E068E070E00E945A
:10380000A41D8091E8008E778093E80088E0FE0197
:10381000A4E6B2E001900D928A95E1F7DF91CF9195
:103820000895089580919202811109C00E94351F68
:103830000E94921F8091E20084608093E2000895CC
:1038400010929202089508950895089542E061EC5F
:1038500081E00E94AE1E42E261EC82E00C94AE1E5A
:1038600080919502833009F460C030F4813071F0AA
:10387000823009F499C008958A3009F485C08B30EC
:1038800009F46BC0893009F0A7C020C08091940270
:10389000813A09F0A1C08091E800877F8093E80019
:1038A0008091980290919902892B21F468E084E636
:1038B00092E003C060E080E090E070E00E94EF1DC5
:1038C0008091E8008B778093E800089580919402BE
:1038D000813209F081C080919802909199020297FB
:1038E00008F07AC08091E800877F8093E80080919B
:1038F000E80082FD05C0809193028111F8CF6CC071
:103900002091F3008091F20090E0922B029729F42D
:103910008091F1008B7F813021F48091F1008093C0
:103920006C028091E8008B7753C080919402813AB9
:1039300009F052C08091980290919902892B09F068
:103940004BC08091E800877F8093E8008091E80079
:1039500080FFFCCF80912B0136C080919402813290
:10396000D9F58091980290919902892BA9F58091BF
:10397000E800877F8093E8000E94E31E8091960212
:1039800080932B010C94100780919402813221F5D1
:103990008091E800877F8093E8000E94E31E809179
:1039A000970280936D02089580919402813AA1F468
:1039B0008091E800877F8093E8008091E80080FF95
:1039C000FCCF80916D028093F1008091E8008E77AA
:1039D0008093E8000C94E31E089584B7877F84BF2A
:1039E0000FB6F894A895809160008861809360007C
:1039F000109260000FBE90E080E80FB6F8948093BC
:103A00006100909361000FBE0C948B0E0E94351FD5
:103A10000E94921FE2EEF0E08081846080837894BF
:103A20000E9427220E94990E81E291E00C94CB190A
:103A3000809193028530A9F480919302853079F4C6
:103A40000E94C61A809191028823B1F30E94AE1A97
:103A5000882391F30E948E1D0E941007EDCF0E94D3
:103A6000F61A0C94A30E0C94351D292F33272330FE
:103A70003105C9F060F42130310581F02230310583
:103A800009F044C08BE390E022E533E043C02132EB
:103A90003105E1F02232310549F138C082E190E090
:103AA0002DE833E037C099278130910549F028F09F
:103AB000029761F5ECE2F3E005C0EEE4F3E002C04A
:103AC000E0E4F3E0849190E09F0124C0611571056A
:103AD00041F061307105D1F489E090E02DE733E0E9
:103AE00019C089E090E024E633E014C06115710547
:103AF00041F06130710551F482E390E02FE933E049
:103B000009C080E490E021ED33E004C080E090E063
:103B100020E030E0FA0131832083089580E189BDFF
:103B200082E189BD09B400FEFDCF8091D8008F7D70
:103B30008093D8008091E00082608093E0008091C3
:103B4000E00081FDFCCF0895CF92DF92EF92FF92CB
:103B50000F931F93CF93DF93EC018B017A010E94A7
:103B6000021F811133C0E114F10439F0F7018081A3
:103B70009181081B190BC80FD91FC12CD12C01151D
:103B8000110519F18091E80085FD16C08091E800CB
:103B90008E778093E800E114F10449F0F701808109
:103BA0009181C80ED91ED182C08285E00FC00E94CB
:103BB000021F882321F30AC089918093F1000150EC
:103BC0001109FFEFCF1ADF0ADACF80E0DF91CF9142
:103BD0001F910F91FF90EF90DF90CF90089520916B
:103BE0009A0230919B022617370748F0611571053C
:103BF00039F42091E8002E772093E80001C0B90144
:103C0000FC0120E06115710579F180919302882310
:103C1000F1F18530F1F18091E80083FD3CC08091A5
:103C2000E80082FD2EC08091E80080FFEBCF20915C
:103C3000F3008091F20090E0922B6115710551F034
:103C40008830910538F421912093F1006150710979
:103C50000196F3CF21E0089709F020E08091E80079
:103C60008E778093E800CECF2111CFCF0AC080910C
:103C70009302882361F0853061F08091E80083FD34
:103C80000AC08091E80082FFF2CF80E0089582E0D0
:103C9000089583E0089581E0089520919A0230917B
:103CA0009B022617370748F06115710539F42091FA
:103CB000E8002E772093E80001C0B901FC0120E064
:103CC0006115710591F180919302882309F440C038
:103CD000853009F43FC08091E80083FD3DC08091AC
:103CE000E80082FD2FC08091E80080FFE9CF20919D
:103CF000F3008091F20090E0922B6115710559F06C
:103D00008830910540F424912093F1003196615060
:103D100071090196F2CF21E0089709F020E0809127
:103D2000E8008E778093E800CBCF2111CCCF0AC07A
:103D300080919302882361F0853061F08091E800E2
:103D400083FD0AC08091E80082FFF2CF80E00895F1
:103D500082E0089583E0089581E00895982F9730D8
:103D600068F59093E900981739F07091EC00209174
:103D7000ED005091F00003C0242F762F50E021FD7C
:103D800002C09F5FECCF3091EB003E7F3093EB00A1
:103D90003091ED003D7F3093ED003091EB003160CC
:103DA0003093EB007093EC002093ED005093F00003
:103DB0002091EE0027FDE5CF80E008958F7080937D
:103DC000E90081E008958091940287FF11C08091FD
:103DD000E80082FD05C0809193028111F8CF11C0E7
:103DE0008091E8008B770BC080919302882349F083
:103DF0008091E80080FFF8CF8091E8008E77809373
:103E0000E80008952091E4003091E50095E64091A6
:103E1000EC00842F817040FF23C08091E80080FD7A
:103E20001DC080919302882399F0853099F080918C
:103E3000EB0085FD11C04091E4005091E50024178E
:103E4000350729F3915011F09A01E1CF84E00895EC
:103E500082E0089583E0089581E0089580E0089568
:103E60004091E80042FFDDCF08950E94A31F0E9409
:103E7000AB1FE0EEF0E0808181608083E8EDF0E050
:103E800080818F77808319BCA7EDB0E08C918E7F05
:103E90008C9380818F7E80831092920208950F937D
:103EA0001F93CF93DF930E94A31F0E94AB1FC8ED07
:103EB000D0E088818F778883888180688883888133
:103EC0008F7D888319BC1092930210928F021092FA
:103ED00091021092900200EE10E0F80180818B7F39
:103EE000808388818160888342E060E080E00E9476
:103EF000AE1EE1EEF0E080818E7F8083E2EEF0E0A6
:103F0000808181608083808188608083F8018081E6
:103F10008E7F8083888180618883DF91CF911F911C
:103F20000F910895E8EDF0E080818F7E8083E7EDCA
:103F3000F0E080818160808384E082BF81E08093B3
:103F400092020C944F1FE8EDF0E080818E7F808319
:103F50001092E20008951092DA001092E1000895A4
:103F60001F920F920FB60F9211242F933F934F93EE
:103F70005F936F937F938F939F93AF93BF93EF93D1
:103F8000FF938091E10082FF0BC08091E20082FFED
:103F900007C08091E1008B7F8093E1000E94262280
:103FA0008091DA0080FF1FC08091D80080FF1BC085
:103FB0008091DA008E7F8093DA008091D90080FFB3
:103FC0000DC080E189BD82E189BD09B400FEFDCF4D
:103FD00081E0809393020E94121C05C019BC1092CC
:103FE00093020E94201C8091E10080FF19C0809103
:103FF000E20080FF15C08091E2008E7F8093E20096
:104000008091E20080618093E2008091D80080621C
:104010008093D80019BC85E0809393020E94241CF1
:104020008091E10084FF30C08091E20084FF2CC0C9
:1040300080E189BD82E189BD09B400FEFDCF809198
:10404000D8008F7D8093D8008091E1008F7E80938F
:10405000E1008091E2008F7E8093E2008091E20097
:1040600081608093E20080918F02882311F084E0C8
:1040700007C08091E30087FD02C081E001C083E0BA
:10408000809393020E94251C8091E10083FF29C048
:104090008091E20083FF25C08091E100877F8093BB
:1040A000E10082E08093930210928F028091E10000
:1040B0008E7F8093E1008091E2008E7F8093E2000A
:1040C0008091E20080618093E20042E060E080E065
:1040D0000E94AE1E8091F00088608093F0000E94E4
:1040E000231CFF91EF91BF91AF919F918F917F9191
:1040F0006F915F914F913F912F910F900FBE0F9055
:104100001F9018951F920F920FB60F9211242F93A4
:104110003F934F935F936F937F938F939F93AF934F
:10412000BF93CF93DF93EF93FF93C091E900CF70DC
:104130008091EC00D82FD17080FDD0E81092E9007A
:104140008091F000877F8093F00078940E94C620D1
:104150001092E9008091F00088608093F000CD2BF0
:10416000CF70C093E900FF91EF91DF91CF91BF91A4
:10417000AF919F918F917F916F915F914F913F91FF
:104180002F910F900FBE0F901F9018951F93CF93F4
:10419000DF93CDB7DEB7AA970FB6F894DEBF0FBE98
:1041A000CDBFE4E9F2E08091F100819322E0EC39A7
:1041B000F207C9F70E94301C8091E80083FF2EC1EE
:1041C0008091940290919502492F50E04A30510518
:1041D00008F024C1FA01EC58FF4F0C9454228038A7
:1041E00021F0823809F01AC108C0809190029091A4
:1041F0009102992389F082600FC0809198028F709C
:10420000873008F00BC18093E9008091EB0085FBBB
:10421000882780F91092E9009091E800977F9093A9
:10422000E8008093F1001092F100D1C0282F2D7F7B
:1042300009F0F4C0882319F0823061F0EFC080915A
:104240009602813009F0EAC0933009F080E0809353
:1042500091022EC08091960281112AC0809198020D
:104260008F702FEF280F263008F0D8C08093E90018
:104270002091EB0020FF1CC0933021F48091EB00D3
:10428000806214C09091EB0090619093EB0021E06C
:1042900030E0A90102C0440F551F8A95E2F7409310
:1042A000EA001092EA008091EB0088608093EB00B6
:1042B0001092E9008091E800877F8093E8000E94D7
:1042C000E31EACC08111AAC0109196021F778091A5
:1042D000E3008078812B8093E3008091E800877F62
:1042E0008093E8000E94E31E8091E80080FFFCCFED
:1042F0008091E30080688093E300111102C082E0A6
:1043000001C083E08093930289C08058823008F016
:1043100085C080919602909197028C3D53E095075D
:1043200079F583E08A838AE289834FB7F894DE01C6
:10433000139620E03EE051E2E32FF0E05093570067
:10434000E49120FF03C0E295EF703F5FEF708E2F86
:1043500090E0EA3010F0C79601C0C0968D939D930F
:104360002F5F243149F74FBF8091E800877F80930A
:10437000E8006AE270E0CE0101960E94EF1D16C0CF
:104380006091980270919902AE014F5F5F4F0E9459
:10439000331DBC01892B09F441C09091E800977F3F
:1043A0009093E80089819A810E944D1E8091E800D7
:1043B0008B778093E80032C0803881F58091E800E7
:1043C000877F8093E80080918F028093F100809135
:1043D000E8008E7772CF811121C080919602909172
:1043E000970299270297D4F48091E800877F809301
:1043F000E8008091960280938F020E94E31E8091D4
:104400008F02811106C08091E30087FD02C081E028
:1044100001C084E0809393020E94261C8091E800F2
:1044200083FF0AC08091E800877F8093E800809135
:10443000EB0080628093EB00AA960FB6F894DEBF83
:104440000FBECDBFDF91CF911F9108950895CF93F7
:10445000809193028823A1F0C091E900CF709091E0
:10446000EC00892F817090FD80E8C82B1092E90044
:104470008091E80083FD0E94C620CF70C093E900C0
:10448000CF9108950E94351F109293020895E8ED90
:10449000F0E08081806180838AE18A95F1F700C035
:1044A0008091D90081700895EE0FFF1F0590F4915F
:1044B000E02D0994FB01DC0104C08D91019080196D
:1044C00021F441505040C8F7881B990B0895FB0117
:1044D000DC0102C001900D9241505040D8F7089580
:1044E000F999FECF92BD81BDF89A992780B50895BC
:1044F000A8E1B0E042E050E00C94A422262FF99904
:10450000FECF92BD81BDF89A019700B4021639F032
:104510001FBA20BD0FB6F894FA9AF99A0FBE089503
:104520000396272F0E947F220E947E22252F0E9421
:104530007F22242F0C947F220196272F0E947F2216
:104540000C947E22DC01CB01FC01F999FECF06C060
:10455000F2BDE1BDF89A319600B40D924150504041
:08456000B8F70895F894FFCFAD
:10456800140201860200000001000000008602001B
:10457800000005010000008602040600000000009B
:1045880000AF1BE51B111CE11BDD1B01E200E9006C
:10459800EA00B500B600B700CD008301CC008A015F
:1045A80092019401210223022402250226022702F5
:1045B8002A02B300B4006F007000818283E200E930
:1045C80000EA00B500B600B700CD008301CC008A30
:1045D80001920194012102230224022502260227C6
:1045E800022A02B300B4006F007000818283F4F5E0
:1045F800F6F73133329497C6343500000000003A9C
:024608000200AE
:00000001FF
