:100000000C9409020C94FE090C9450020C945002BA
:100010000C9450020C9450020C9450020C94500218
:100020000C9450020C9450020C946F1C0C94411DC3
:100030000C9469170C9450020C9450020C945002CA
:100040000C9450020C9450020C9450020C945002E8
:100050000C9450020C94C2170C9450020C94500251
:100060000C9450020C9450020C9450020C945002C8
:100070000C9450020C9450020C9450020C945002B8
:100080000C9450020C9450020C9450020C945002A8
:100090000C9450020C9450020C9450020C94500298
:1000A0000C9450020C9450020C9450025D0D5D0DA6
:1000B0008F0D8F0DDC0D100F100F100FFA0D8F0E1E
:1000C000A00EA00E000F100F100F090FAC0FAC0FF9
:1000D000BE0FBE0FB50FBE0FBE0FBE0FAC0FAC0FE5
:1000E000BA0FBE0FBE0FBA0FAE1DD51DCD1ED51D4A
:1000F000CD1E211E441ECD1E9B1EAA1E35001E00B5
:100100001F002000210022002E00290014001A00E8
:1001100008001500170030002B000400160007002F
:1001200009000A003200E2001D001B000600190051
:1001300005000151E300E200E100E0000251E100AE
:100140002C002D0027002600250024002300890014
:100150002F00130012000C0018001C008700340050
:1001600033000F000E000D000B004C00E6003800BD
:1001700037003600100011002A00E700E600E50015
:10018000E4003500E5002800000000000000000049
:1001900000000000A800E0004200430044004500C9
:1001A000E200A900E1003E003F0040004100E10004
:1001B000AA00E2003A003B003C003D00E0000100E4
:1001C000E300E200E100E000E000E100E200000006
:1001D000000000000000000000008800E40045006E
:1001E000440043004200E6008A00E5004100400070
:1001F0003F003E00E5008B00E6003D003C003B0078
:100200003A00E4006500E700E600E500E400E400F1
:10021000E500E600490053002F0000000000000048
:1002200000004C0089005F0060006100550056002E
:100230002A0062005C005D005E0054005700280048
:10024000630059005A005B0087000000E300E200F1
:10025000E100E0000100E100E2004900530000007D
:10026000000000000000000000004C0028002C00EE
:100270002A000000490065004F0051005200500064
:1002800000004C00E6004D004E004B004A0000000C
:100290002A00E700E600E500E4003500E50028005C
:1002A00000000000000000000000000000004C0002
:1002B0000000000000000000E20000002A005000E2
:1002C000520051004F00E100000028004A004B009E
:1002D0004E004D00E0000000E300125010500000FE
:1002E000E000E100E200000053002F0000000000E9
:1002F0000000000000008900610060005F00550000
:100300005600000062005E005D005C005400570073
:10031000000063005B005A005900870000000000E5
:100320000000000000000000000000001203450073
:10033000720067006F0044006100730068000000F5
:100340000C034F006D006B006200640000000403AA
:10035000090409023B00020100A0FA09040000019F
:10036000030101000921110100012240000705815C
:100370000308000A0904010001030000000921111B
:100380000100012232000705820320000A12011039
:100390000100000008EDFE6060000101020001059F
:1003A000010980A101850319012AB700150126B7AB
:1003B00000950175108100C0050C0901A10185049B
:1003C00019012AA002150126A002950175108100CD
:1003D000C005010906A101050719E029E715002557
:1003E00001950875018102950175088101050719BC
:1003F0000029FF150026FF009506750881000508F5
:100400001901290595057501910295017503910161
:10041000C00011241FBECFEFDAE0DEBFCDBF04B6AF
:1004200003FE27C080916E0290916F02A09170022E
:10043000B09171028730904BA740B04BD1F410922D
:100440006E0210926F02109270021092710214BE2E
:1004500084B7877F84BF0FB6F894A8958091600019
:10046000886180936000109260000FBEE0E0F8E3C6
:10047000099511E0A0E0B1E0E6E9FEE302C00590D5
:100480000D92AA38B107D9F722E0AAE8B1E001C07D
:100490001D92AE36B207E1F70E94A7190C94491FCE
:1004A0000C9400000C942705089581E0089581E0E4
:1004B00008950C94570208950C945B021F93CF93F8
:1004C000DF9300D000D01F92CDB7DEB749835A83A7
:1004D0006B833091BA0189819A81311114C06623EE
:1004E00059F0222349F00E94E514182F682F8981C2
:1004F0009A810E948E1403C00E94B914182F69813A
:100500007A81812F04C00E94E51469817A810F905D
:100510000F900F900F900F90DF91CF911F910C943F
:100520000F03FC01262F40815181628173818481F8
:100530000C945E02CF93DF93EC0160E00E94910285
:10054000BE01DF91CF910C945C020E9419168111BB
:1005500002C00E94C0160C9452020C9425050E9401
:100560009A0F0E9454022FEF84E39CE021508040B8
:100570009040E1F700C000000C9429180F931F93DE
:10058000CF93DF93EC0161E00E9491028C01BE01E8
:100590000E945902882349F1BE01C8010E945307F5
:1005A000882319F1BE01C8010E94A5078823E9F03C
:1005B000BE01C8010E94D0088823B9F08A8188232F
:1005C00069F001158CE5180731F00F3D1C4531F439
:1005D0000E94C0160AC00E94AF0207C0CE01DF9180
:1005E000CF911F910F910C94550280E0DF91CF9134
:1005F0001F910F91089508950C94FB0281E00895D6
:100600000C94FE02CF93C82F0E94FC028C2F0E94F4
:100610000003CF91089580E090E00895089526E4C6
:10062000829FC0011124FC0127E0729FE00DF11DA3
:100630001124E60FF11DEE0FFF1FE450FF4F8591CF
:1006400094910895880F991FFC01E45DFC4F8591FA
:1006500094910895CF93DF930E940F030E943C046E
:10066000EC018115904508F043C0C11580E4D8071E
:1006700008F0CBC0C03ED10528F5C03CD10508F03C
:10068000B3C0C83AD10578F4C53AD10508F0A4C082
:10069000C130D10509F4ECC008F4E8C0C430D1057C
:1006A00008F0E6C0E3C0CF3BD10508F0DFC0C85A70
:1006B000D0E0CC0FDD1FCA5EDE4F0990D881C02D7F
:1006C000D464D6C0C11590E2D90750F4C11521E019
:1006D000D20708F0CDC0C83ED10508F4C9C0C6C0D5
:1006E000C11580E3D80708F086C0CE019F707FC097
:1006F000C11595E5D90708F043C0C11524E5D20717
:1007000008F09AC0C11582E5D80708F5C11591E532
:10071000D90708F07DC0CE0174E0969587957A954B
:10072000E1F783709C2F937021E030E002C0220F2C
:10073000331F9A95E2F73C68382BCF70C695C69563
:1007400080E2C89FE0011124C22BD32B91C09E01EF
:10075000237033278C2F86958695C115D34508F0D5
:100760005CC0C1E0D0E002C0CC0FDD1F2A95E2F7EB
:1007700020E2829FC0011124C82BD92BDC6878C0ED
:10078000C11529E5D207A0F4C11588E5D80708F0FE
:1007900058C0C11596E5D90708F068C08C2F0E9493
:1007A000D0048F71C82FD0E0DC2FCC27D06260C07E
:1007B000C1152AE5D20708F449C0CE01905681152B
:1007C000904208F053C08D2F8F710E94D004DD2716
:1007D000D0628F71D82B4CC0C55AD0E0CC5BDE4FB5
:1007E000C881D0E0D06444C0CE01805C91090E94F1
:1007F0002203EC013DC0CE019927D3FF03C0EC01D9
:10080000D86C36C0EC01D06C33C0DF70D06A30C019
:10081000DC2FCC27C16FD06A2BC0C1E0D0E002C072
:10082000CC0FDD1F2A95E2F720E2829FC001112440
:10083000C82BD92BDA681CC0DC2FCC27C46FD06A38
:1008400017C0DC2FCC27C06FD06A12C08C2F8F70DE
:100850000E94D00494E0D695C7959A95E1F7CF70A1
:10086000D0E0DC2FCC27D069C82B02C0C0E0D0E09C
:10087000CE01DF91CF9108958238910569F1B0F4EE
:100880008133910509F46DC048F48932910509F46A
:1008900063C08A32910509F469C0089585339105D2
:1008A00009F455C089339105B9F00895833E910547
:1008B00069F138F4803E9105B1F0823E910509F16D
:1008C0000895863E9105A9F1873E9105B9F1843ED0
:1008D000910509F064C023C020915F0220FD4FC044
:1008E00021FD4DC0089580915F0280FD44C080913C
:1008F000600280FF44C080915F0284FD42C083EEAD
:100900004DC080915F0282FF38C0F5CF80915F02B9
:1009100082FD33C08091600280FD31C0ECCF8091B8
:10092000600281FF32C080915F0284FD2AC087EEA1
:1009300035C080915F0283FF26C0F5CF80915F02B2
:1009400083FD21C08091600281FD1FC0ECCF8091AA
:100950005F0285FD1CC01DC080915F0285FD19C02E
:1009600016C080915F0286FD16C017C080915F029D
:1009700086FD13C010C089E311C082EE0FC080EE67
:100980000DC080E00BC086EE09C084EE07C089E28E
:1009900005C085E303C08AE201C081E390E00895C9
:1009A00090915F0292FF0DC0282F2871283019F412
:1009B000877F846006C0282F2471243011F48B7F38
:1009C000886093FF0DC0282F2871283119F4877E85
:1009D000846106C0282F2471243111F48B7E886134
:1009E0002091600220FF0DC0382F3871383019F483
:1009F000877F816006C0382F3171313011F48E7FCE
:100A0000886021FF0DC0282F2871283119F4877EB6
:100A1000816106C0282F2171213111F48E7E8861F9
:100A200094FD877E0895E82FF0E0E55BFD4F80811F
:100A30000895089580EA8A95F1F7089500C0089511
:100A40000C941A0508950C9422050C9423050C941B
:100A50002205F894E82FE295EF70F0E031A1282FFD
:100A60002F7081E090E001C0880F2A95EAF7982F57
:100A70009095932391A392A1892B82A378940895B2
:100A800008950F931F93CF93DF930E94CF06809119
:100A9000000180910001811102C095E001C090E049
:100AA0009093560285E0891B8093550284E90E9449
:100AB000290587E90E94290586EC0E94290584E31F
:100AC0000E94290585E30E942905C7E4D1E00EE4D0
:100AD00011E089910E9429050C171D07D1F7E1E467
:100AE000F2E0ABE4B2E011921D9282E0EB34F80741
:100AF000D1F785E00E9479060E94A502DF91CF918F
:100B00001F910F910C94D9060F931F93CF93DF93EE
:100B100000D000D01F92CDB7DEB70E94B006609122
:100B20005602882309F442C08E010F5F1F4F85E0F3
:100B3000F80111928A95E9F7862F90E0B801855B5C
:100B40009D4F0E940D09811116C080918C018F5F0D
:100B500080938C01863030F1E0915502F0E0E55B46
:100B6000FD4FD801CE01069611921D92A817B90724
:100B7000D9F711E018C010928C01A0915502B0E095
:100B8000A55BBD4FF8019E012A5F3F4F10E08191A8
:100B90009C91981711F08C9311E01196E217F307CE
:100BA000B1F701C010E00E94AD020DC070E0655BBE
:100BB0007D4F8091550290E0855B9D4F0E943709E3
:100BC0000E94400510E0812F0F900F900F900F9022
:100BD0000F90DF91CF911F910F9108958F929F9267
:100BE000AF92BF92CF92DF92EF92FF920F931F933B
:100BF000CF93DF938EE4A82E81E0B82EC1E4D2E03B
:100C000093E5E92E91E0F92E912C01E010E06501C9
:100C1000F5018081F894E82FE295EF70F0E021A1D2
:100C20008F70A80102C0440F551F8A95E2F7CA01D0
:100C3000922F982B91A392A18095892382A37894D7
:100C40000E941E05E7E4F1E020E030E0812C4191B4
:100C5000A42FA295AF70B0E090968C9190E04F7069
:100C600002C0959587954A95E2F780FD07C0802FD1
:100C7000022E01C0880F0A94EAF701C080E0882A9A
:100C80002F5F3F4F2730310511F75FEFA51AB50AE7
:100C9000F60180810E9429050E942005888188161E
:100CA00019F0888281E001C080E0982A2196EA1438
:100CB000FB0409F0ACCF6091560270E0655B7D4F9C
:100CC000292D45E081E492E00E947A060E94840585
:100CD000992011F081E090E0DF91CF911F910F9169
:100CE000FF90EF90DF90CF90BF90AF909F908F904C
:100CF00008950895FF920F931F93CF93DF938C0174
:100D0000F62ED72FC42F222349F081E080938F0144
:100D10000E949B1790938E0180938D0180918F018B
:100D20008823C1F080918D0190918E010E94B317AC
:100D3000069780F0EF2DFD2FD8014C2F50E0CD010C
:100D4000801B910B841795071CF48D918193F7CF2D
:100D500010928F01DF91CF911F910F91FF90089515
:100D600080919001811112C08091D80080618093A0
:100D7000D8008AE18A95F1F700C08091D90080FD02
:100D800002C082E001C081E08093900181E09091F7
:100D90009001913009F080E008950C94B0060E9413
:100DA000CD06809300010E94B00681110C940109C8
:100DB00008950E94B006811102C00C94070908959D
:100DC0000F931F93CF93DF93C42FD22FFC01828107
:100DD0008823C9F0409393010E949B17909392013E
:100DE0008093910180E28C0F883008F057C0C77063
:100DF00081E001C0880FCA95EAF7DF91CF911F917A
:100E00000F910C941C0D80919301481330C0809178
:100E10009101909192010E94B3178837910538F59E
:100E200010E21D0FCD17B9F080E28C0F883040F42E
:100E3000C77081E001C0880FCA95EAF70E94230DB0
:100E4000183028F581E09D2F977001C0880F9A9582
:100E5000EAF70E941C0D802F0E94130D1830F0F449
:100E6000D77081E001C0880FDA95EAF70AC080E206
:100E70008C0F883098F4C77081E001C0880FCA9544
:100E8000EAF7DF91CF911F910F910C94230D802FE2
:100E9000DF91CF911F910F910C94130DDF91CF91A2
:100EA0001F910F9108950F939C01CB01243F4CE5B6
:100EB000340731F188F4293DFCE53F07D9F02A3D9C
:100EC0004CE5340779F1283D3C45A9F506E221EED1
:100ED00041EE68ED7CE52BC0263FFCE53F07E1F0E5
:100EE000A8F0273F3C4539F507E225EE46EE67EFCF
:100EF0007CE51DC007E225EE45EE69ED7CE517C0F7
:100F000006E221EE40EE64EF7CE511C007E225EE3B
:100F100044EE65EF7CE50BC006E221EE42EE66EFA3
:100F20007CE505C008E221E045EE6AED7CE50E9423
:100F3000E00680E008C0FC018281882319F010924D
:100F4000930101C081E00F910895CF93DF93EC01ED
:100F5000FB018281882309F41FC1C230FCE5DF0751
:100F600008F41BC1C6319CE5D90738F09E012B5F00
:100F70003C452930310508F010C10E942C16909391
:100F8000600280935F02C031ECE5DE0709F4C3C064
:100F900008F041C0C8308CE5D80709F49AC0F0F4D5
:100FA000C430ECE5DE0709F487C068F4C2308CE594
:100FB000D80709F477C0C330DC4509F0E3C080915D
:100FC0005F02826076C0C630ECE5DE0709F46EC0D1
:100FD00008F07BC080915F0288606BC0CC308CE5EC
:100FE000D80709F485C068F4CA30ECE5DE0709F4D7
:100FF00074C008F079C00E949A0F80915F028068E7
:1010000058C0CE308CE5D80709F476C008F07FC010
:1010100080915F028BC0CC3FECE5DE0709F44FC046
:1010200018F5C3318CE5D80709F47DC078F4C131D7
:10103000ECE5DE0709F473C0C231DC4509F0A2C05B
:101040000E949A0F80915F028F7733C0C5318CE583
:10105000D80709F472C008F486C0CB3FDC4509F01C
:1010600091C0809160023EC0C115FDE5DF0709F423
:101070005FC058F4CE3F9CE5D90709F444C008F49A
:101080003FC08091600282602DC0C230FDE5DF0765
:1010900009F475C008F45DC0C330DD4509F072C0C5
:1010A00080E06EC080915F02816003C080915F022A
:1010B000806180935F0266C080915F0211C0809161
:1010C00060028260809360025DC080915F028062F6
:1010D000F0CF80915F028064ECCF80915F028860E6
:1010E0008460E7CF8160EECF80915F028E7FE1CF99
:1010F00080915F028D7FDDCF80915F02877FD9CFA6
:101100008091600218C0809160028D7FDBCF80915A
:101110005F028F7ECECF80915F028F7DCACF80919C
:101120005F028F7BC6CF80915F02877F8B7FC1CFAD
:10113000809160028D7F8E7FC5CF80915F0282FBA0
:10114000222720F991E0922790FB82F990FB83F906
:10115000B0CF80916002982F909591708E7F892BEF
:1011600090FB81F9AFCF0E949A0F80915F0287FBBD
:10117000222720F991E0922790FB87F99ACF81E00E
:101180000E94C21680915F02909160020E943D16FB
:101190000E949A0F80E001C081E0DF91CF91089515
:1011A000CF93DF9386319C4541F5EB010E94661594
:1011B000982F8A812091090130910A01882379F0C2
:1011C0009A7A81E009F480E080939401911102C041
:1011D00069E201C065E3C9010E9409170AC0809154
:1011E0009401811102C069E201C065E3C9010E9456
:1011F0000B170E94B41580E001C081E0DF91CF9110
:10120000089561E070E081E091E00C94B00961E044
:1012100070E081E091E00C94B709CF93DF93D62F73
:10122000C72F0E944F0A892BF1F4ED2FFC2F80E08D
:1012300090E0DC01A656BE4F2C912193019685309B
:101240009105B9F70E940E18DC01CB010296A11D91
:10125000B11D8093960190939701A0939801B0934C
:10126000990181E001C080E0DF91CF910895CF9393
:10127000DF93D62FC72F60919601709197018091CF
:101280009801909199010E94F117ED2FFC2F80E0B9
:1012900090E02191DC01A656BE4F2C93019685303B
:1012A0009105B9F7DF91CF9108958EE1489B02C077
:1012B0008150E1F7489BFECF0895589880E28A95C7
:1012C000F1F7589A0895FC012AE02A95F1F728E0F1
:1012D00090E080E031E040E14A95F1F7880F489BCB
:1012E00002C08160932700C0000040E14A95F1F7F9
:1012F000215089F720E12A95F1F729B100C00000BB
:1013000030E13A95F1F7217092272081920F908376
:101310000895EF92FF920F931F93CF93DF931F9245
:10132000CDB7DEB719828C017C01E60EF11C0E15DB
:101330001F0551F00E945509CE0101960E946309D4
:10134000F80181938F01F3CF81E09981911180E0C1
:101350000F90DF91CF911F910F91FF90EF90089523
:101360009093A00180939F01509A589A089590936A
:10137000A00180939F015098589AE89AE9E6F0E01E
:1013800080818C7F80830895615091E001C0990F26
:101390006A95EAF720E031E0992361F0492F48236C
:1013A00019F0589A232701C0589840E24A95F1F75E
:1013B0009695F2CF222311F0589A01C0589880E2F6
:1013C0008A95F1F758980895FF920F931F93CF9342
:1013D000DF93EC018C01060F111DC017D10741F0FE
:1013E000F9900E945D0968E08F2D0E94C409F5CF35
:1013F000DF91CF911F910F91FF9008951F920F924F
:101400000FB60F9211242F933F934F935F936F93D7
:101410007F938F939F93AF93BF93CF93DF93EF937C
:10142000FF935898509AC0919F01D091A0016D816F
:10143000662321F08E819F810E94E4090E945D094C
:1014400080E18A95F1F758985098589A80E18A95EA
:10145000F1F76A81662351F08B819C810E94890992
:10146000E881F981811104C082E003C0E881F9813B
:1014700088E080830E945509FF91EF91DF91CF9121
:10148000BF91AF919F918F917F916F915F914F919C
:101490003F912F910F900FBE0F901F901895CF93F3
:1014A000DF93C0919F01D091A001F894509A589871
:1014B00085E08A95F1F700005098589A80E28A9565
:1014C000F1F7489B0AC0509A589AE881F98181E067
:1014D0008083789481E090E02CC06D81662381F058
:1014E0008E819F810E94890981110AC0509A589A61
:1014F000E881F98182E08083789482E090E019C0ED
:101500000E94550980E28A95F1F75898509A80E137
:101510008A95F1F76A81662321F08B819C810E9474
:10152000E4090E945D09E881F9811082789480E0E5
:1015300090E0DF91CF9108959093A6018093A5014B
:101540000895E091A501F091A601309721F0019056
:10155000F081E02D099480E00895E091A501F091DB
:10156000A601309721F00280F381E02D09940895BF
:101570002091A3013091A4012817390771F09093AD
:10158000A4018093A301E091A501F091A6013097F9
:1015900021F00680F781E02D099408952091A101A2
:1015A0003091A2012817390771F09093A20180931E
:1015B000A101E091A501F091A601309721F00084EE
:1015C000F185E02D099408950E94A7176093B60154
:1015D0007093B7018093B8019093B9016093B20101
:1015E0007093B3018093B4019093B501089585B7CA
:1015F000806885BF85B7806885BF08950C94B00664
:1016000008950C94000B0C94000B0C94030B0C9499
:10161000000B0C94070B0C94000B0E94F70A87E157
:1016200096E10E943A180E940B0B0C94090B0E9441
:1016300092170E94E8170E9441050E943F180C94DF
:10164000050B9F92AF92BF92CF92DF92EF92FF92E3
:101650000F931F93CF93DF93CDB7DEB72A970FB6C3
:10166000F894DEBF0FBECDBF0E94010B0E94000B9D
:101670000E94EE0581110E94E40A88EAA82E81E00A
:10168000B82E00E010E0902E802F0E941305D82E77
:10169000F501C1905F01C826B1F40F5F1F4F0A30FA
:1016A000110589F78FEF89838A831B820E949B171C
:1016B0008160782F9D838C8349815A816B818D81D4
:1016C0000E94C10B2FC08091350281FD0E94190537
:1016D000E12CFF24F3948C2D8F21F1F00E94FE0A5F
:1016E000882399F0EE829F82DF2081E009F480E078
:1016F00088870E949B178160782F9A8789874E81FF
:101700005F8168858A850E94C10BF801E855FE4F0C
:101710008081F826F08206C0E394FF0CF7E0EF1218
:10172000DACFBBCF0E94A10A9091A7018917B9F027
:101730000E94A10A8093A7012A960FB6F894DEBFF3
:101740000FBECDBFDF91CF911F910F91FF90EF9012
:10175000DF90CF90BF90AF909F900C9402032A9699
:101760000FB6F894DEBF0FBECDBFDF91CF911F91B2
:101770000F91FF90EF90DF90CF90BF90AF909F9030
:101780000895DF92EF92FF920F931F93CF93DF9311
:10179000CDB7DEB72B970FB6F894DEBF0FBECDBF27
:1017A000F42E052F162FE72ED82E61110E948615D4
:1017B000FE01319686E0DF011D928A95E9F77E2DC4
:1017C0004F2D502F612F8D2D9E810E9453122B96ED
:1017D0000FB6F894DEBF0FBECDBFDF91CF911F9142
:1017E0000F91FF90EF90DF900895FC01808191812F
:1017F0000E9427150895CF93882309F49CC0C82F11
:101800008238C1F40E94A10A81FD95C069E38091EC
:10181000090190910A010E9409170E94B4152FEF47
:1018200081EE94E0215080409040E1F700C000003C
:1018300069E319C0833801F50E94A10A80FD7BC0CD
:1018400063E58091090190910A010E9409170E94A5
:10185000B4152FEF81EE94E0215080409040E1F7E5
:1018600000C0000063E58091090190910A010E9487
:101870000B17CF910C94B4158438C1F40E94A10ABF
:1018800082FD59C067E48091090190910A010E948C
:1018900009170E94B4152FEF81EE94E0215080408B
:1018A0009040E1F700C0000067E4DDCF8CEF8C0FC3
:1018B000813AD0F46C2F8091090190910A010E9425
:1018C000D316882349F06C2F8091090190910A0169
:1018D0000E940B170E94B4156C2F80910901909102
:1018E0000A010E940917C5CF80E28C0F883048F4A6
:1018F000C77081E001C0880FCA95EAF70E94691598
:10190000B8CFEBE5EC0FE33040F4F0E0EA57FE4FE0
:10191000808190E0CF910C94B80AC85AC73158F42E
:10192000EC2FF0E0EE0FFF1FE85AFE4F808191810F
:10193000CF910C94CE0ACF910895882309F45BC00F
:10194000682F823879F40E94A10A81FF54C069E3AC
:101950008091090190910A010E9409170E94B41513
:1019600069E310C08338B1F40E94A10A80FF43C02C
:1019700063E58091090190910A010E9409170E9474
:10198000B41563E58091090190910A010E940B173B
:101990000C94B415843879F40E94A10A82FF2BC0FC
:1019A00067E48091090190910A010E9409170E9441
:1019B000B41567E4E7CF8CEF860F813A18F380E225
:1019C000860F883048F4677081E001C0880F6A95FF
:1019D000EAF70E946F15DCCF8BE5860F833020F489
:1019E00080E090E00C94B80A685A673120F480E0F7
:1019F00090E00C94CE0A08951F93CF93DF93182F95
:101A0000EB010E94FB0B209741F08FE99FE00197CB
:101A1000F1F700C000002197F6CF812FDF91CF9121
:101A20001F910C949D0C893319F060E070E002C0A6
:101A300060E570E00C94FC0C882321F00E9469158D
:101A40000C94B4150895882321F00E946F150C940E
:101A5000B4150895CF92DF92EF92FF920F931F93E8
:101A6000CF93DF937C01062FC72FFC01D281158114
:101A700012951F700E945F15882399F0DD2389F06D
:101A80008C2F807F803421F080E2800F883048F0F6
:101A900082E00E94FE150E945F1591E0D82ED926A3
:101AA00001C0D12CCC2EC2948FE0C8228C2D90E0A6
:101AB000FC01EA5AFF4F0C94011F8C2F807FCF70DE
:101AC000882311F0C295C07FDD2399F0CC2309F45F
:101AD00082C180E2800F883010F0011104C08C2F89
:101AE0000E94691503C08C2F0E9479150E94B415BD
:101AF00072C1802F0E949D0CCC2309F491C180E219
:101B0000800F883010F0011104C08C2F0E946F15D7
:101B100003C08C2F0E947F150E94B41581C18C2FA9
:101B2000807FCF70803211F0C295C07F002319F002
:101B30000130C9F022C0DD2371F0112341F01130D2
:101B400031F40E9499158C2B0E94A11569C10E9445
:101B500099158C2B1DC0112319F0113009F460C1A7
:101B60000E94AA1525C0DD2321F0163008F058C1C7
:101B70000EC0153008F054C11BC0DD2361F01123E5
:101B800031F0F701858180FF26C18F7085838C2F0E
:101B90000E941C0D45C1112359F0093309F02CC1D5
:101BA000FFEF27EE83E0F15020408040E1F722C1B3
:101BB0008C2F0E94230D34C18C2F869586958370BF
:101BC00019F0813061F02CC1DD2321F0802F9C2F92
:101BD000937002C080E090E00E94B80A29C1DD2322
:101BE00021F0802F9C2F937002C080E090E00E9433
:101BF000CE0A1EC18C2F837009F045C0D11114C1CB
:101C0000402F429546954770440F440F602F6F70E8
:101C1000862F90E0A0E0B0E0042E04C0880F991F4A
:101C2000AA1FBB1F0A94D2F704FF10C00FE010E0F8
:101C300020E030E004C0000F111F221F331F4A951F
:101C4000D2F7009510952095309503C000E010E084
:101C50009801C695C695C370BC01CD01602B712B50
:101C6000822B932BC23049F058F4C13019F00E94F6
:101C7000A413DAC00E949213D7C00E94B613D4C036
:101C80000E949013D1C0DD2319F08C2F817001C008
:101C90008695882309F4C8C0402F42954695477021
:101CA000440F440F602F6F70862F90E0A0E0B0E0EB
:101CB000042E04C0880F991FAA1FBB1F0A94D2F7D5
:101CC00004FF10C00FE010E020E030E004C0000F7F
:101CD000111F221F331F4A95D2F7009510952095AA
:101CE000309503C000E010E09801C695C695C3701A
:101CF000BC01CD01602B712B822B932BC23049F09C
:101D000058F4C13019F00E9469148EC00E94571413
:101D10008BC00E947B1488C00E94CA1385C0CF70FC
:101D2000DD2339F08C2F0E94F013802F0E941C0DB0
:101D30007BC0802F0E94230D8C2F0E94111474C031
:101D4000023F01F128F4003F41F0013FA1F03FC004
:101D5000033FF9F0043F39F13AC0DD2341F015307B
:101D600008F05EC08C2F8F710E94361459C0163057
:101D700008F056C0F7CFDD2339F08C2F8F710E9409
:101D8000F0134EC0DD23C9F38C2F8F710E94111404
:101D900047C0DD2329F08C2F8F710E94DB1340C0D8
:101DA0000E94D6133DC0DD2349F0CF718C2F0E94D5
:101DB000F01363E08C2F0E94E91532C081E00E948D
:101DC000FE15123068F182E00E94FE1529C0DD2365
:101DD00031F0112391F2802F0E94FB0B21C01123BF
:101DE00099F2093349F49FEFE7EEF3E09150E040B8
:101DF000F040E1F700C00000802F0E949D0C10C051
:101E00004C2F4F70602FC7010E940B030E940113DB
:101E10000FC04C2F4F70602FC7010E940E0308C0E7
:101E200088EF8C0D843020F40E94A10A0E940203E6
:101E3000DD20C9F00E945B1580FD15C0F7011282FC
:101E40000E9455150E94F013C7010E94540F0E9472
:101E50005515DF91CF911F910F91FF90EF90DF907B
:101E6000CF900C941114DF91CF911F910F91FF909F
:101E7000EF90DF90CF9008950F931F93CF93DF9350
:101E8000EC01688179818A810E9432158C010E945F
:101E90008D140E947E13B801CE010E942A0DDF919D
:101EA000CF911F910F910895CF93DF93EC0198810B
:101EB00089812B813C81232B31F08F3F31F481E0EC
:101EC0009F3F19F403C081E001C080E080FD19C08C
:101ED000CE010E94BE0281110CC00E945F158823B2
:101EE00081F08A81882369F082E0DF91CF910C94A0
:101EF000FE15CE010E943C0FCE01DF91CF910C94D4
:101F00009A02DF91CF91089580E090E00E94B80A94
:101F100080E090E00E94CE0A0E9486150E949615ED
:101F20000C94B4158091090190910A010E940D173B
:101F30000C94840F0E9476150C94920FE92FE29571
:101F4000EF704E2F50E0FA013297EE30F105B0F409
:101F5000EA59FF4F0C94011F803F91F018F4883E1E
:101F600068F40EC0843F51F40BC0883E48F0813FB6
:101F700029F406C093FB882780F9089580E008952E
:101F800081E008950E9427150E949E0F0895CF9327
:101F9000DF9300D000D01F92CDB7DEB70F900F9027
:101FA0000F900F900F90DF91CF910895CF93DF9313
:101FB00000D000D000D0CDB7DEB726960FB6F8948B
:101FC000DEBF0FBECDBFDF91CF9108951F93CF939A
:101FD000DF93C091BB0116E08091BC01C81799F056
:101FE000D0E01C9FF0011D9FF00D1124E354FE4F23
:101FF0004081518162817381848195810E94D60FD5
:102000002196C770E9CFDF91CF911F91089540913C
:10201000ED015091EE016091EF017091F00180911E
:10202000F1019091F2010C94D60F0F931F93CF936F
:10203000DF938091F20182958F7009F05DC08091ED
:10204000EF01882309F458C08091BB011091BC01B5
:102050006091ED017091EE01C091F001D091F1011C
:1020600091E06F3F09F090E0292F06E0811709F415
:1020700043C0209721F07F3F21F030E003C031E0E2
:1020800001C0322F90E030FD34C0089FF001099F5D
:10209000F00D1124DF01A354BE4F11963C9111970E
:1020A000371327C03C91361324C012963C911297E7
:1020B00031111FC013964D915C9114974C1B5D0B11
:1020C00048375105B0F48091F2018F7080618093A0
:1020D000F201EE53FE4F80818F70806180838DEE20
:1020E00091E00E94540FDF91CF911F910F910C94BA
:1020F000E60F01968770BACFDF91CF911F910F91B4
:1021000008959F92AF92BF92CF92DF92EF92FF928B
:102110000F931F93CF93DF93CDB7DEB761970FB6C1
:10212000F894DEBF0FBECDBF8C0185E0F801DE0163
:102130001D9601900D928A95E1F7F8014081518139
:10214000E2809091ED016091EE012091F0013091DB
:10215000F1012115310531F06F3F31F481E09F3FEE
:1021600019F403C081E001C080E0F82FF1709F2EC8
:1021700080FD46C1F801A380B4808DEEC82E81E0B9
:10218000D82EF090EF01F501E21BF30BFF2009F4CC
:10219000DFC08091F201E837F10508F09BC0282FDD
:1021A000207F09F052C0561313C0491311C0FE2CF2
:1021B000E1100EC08F7080618093F2010E940710C1
:1021C000C6010E94540F8091F201F801858358C125
:1021D000AB2831F05F3F31F481E04F3F19F403C089
:1021E00081E001C080E080FD03C081E08E2502C057
:1021F00080E090E0F82FF170FF2E80FF1CC08091EE
:10220000BB012091BC0136E0821709F417C190E0B0
:10221000389FF001399FF00D1124E354FE4F618186
:10222000561306C06081461303C06281E61203C0E4
:1022300001968770E9CFFE2CEE2009F421C1809130
:10224000F20181608093F2015AC0561306C049130F
:1022500004C0E11002C0F8019FC04D875E878D85E4
:102260009E850E94C20F882379F1EE2069F12091AA
:10227000F201822F82958F7090E0029774F0809126
:10228000ED019091EE0198878F831986BB86AA860F
:102290002C87CE0107960E94540F86E0F801ADEE20
:1022A000B1E001900D928A95E1F70E9415100E940D
:1022B00007100DC0561729F14D875E878D859E85C5
:1022C0000E94C20F81112CC0C8010E94540FFF242C
:1022D000F394D6C0282F207F69F77A2DB98AA88A6F
:1022E0006E2D89890E94C70F8DEE91E00E94540FD8
:1022F00086E0F60111928A95E9F70E940710F12C09
:10230000BFC04913D9CFE110D7CFF8018583C801E9
:102310000E94540F86E0F60111928A95E9F7B0C049
:10232000EE2091F22091F201822F82958F7090E041
:1023300002970CF4B2CF8091ED019091EE019A8357
:1023400089831B82BD82AC822E83CE010196A3CFEE
:10235000E837F10508F047C0FE2CEE2009F4B4CFB1
:10236000561330C049132EC02091F20120FD21C028
:10237000822F82958F70482F50E041155105C9F08A
:10238000F80125834F30510541F08F5F982F9295CA
:10239000907F822F8F70892B8583C8010E94540FF4
:1023A00086E0F801ADEEB1E001900D928A95E1F77B
:1023B00042C086E0F801ADEEB1E001900D928A9541
:1023C000E1F75EC04D875E878D859E850E94C20FB6
:1023D000811163CF8091F20181608093F201C80185
:1023E0000E94540F4DC07A2DB98AA88A6E2D898912
:1023F0000E94C70F86E0F60111928A95E9F71BC08B
:10240000EE2009F461CF4D875E878D859E850E9401
:10241000C20FF82E882309F457CF86E0F801ADEEFD
:10242000B1E001900D928A95E1F78DEE91E00E9466
:10243000F50B0E9415100E94071022C04D875E8781
:102440008D859E850E942715292F22952F70223079
:1024500028F49F7039F0811105C00BC0243028F496
:102460009F7049F4805E883020F0C8010E94540FAC
:102470009F2CF92C05C0F8019581907F99F7F9CF31
:102480008F2D61960FB6F894DEBF0FBECDBFDF91E2
:10249000CF911F910F91FF90EF90DF90CF90BF9061
:1024A000AF909F9008951F93CF93DF93CDB7DEB782
:1024B0002C970FB6F894DEBF0FBECDBF4F83588761
:1024C00069877A878B879C87CE0107960E94811047
:1024D0008823D1F09F8188852A853B85232B31F085
:1024E0008F3F31F481E09F3F19F403C081E001C0C8
:1024F00080E080FD47C04F81588569857A858B854E
:102500009C850E94D60F3EC086E0FE013796DE0114
:10251000119601900D928A95E1F7FF81E8856A8511
:102520007B856115710531F0EF3F31F481E0FF3FAC
:1025300019F403C081E001C080E080FD23C0209138
:10254000BC0130E0C9010196877099274091BB0119
:1025500050E084179507F1F1F983EA837D836C835A
:1025600096E0929FD001939FB00D1124A354BE4FCB
:10257000FE01319601900D929A95E1F78093BC018E
:102580000E94E60F16E08091BB019091BC01891773
:1025900071F1189FC001112483549E4F0E94811035
:1025A000882329F1E091BB011E9FF0011124E3541F
:1025B000FE4F4081518162817381848195810E94A7
:1025C000D60F8091BB0190E0019687709927809388
:1025D000BB01D9CF0E949A0F1092BC011092BB018F
:1025E000EDEEF1E086E0DF011D928A95E9F72C9689
:1025F0000FB6F894DEBF0FBECDBFDF91CF911F9114
:102600000895EF92FF920F931F93CF93DF938C0166
:10261000892B09F46CC0F12CEE24E394E801219697
:10262000F8018491843740F4843008F051C081303F
:1026300081F0823019F15BC0853709F444C0A8F1FC
:102640009CE7980F903708F052C08F770E949D0C3E
:1026500041C00E5F1F4FFE01849190E2980F9830A9
:1026600050F48770FE2D01C0FF0F8A95EAF78F2F77
:102670000E94891514C00E94FB0B2DC00E5F1F4FD6
:10268000FE01849190E2980F983060F48770FE2DDF
:1026900001C0FF0F8A95EAF78F2F0E948F150E94C5
:1026A000B41519C00E949D0C16C00E5F1F4FFE018D
:1026B000C491CC2381F08FE99FE00197F1F700C02E
:1026C0000000C150F6CF0E5F1F4FFE01F49003C013
:1026D0000E94FB0B8E018F2D882309F49FCFEFE919
:1026E000FFE03197F1F700C000008150F5CFDF9196
:1026F000CF911F910F91FF90EF9008950895089545
:102700000C947F130C9480130E9482136093240214
:102710007093250280932602909327020C94840FD5
:102720000C9484130F931F9300912402109125029F
:102730002091260230912702602B712B822B932B44
:102740001F910F910C9484130F931F9300912402F7
:1027500010912502209126023091270260237123D7
:10276000822393231F910F910C9484130F931F9333
:102770000091240210912502209126023091270217
:1027800060277127822793271F910F910C94841340
:102790000C947F130E94C81360932002709321024F
:1027A00080932202909323020C94840F60E070E0E7
:1027B000CB010C94CA130F931F9341E050E060E0EB
:1027C00070E08A019B0104C0000F111F221F331FFC
:1027D0008A95D2F7C901B8011F910F910C94CA13C1
:1027E0000F931F9341E050E060E070E004C0440F9D
:1027F000551F661F771F8A95D2F78091200290910E
:102800002102A0912202B09123028A019B01082B90
:10281000192B2A2B3B2BC901B8011F910F910C9446
:10282000CA130F931F9341E050E060E070E004C0D2
:10283000440F551F661F771F8A95D2F74095509514
:10284000609570958091200290912102A0912202C2
:10285000B09123028A019B01082319232A233B23D9
:10286000C901B8011F910F910C94CA130F931F93C4
:1028700041E050E060E070E004C0440F551F661F67
:10288000771F8A95D2F78091200290912102A09122
:102890002202B09123028A019B01082719272A27C7
:1028A0003B27C901B8011F910F910C94CA130F93D4
:1028B0001F93009120021091210220912202309159
:1028C0002302602B712B822B932B1F910F910C9461
:1028D000CA130F931F93009120021091210220919F
:1028E00022023091230260237123822393231F91BC
:1028F0000F910C94CA130F931F9300912002109113
:102900002102209122023091230260277127822721
:1029100093271F910F910C94CA13089527E0929F5B
:10292000800D1124E82FE695E695E695877051E035
:1029300001C0550F8A95EAF785E0E89FF001112460
:10294000ED50FE4F20E030E070E04081CB01022EE0
:1029500002C0969587950A94E2F781708195842745
:102960008523842781932F5F3F4F2530310569F7F9
:10297000089527E0929F800D1124682F6695669533
:102980006695982F977085E0689FB001112440E00C
:1029900050E080E0FB01E40FF51FED50FE4F208179
:1029A00030E0092E02C0369527950A94E2F721708F
:1029B0003327042E01C0220F0A94EAF7822B4F5FBF
:1029C0005F4F4530510531F70895BF92CF92DF92A6
:1029D000EF92FF920F931F93CF93DF938C01C090E0
:1029E0002002D0902102E0902202F09023028091F8
:1029F000240290912502A0912602B0912702C82AB4
:102A0000D92AEA2AFB2ACFE1D0E0D701C6010C2E51
:102A100004C0B695A795979587950A94D2F780FD3F
:102A200004C0219790F7B12C07C0BC2EB8018C2FA1
:102A30000E942A030197A9F38B2DDF91CF911F915B
:102A40000F91FF90EF90DF90CF90BF900895CF93BC
:102A5000DF93EC010E94E514BE010E942A03DF917E
:102A6000CF9108951F93CF93DF93EB019091BA011B
:102A7000992321F0CB010E94271513C0882349F028
:102A8000CB010E94E514182F682FCE010E948E14EE
:102A900004C0CB010E94B914182FBE01812F0E94DF
:102AA0002A03DF91CF911F91089580912802859587
:102AB0008595859508958091280287700895909155
:102AC0002802977081E009F480E008958091340233
:102AD000089590913402892B809334020895809553
:102AE0009091340289238093340208951092340225
:102AF000089590913302892B809333020895809535
:102B00009091330289238093330208951092330207
:102B1000089590913202892B809332020895809516
:102B200090913202892380933202089510923202EA
:102B3000089580912902089508950C949C150C9491
:102B40009D1590912902981721F0809329020C94E9
:102B50009F15089580912902882329F01092290257
:102B600080E00C949F150895E0910901F0910A010D
:102B7000809134028083E0910901F0910A019081F3
:102B800080913302892B8083E0910901F0910A0141
:102B9000908180913202892B808380912902882341
:102BA00081F0E0910901F0910A019081892B8083E5
:102BB0008091090190910A010E94C71681110E941B
:102BC000AA158091090190910A010C94AD0A0C9408
:102BD0009C1598E0899F90011124262B20932802B0
:102BE0000E94F013809128028595859585950C9417
:102BF000E7151092280280E00C94E7152091280236
:102C00008095822380932802982F977079F430E082
:102C1000482F082E000C550B2417350739F08595E1
:102C2000859585950E9411140C94F915089580E0FE
:102C3000089580E090E00E940F1F21E08B3E9E4FA0
:102C400009F020E0822F089582E090E00C94071FA5
:102C500083E090E00C94071FCF9384E090E00E9403
:102C6000071FC82F81E290E00E94071F2C2F30E041
:102C7000A901582BCA01CF910895CF93C92F682F6E
:102C800084E090E00E94151F6C2F81E290E0CF91CC
:102C90000C94151FAB01BC018FE090E00C94271F32
:102CA000AB01BC0183E190E00C94271F60E070E071
:102CB000CB010C94501660E070E0CB010E944A16E4
:102CC0000C9456166BEE7EEF80E090E00E94331F6E
:102CD00060E082E090E00E94151F60E083E090E0F9
:102CE0000E94151F109224021092250210922602B3
:102CF0001092270260E084E090E00E94151F60E0DF
:102D000081E290E00E94151F60E085E090E00E9463
:102D1000151F60E086E090E00E94151F6FEF87E0CE
:102D200090E00E94151F40E050E0BA0188E090E07A
:102D30000E94271F60E08DE090E00E94151F40E098
:102D400050E0BA0188E190E00E94271F60E087E12F
:102D500090E00E94151F40E050E0BA018CE190E045
:102D60000E94271F60E080E290E00E94151F40E073
:102D700050E0BA0188E190E00E94271F0C945B1696
:102D80000C946216682F8EE090E00C94151FFC01E5
:102D9000329697E080E0915029F021912223D9F3D7
:102DA0008F5FF9CF0895662349F0FC0132960896AB
:102DB0002191621729F0E817F907D1F780E008950B
:102DC00081E008959C01FC0132969FEF80E04191E3
:102DD000461789F09F3F19F4411101C0982F8F5F6A
:102DE0008630A9F79F3F39F0F901E90FF11D97FDF2
:102DF000FA956283089508959C012A5F3F4FFC0174
:102E00004281461301C01282019682179307B9F7D7
:102E100008950C94E2160C94FC16029626E0FC0130
:102E200011922A95E9F7089508950C9414170C94BB
:102E30001417CF930E9417170E94EE050E941517D2
:102E4000C0E08C2F0E941305811104C0CF5FCA30EF
:102E5000C1F701C081E0CF9108950C9414170C9430
:102E60002D1780916502843049F10E942F1780E070
:102E70000E9402031092360220E488E190E00FB62F
:102E8000F894A895809360000FBE2093600083B7EC
:102E9000817F846083BF83B7816083BF7894889586
:102EA00083B78E7F83BF0FB6F894A895809160009A
:102EB000886180936000109260000FBE08950C94AA
:102EC00014170E949A0F0E94A10A0E9402030C94F8
:102ED0005F171F920F920FB60F9211248F939F933B
:102EE000AF93BF9380913602811113C08091570236
:102EF00090915802A0915902B0915A024196A11D99
:102F0000B11D8093570290935802A0935902B09339
:102F10005A02BF91AF919F918F910F900FBE0F906A
:102F20001F90189582E084BD93E095BD9AEF97BD00
:102F300080936E0008952FB7F89480915702909176
:102F40005802A0915902B0915A022FBF08952FB78D
:102F5000F8946091570270915802809159029091B3
:102F60005A022FBF08959C014FB7F89480915702E1
:102F700090915802A0915902B0915A024FBF821B02
:102F8000930B089578941F920F920FB60F9211240D
:102F90008F939F93AF93BF93809157029091580264
:102FA000A0915902B0915A020196A11DB11D8093C2
:102FB000570290935802A0935902B0935A02BF91BE
:102FC000AF919F918F910F900FBE0F901F9018950A
:102FD00010925B0210925C0210925D0210925E02EF
:102FE0000895CF92DF92EF92FF926B017C010E94D5
:102FF000B00681110EC00E94A717C61AD70AE80AA8
:10300000F90AC0925B02D0925C02E0925D02F092FB
:103010005E02FF90EF90DF90CF9008950F931F9383
:103020000E94B006882321F01F910F910C94A717DE
:103030000E94A71700915B0210915C0220915D0233
:1030400030915E02600F711F821F931F1F910F91BD
:10305000089587E797E790930108809300089AE026
:1030600088E10FB6F894A895809360000FBE909306
:103070006000FFCF90938B0180938A0108950E9496
:103080001916811102C00E94C0160E942416809356
:1030900035020E942C169093600280935F020E947A
:1030A0002816682F70E080E090E00E9490136091F5
:1030B00020027091210280912202909123020C94AF
:1030C000C81380913F0208950895CF93DF9300D0F5
:1030D0001F92CDB7DEB790916502943019F58983C0
:1030E0007B836A8382E08093E9008FEF9091E80010
:1030F000815095FD06C095ED9A95F1F7000081117C
:10310000F5CF8091E80085FF0DC040E050E063E01E
:1031100070E0CE0101960E94631A8091E8008E77DC
:103120008093E8000F900F900F90DF91CF9108955A
:10313000BC0184E00C946518BC0183E00C94651814
:10314000CF93DF9321E02093E9002FEF3091E80047
:10315000215035FD06C035ED3A95F1F700002111FB
:10316000F5CF2091E80025FF14C0EC0140E050E0CD
:1031700068E070E00E94631A8091E8008E77809387
:10318000E80088E0FE01A7E3B2E001900D928A9585
:10319000E1F7DF91CF91089580916402811109C018
:1031A0000E94F41B0E94511C8091E2008460809375
:1031B000E200089510926402089508950895089514
:1031C00042E061EC81E00E946D1B42E261EC82E032
:1031D0000C946D1B80916702833009F460C030F459
:1031E000813071F0823009F499C008958A3009F471
:1031F00085C08B3009F46BC0893009F0A7C020C0AE
:1032000080916602813A09F0A1C08091E800877F31
:103210008093E80080916A0290916B02892B21F4DF
:1032200068E087E392E003C060E080E090E070E057
:103230000E94AE1A8091E8008B778093E800089591
:1032400080916602813209F081C080916A0290917A
:103250006B02029708F07AC08091E800877F809324
:10326000E8008091E80082FD05C08091650281112F
:10327000F8CF6CC02091F3008091F20090E0922B87
:10328000029729F48091F1008B7F813021F48091A5
:10329000F10080933F028091E8008B7753C08091CA
:1032A0006602813A09F052C080916A0290916B02E5
:1032B000892B09F04BC08091E800877F8093E8005C
:1032C0008091E80080FFFCCF8091150136C080918D
:1032D00066028132D9F580916A0290916B02892B46
:1032E000A9F58091E800877F8093E8000E94A21BE7
:1032F00080916802809315010C949A0F8091660268
:10330000813221F58091E800877F8093E8000E9458
:10331000A21B809169028093400208958091660209
:10332000813AA1F48091E800877F8093E800809142
:10333000E80080FFFCCF809140028093F1008091F3
:10334000E8008E778093E8000C94A21B089584B760
:10335000877F84BF0FB6F894A8958091600088613C
:1033600080936000109260000FBE90E080E80FB67E
:10337000F89480936100909361000FBE0E940D0B42
:103380000E94F41B0E94511C8091E2008460809393
:10339000E20078940E94E61E0E94170B8BE091E0F9
:1033A0000E949C0A809165028530A9F48091650293
:1033B000853079F40E943117809163028823B1F33C
:1033C0000E941917882391F30E944D1A0E949A0FA8
:1033D000EDCF0E9461170E94210B0E94010B0E94F9
:1033E000000BE0CF0C94F419292F3327233031053B
:1033F000C9F060F42130310581F02230310509F047
:1034000044C08BE390E022E533E043C02132310534
:10341000E1F02232310549F138C082E190E02DE837
:1034200033E037C099278130910549F028F00297A1
:1034300061F5ECE2F3E005C0EEE4F3E002C0E0E4A5
:10344000F3E0849190E09F0124C06115710541F083
:1034500061307105D1F489E090E02DE733E019C0C7
:1034600089E090E024E633E014C06115710541F075
:103470006130710551F482E390E02FE933E009C037
:1034800080E490E021ED33E004C080E090E020E0B3
:1034900030E0FA0131832083089580E189BD82E123
:1034A00089BD09B400FEFDCF8091D8008F7D809347
:1034B000D8008091E00082608093E0008091E0007D
:1034C00081FDFCCF0895CF92DF92EF92FF920F9390
:1034D0001F93CF93DF93EC018B017A010E94C11BF4
:1034E000811133C0E114F10439F0F7018081918139
:1034F000081B190BC80FD91FC12CD12C01151105A0
:1035000019F18091E80085FD16C08091E8008E7762
:103510008093E800E114F10449F0F7018081918182
:10352000C80ED91ED182C08285E00FC00E94C11B87
:10353000882321F30AC089918093F1000150110979
:10354000FFEFCF1ADF0ADACF80E0DF91CF911F9132
:103550000F91FF90EF90DF90CF90089520916C0233
:1035600030916D022617370748F06115710539F45F
:103570002091E8002E772093E80001C0B901FC01FA
:1035800020E06115710579F1809165028823F1F1E0
:103590008530F1F18091E80083FD3CC08091E80026
:1035A00082FD2EC08091E80080FFEBCF2091F300D8
:1035B0008091F20090E0922B6115710551F08830F6
:1035C000910538F421912093F10061507109019621
:1035D000F3CF21E0089709F020E08091E8008E7792
:1035E0008093E800CECF2111CFCF0AC08091650231
:1035F000882361F0853061F08091E80083FD0AC086
:103600008091E80082FFF2CF80E0089582E0089583
:1036100083E0089581E0089520916C0230916D025D
:103620002617370748F06115710539F42091E80035
:103630002E772093E80001C0B901FC0120E061155C
:10364000710591F180916502882309F440C08530AD
:1036500009F43FC08091E80083FD3DC08091E800FF
:1036600082FD2FC08091E80080FFE9CF2091F30018
:103670008091F20090E0922B6115710559F088302D
:10368000910540F424912093F10031966150710925
:103690000196F2CF21E0089709F020E08091E80040
:1036A0008E778093E800CBCF2111CCCF0AC08091D8
:1036B0006502882361F0853061F08091E80083FD28
:1036C0000AC08091E80082FFF2CF80E0089582E096
:1036D000089583E0089581E00895982F973068F564
:1036E0009093E900981739F07091EC002091ED006B
:1036F0005091F00003C0242F762F50E021FD02C02E
:103700009F5FECCF3091EB003E7F3093EB00309128
:10371000ED003D7F3093ED003091EB003160309350
:10372000EB007093EC002093ED005093F00020919B
:10373000EE0027FDE5CF80E008958F708093E900CB
:1037400081E008958091660287FF11C08091E800B2
:1037500082FD05C0809165028111F8CF11C0809172
:10376000E8008B770BC080916502882349F0809137
:10377000E80080FFF8CF8091E8008E778093E80022
:1037800008952091E4003091E50095E64091EC0029
:10379000842F817040FF23C08091E80080FD1DC010
:1037A00080916502882399F0853099F08091EB0033
:1037B00085FD11C04091E4005091E50024173507C4
:1037C00029F3915011F09A01E1CF84E0089582E04D
:1037D000089583E0089581E0089580E00895409180
:1037E000E80042FFDDCF08950E94621C0E946A1C1F
:1037F000E0EEF0E0808181608083E8EDF0E08081A0
:103800008F77808319BCA7EDB0E08C918E7F8C936D
:1038100080818F7E80831092640208950F931F939E
:10382000CF93DF930E94621C0E946A1CC8EDD0E017
:1038300088818F77888388818068888388818F7D5D
:10384000888319BC10926502109261021092630283
:103850001092620200EE10E0F80180818B7F80837D
:1038600088818160888342E060E080E00E946D1B77
:10387000E1EEF0E080818E7F8083E2EEF0E08081F7
:1038800081608083808188608083F80180818E7F61
:103890008083888180618883DF91CF911F910F9110
:1038A0000895E8EDF0E080818F7E8083E7EDF0E021
:1038B00080818160808384E082BF81E080936402A4
:1038C0000C940E1CE8EDF0E080818E7F80831092D6
:1038D000E20008951092DA001092E10008951F921C
:1038E0000F920FB60F9211242F933F934F935F9334
:1038F0006F937F938F939F93AF93BF93EF93FF93B8
:103900008091E10082FF0BC08091E20082FF07C03E
:103910008091E1008B7F8093E1000E94E51E809101
:10392000DA0080FF1FC08091D80080FF1BC080910B
:10393000DA008E7F8093DA008091D90080FF0DC07D
:1039400080E189BD82E189BD09B400FEFDCF81E03F
:10395000809365020E94CC1805C019BC10926502C4
:103960000E94DA188091E10080FF19C08091E20086
:1039700080FF15C08091E2008E7F8093E2008091ED
:10398000E20080618093E2008091D80080628093A1
:10399000D80019BC85E0809365020E94DE188091F2
:1039A000E10084FF30C08091E20084FF2CC080E100
:1039B00089BD82E189BD09B400FEFDCF8091D800A8
:1039C0008F7D8093D8008091E1008F7E8093E1000D
:1039D0008091E2008F7E8093E2008091E20081601E
:1039E0008093E20080916102882311F084E007C097
:1039F0008091E30087FD02C081E001C083E08093F5
:103A000065020E94DF188091E10083FF29C0809148
:103A1000E20083FF25C08091E100877F8093E10071
:103A200082E080936502109261028091E1008E7FB6
:103A30008093E1008091E2008E7F8093E20080918C
:103A4000E20080618093E20042E060E080E00E945A
:103A50006D1B8091F00088608093F0000E94DD185B
:103A6000FF91EF91BF91AF919F918F917F916F9156
:103A70005F914F913F912F910F900FBE0F901F902C
:103A800018951F920F920FB60F9211242F933F9308
:103A90004F935F936F937F938F939F93AF93BF9356
:103AA000CF93DF93EF93FF93C091E900CF708091A4
:103AB000EC00D82FD17080FDD0E81092E900809101
:103AC000F000877F8093F00078940E94851D10920B
:103AD000E9008091F00088608093F000CD2BCF70DA
:103AE000C093E900FF91EF91DF91CF91BF91AF912A
:103AF0009F918F917F916F915F914F913F912F9106
:103B00000F900FBE0F901F9018951F93CF93DF93C8
:103B1000CDB7DEB7AA970FB6F894DEBF0FBECDBF04
:103B2000E6E6F2E08091F100819322E0EE36F207C2
:103B3000C9F70E94EA188091E80083FF2EC18091A6
:103B4000660290916702492F50E04A30510508F013
:103B500024C1FA01EC58FF4F0C94011F803821F06A
:103B6000823809F01AC108C0809162029091630204
:103B7000992389F082600FC080916A028F7087302C
:103B800008F00BC18093E9008091EB0085FB88274A
:103B900080F91092E9009091E800977F9093E800F7
:103BA0008093F1001092F100D1C0282F2D7F09F0F1
:103BB000F4C0882319F0823061F0EFC08091680270
:103BC000813009F0EAC0933009F080E0809363020D
:103BD0002EC08091680281112AC080916A028F7084
:103BE0002FEF280F263008F0D8C08093E9002091ED
:103BF000EB0020FF1CC0933021F48091EB00806229
:103C000014C09091EB0090619093EB0021E030E0C4
:103C1000A90102C0440F551F8A95E2F74093EA00BC
:103C20001092EA008091EB0088608093EB00109284
:103C3000E9008091E800877F8093E8000E94A21B42
:103C4000ACC08111AAC0109168021F778091E30077
:103C50008078812B8093E3008091E800877F8093B8
:103C6000E8000E94A21B8091E80080FFFCCF8091B9
:103C7000E30080688093E300111102C082E001C07C
:103C800083E08093650289C08058823008F085C047
:103C900080916802909169028C3D53E0950779F517
:103CA00083E08A838AE289834FB7F894DE01139612
:103CB00020E03EE051E2E32FF0E050935700E49122
:103CC00020FF03C0E295EF703F5FEF708E2F90E012
:103CD000EA3010F0C79601C0C0968D939D932F5F78
:103CE000243149F74FBF8091E800877F8093E80037
:103CF0006AE270E0CE0101960E94AE1A16C0609191
:103D00006A0270916B02AE014F5F5F4F0E94F21921
:103D1000BC01892B09F441C09091E800977F9093F2
:103D2000E80089819A810E940C1B8091E8008B77C2
:103D30008093E80032C0803881F58091E800877F69
:103D40008093E800809161028093F1008091E80007
:103D50008E7772CF811121C08091680290916902A3
:103D600099270297D4F48091E800877F8093E80038
:103D700080916802809361020E94A21B809161027F
:103D8000811106C08091E30087FD02C081E001C07F
:103D900084E0809365020E94E0188091E80083FF30
:103DA0000AC08091E800877F8093E8008091EB0053
:103DB00080628093EB00AA960FB6F894DEBF0FBE28
:103DC000CDBFDF91CF911F9108950895CF9380913A
:103DD00065028823A1F0C091E900CF709091EC00BA
:103DE000892F817090FD80E8C82B1092E9008091A6
:103DF000E80083FD0E94851DCF70C093E900CF913C
:103E00000895EE0FFF1F0590F491E02D0994F999A4
:103E1000FECF92BD81BDF89A992780B50895A8E19B
:103E2000B0E042E050E00C943B1F262FF999FECF02
:103E300092BD81BDF89A019700B4021639F01FBAFD
:103E400020BD0FB6F894FA9AF99A0FBE089503961A
:103E5000272F0E94161F0E94151F252F0E94161F34
:103E6000242F0C94161F0196272F0E94161F0C94C6
:103E7000151FDC01CB01FC01F999FECF06C0F2BD94
:103E8000E1BDF89A319600B40D9241505040B8F718
:063E90000895F894FFCF35
:103E9600019501049601059A012A026118A0186489
:103EA600189C18981801E200E900EA00B500B6006F
:103EB600B700CD008301CC008A0192019401210252
:103EC600230224022502260227022A02B300B40096
:103ED6006F007000818283F4F5F6F73133329497E0
:103EE600C634350000000000E200E900EA00B50033
:103EF600B600B700CD008301CC008A01920194017F
:103F06002102230224022502260227022A02B300E6
:0A3F1600B4006F0070008182830088
:00000001FF
