:100000000C94CF040C9416050C9416050C94F7264A
:100010000C9416050C9416050C9416050C941605F4
:100020000C9416050C9416050C9453220C948F21F5
:100030000C94A9190C9416050C9416050C9416052D
:100040000C9416050C9416050C9416050C941605C4
:100050000C9416050C945C190C9416050C9416055A
:100060000C9416050C9416050C9416050C941605A4
:100070000C9416050C9416050C9416050C94160594
:100080000C9416050C9416050C9416050C94160584
:100090000C9416050C9416050C9416050C94160574
:1000A0000C9416050C9416050C941605DC15DC153D
:1000B0001616161669160C180C180C1885166317E8
:1000C00074177417491897189C18A118A618AB181C
:1000D000B018B518BA18BF18C418CB186C18CE18B9
:1000E000D1186C186C186C18D418D918AA1FD11F05
:1000F0006721D11F672119203C2067212B213E2138
:100100003E233E235123512347235123512351237F
:100110003E233E234C23512351234C230001010154
:1001200001010101010102020202020202020203B4
:100130000303030303030304040404040404050584
:100140000505050606060606070707070708080847
:1001500008090909090A0A0A0B0B0B0C0C0C0D0DF6
:100160000D0E0E0E0F0F0F1010111111121213138E
:100170001414151516161717181819191A1A1B1B07
:100180001C1D1D1E1E1F2020212222232424252663
:1001900026272829292A2B2C2D2D2E2F303132329B
:1001A000333435363738393A3B3C3D3E3F404142A7
:1001B000434445464748494A4C4D4E4F505153548D
:1001C000555658595A5B5D5E5F6162646566686941
:1001D0006B6C6D6F7072737577787A7B7D7E8082C1
:1001E000838587888A8C8E8F91939596989A9C9E0A
:1001F000A0A2A3A5A7A9ABADAFB1B3B5B7BABCBE1A
:10020000C0C2C4C6C9CBCDCFD1D4D6D8DBDDDFE2E6
:10021000E4E7E9EBEEF0F3F5F8FAFDFFFFAA7F550E
:100220004000AF00DA0281FFD9F1DB20A4A62EAF97
:1002300000A0C000A1C800AED580A81FD300408D8B
:100240001420000004643214783C1E20202020007A
:100250005343522000202020200043415020002002
:10026000202020004E554D20000A00556E64656622
:10027000696E65640041646A7573740A004C6F7737
:1002800065720A0052616973650A004465666175AA
:100290006C740A004C617965723A200020000A00F3
:1002A0000A00959600B5B600979800B7B80080810F
:1002B00082838485868788898A8B8C8D8E8F9091A6
:1002C000929394A0A1A2A3A4A5A6A7A8A9AAABAC07
:1002D000ADAEAFB0B1B2B3B4C0C1C2C3C4C5C6C77E
:1002E000C8C9CACBCCCDCECFD0D1D2D3D40000AEEA
:1002F00040004100420043004400450000003A0035
:100300003B003C003D003E003F000000500052001A
:1003100051004F00E200E30000004B004A004D0096
:100320004E00E100E000E2000000000000000000DC
:1003300000000000000000000000000000000000BD
:1003400000000000000000000000000000000000AD
:10035000000000000000000000000000000000009D
:1003600005010980A101850319012AB7001501269D
:10037000B700950175108100C0050C0901A1018528
:100380000419012AA002150126A002950175108109
:1003900000C005010906A101050719E029E71500BC
:1003A00025019508750181029501750881010507F0
:1003B000190029FF150026FF009506750881000524
:1003C000081901290595057501910295017503919B
:1003D00001C009023B00020100A0FA09040000016B
:1003E00003010100092111010001224000070581DC
:1003F0000308000A0904010001030000000921119B
:100400000100012232000705820320000A120110B8
:100410000100000008653204000100010200012211
:1004200003480065006C00690078002000720065D8
:1004300000760033002000340072006F00770073F4
:100440000000001403790075007300680061006B00
:10045000006F0062006F0000000403090400000048
:100460000000003E5B4F5B3E003E6B4F6B3E001C4E
:100470003E7C3E1C00183C7E3C18001C577D571CDF
:10048000001C5E7F5E1C0000183C180000FFE7C3E4
:10049000E7FF00001824180000FFE7DBE7FF00304B
:1004A000483A060E00262979292600407F050507CF
:1004B00000407F05253F005A3CE73C5A007F3E1C28
:1004C0001C0800081C1C3E7F0014227F2214005FC1
:1004D0005F005F5F0006097F017F00006689956A03
:1004E0000060606060600094A2FFA2940008047E37
:1004F00004080010207E20100008082A1C080008AC
:100500001C2A0808001E10101010000C1E0C1E0CD7
:100510000030383E383000060E3E0E060000000067
:1005200000000000005F000000000700070000144A
:100530007F147F1400242A7F2A1200231308646288
:1005400000364956205000000807030000001C2216
:100550004100000041221C00002A1C7F1C2A0008C8
:10056000083E0808000080703000000808080808ED
:10057000000000606000002010080402003E5149A5
:10058000453E0000427F4000007249494946002133
:1005900041494D33001814127F1000274545453955
:1005A000003C4A49493100412111090700364949B7
:1005B000493600464949291E000000140000000089
:1005C00040340000000008142241001414141414D4
:1005D000000041221408000201590906003E415D55
:1005E000594E007C1211127C007F49494936003E69
:1005F00041414122007F4141413E007F49494941FB
:10060000007F09090901003E41415173007F08083C
:10061000087F0000417F4100002040413F01007FF2
:1006200008142241007F40404040007F021C027FAE
:10063000007F0408107F003E4141413E007F0909D0
:100640000906003E4151215E007F09192946002616
:10065000494949320003017F0103003F4040403FC8
:10066000001F2040201F003F4038403F0063140817
:100670001463000304780403006159494D430000EA
:100680007F41414100020408102000004141417FA8
:100690000004020102040040404040400000030703
:1006A0000800002054547840007F28444438003823
:1006B0004444442800384444287F00385454541893
:1006C0000000087E09020018A4A49C78007F08049A
:1006D00004780000447D4000002040403D00007F41
:1006E000102844000000417F4000007C047804781A
:1006F000007C0804047800384444443800FC182482
:1007000024180018242418FC007C0804040800485D
:10071000545454240004043F4424003C4040207CB2
:10072000001C2040201C003C4030403C004428106D
:100730002844004C9090907C004464544C44000049
:100740000836410000000077000000004136080034
:10075000000201020402003C2623263C0003071F7E
:100760007FFFFFFEF8F0C020F8FEFFFE79271F7F15
:10077000FFFFFEF8F0C020F8FEFFFF7F3F3F7FFF46
:10078000FEF8F0C000000000FFFFFFFFFFFF0000C9
:100790000000000000FF7F7F7FBFBFC0C0C0E0E05F
:1007A000E0E0F0F0F0F878787C3C3CFEFEFEFFFFE5
:1007B000FF000000000000000000008080BFBFDFDD
:1007C000DFEFEF0003071F7FFFFFFFFEF8E0C0E051
:1007D000F8FEFFFFFF7F1F07030000E0F0F0F0E0EE
:1007E000ECEEF7F37020007C7C7C7E007E7E7E7FCA
:1007F0007F7F000080C0E07E5B4F5BFEC00000C0DA
:1008000000DCD7DEDEDED7DC00C000000000000028
:1008100000000000000000000000000000000000D8
:1008200000C1F3CFBF7FFFFFFCFBE78100000000AA
:1008300080E3CF3FFFFFFFFCFBE78100000000816A
:10084000E7FFFFFFFF3C0000FFFFFFFFFFFFF8F89F
:10085000FC7C7E7E3EFEFFFFFFFFFFF7F7F7FBFB12
:100860007D7D7DBEBEBEDFDFE0E000FFFFFFFFFF5E
:10087000FF00FCFC7C7E7E3E3E1F1F1F0FFFFFFF24
:10088000FFFFFF000000000081E7FFFFFFFFFFFF09
:10089000FFFFFFE7810000000000000F1F3F7F7F88
:1008A0007F7F7F3F1E0C001F1F1F3F003F3F3F7F8A
:1008B0007F7F00307B7F7830202030787F3B0003C3
:1008C000000F7F0F0F0F7F0F0003000000000000DC
:1008D0000000000000000000000000000060707CCC
:1008E0007F7F7F7F1F0601030F3F7F7F7E7C7C7EA3
:1008F0007F7F7F1F0601070F3F7F7F7E7C7C7E7F8F
:100900007F3F0F03000000007F7F7F7F7F7F00001D
:1009100000000000007F7F7F7F7F7F7D7D3D3E1E4A
:100920001F1F1F0F0F0707070303007F7F7F7F7FB6
:100930007F7C7C7C7C7C7C7C7C7C7C7C007F7F7F67
:100940007F7F7F004070787E7F7F7F3F0F030103B2
:100950000F3F7F7F7F7E7870400000000000000026
:100960000000000000000000000000000000000087
:100970000000000000000000000000000000000077
:100980000000000000000000000000000000000067
:100990000000000000000000000000000000112422
:1009A0001FBECFEFDAE0DEBFCDBF04B603FE27C027
:1009B0008091750590917605A0917705B0917805A5
:1009C0008730904BA740B04BD1F410927505109230
:1009D0007605109277051092780514BE84B7877F4C
:1009E00084BF0FB6F894A8958091600088618093C9
:1009F0006000109260000FBEE0E0F8E3099525E08A
:100A0000AEEBB1E001C01D92A537B207E1F711E0EE
:100A1000A0E0B1E0E2E5F7E502C005900D92AE3B43
:100A2000B107D9F70E94400E0C94A72B0C9400003C
:100A30000895AF92BF92CF92DF92EF92FF920F9301
:100A40001F93CF93DF93E82EF62EE901E42FF0E019
:100A5000611106C0E45EFE4FE4914E2F2E2F71C04F
:100A6000062F10E0E45EFE4F4491F42FC42ED12CEB
:100A700026E0829FC00111242FEF30E0B9010E94CF
:100A800067285BEA5603C001579F900D11248E0D15
:100A9000911D8E0D911D582F550F580FD901A01B78
:100AA000B10BAC9DC001AD9D900DBC9D900D11246E
:100AB000E92FF59ED0011124AB2FBB277901EA1A4B
:100AC000FB0AEC9CD001ED9CB00DFC9CB00D1124F8
:100AD0005901A51AB108A09E7001A19EF00CB09E0C
:100AE000F00C1124EF2CFF242E193F092C9D8001BE
:100AF0002D9D100D3C9D100D1124212F623071058C
:100B000091F048F461157105E1F061307105B9F4B7
:100B1000242F4B2F16C06430710569F040F0663009
:100B2000710579F00CC0242F492FE12F0AC0492FFD
:100B3000EF2F2B2F06C0292FE42F412F02C0292F82
:100B4000EB2F49832883EA83DF91CF911F910F9187
:100B5000FF90EF90DF90CF90BF90AF90089590916D
:100B60009F0292FF0DC0282F2871283019F4877F2B
:100B7000846006C0282F2471243011F48B7F886094
:100B800093FF0DC0282F2871283119F4877E8461C6
:100B900006C0282F2471243111F48B7E88612091A6
:100BA000A00220FF0DC0382F3871383019F4877F2C
:100BB000816006C0382F3171313011F48E7F88602A
:100BC00021FF0DC0282F2871283119F4877E8161FB
:100BD00006C0282F2171213111F48E7E886194FD89
:100BE000877E0895CF9391E08927EFE9F2E0608155
:100BF00080FB63F980FB62F96083C091A00284E00E
:100C000090E00E9427286C2F81E290E0CF910C9415
:100C100027281F93CF93DF93CDB7DEB767970FB623
:100C2000F894DEBF0FBECDBF4B8B5C8B6D8B7E8B84
:100C30008F8B86E09E01235F3F4FD901E82F1D92E5
:100C4000EA95E9F795E0FE017396D90101900D92BE
:100C50009A95E1F7F901DE01179601900D928A95B8
:100C6000E1F7CE0107960E94341C81113EC086E058
:100C7000FE013796DE01119601900D928A95E1F7FB
:100C8000FF81E8856A857B856115710531F0EF3F4D
:100C900031F481E0FF3F19F403C081E001C080E03E
:100CA00080FD23C02091EE0230E0C90101968770DB
:100CB000992740911F0350E08417950779F1F98334
:100CC000EA837D836C8396E0929FD001939FB00D61
:100CD0001124A151BD4FFE01319601900D929A95BC
:100CE000E1F78093EE020E94BE1B16E080911F0385
:100CF0009091EE028917F9F0189FC00111248151DB
:100D00009D4F0E94341C8823B1F080911F0390E016
:100D100001968770992780931F03E8CF0E94632371
:100D20001092EE0210921F03E8EEF2E086E0DF017F
:100D30001D928A95E9F767960FB6F894DEBF0FBE4D
:100D4000CDBFDF91CF911F91089520916602309120
:100D500067022817390771F0909367028093660243
:100D6000E091A102F091A202309721F00084F18578
:100D7000E02D0994089520916402309165022817AE
:100D8000390771F09093650280936402E091A102AB
:100D9000F091A202309721F00680F781E02D0994AE
:100DA0000895E091A102F091A202309721F0019004
:100DB000F081E02D099480E008958091D30288238A
:100DC000F9F00E949119DC01CB01805A9541AF4F97
:100DD000BF4F8093CE029093CF02A093D002B093E6
:100DE000D1028091D20281110BC062E070E081E2F9
:100DF00092E00E94711E892B19F481E08093D20247
:100E00008091D2020895CF93E82F20917005309100
:100E100071052A56334040916703642F70E0C90181
:100E20000E946728481B842FEE2351F066E00E9441
:100E30005B28C82FC150A8F080E20E94E31DFACFC2
:100E4000A901480F511D4115524018F080E020E0E3
:100E500030E0280F311D26593C4F30937105209307
:100E60007005CF910895882311F0FA0101C0FB01AC
:100E70000994E7E9F2E01182828184608283089517
:100E800030910C018091A70280FF16C0E0910B0108
:100E900063E0E69FF0011124E553FE4F539A8BB1B6
:100EA000877F9BB198602FB7F894AF0163E0369FBE
:100EB000400D511D112414C080910D0190910E011F
:100EC000891720F7E82FF0E0AF01440F551FE40F1A
:100ED000F51FE553FE4F1182108212828F5FF0CF13
:100EE000E417F50789F0319168E09BB9000000C074
:100EF00037FF8BB9330F000000C000C000C08BB9B2
:100F000000C06A9591F7ECCF2FBF8FE594E0019771
:100F1000F1F700C000000895FF920F931F93CF9345
:100F2000DF93EC01F12C0FEF10E060910F01F6164A
:100F300008F580910D012F2D30E0280F311DC901DA
:100F4000880F991F280F391F25533E4F4091AA0241
:100F5000493708F048E770E0C8010E947B28962FC7
:100F60008C816091A902F99E800D11240E941905BF
:100F7000F394DBCF0E9440079A818C8190FF02C0DE
:100F80008F5F01C081508C83DF91CF911F910F91B2
:100F9000FF9008959091A70290FF16C090910D01C7
:100FA00020910E01921770F4E92FF0E0DF01AA0FF3
:100FB000BB1FEA0FFB1FE553FE4F81836083428313
:100FC0009F5FF0CF0C94400708950F931F93CF932A
:100FD000DF9300D01F92CDB7DEB78C018091610204
:100FE00081110AC09E012F5F3F4F48E76FEF0E94BB
:100FF00019058A8180936102F8018481813051F062
:1010000028F0823061F4409161020AC0809161024F
:1010100040E007C06091610240E080E003C040E032
:1010200080E060E00E94CA07F801848190E00196A8
:1010300063E070E00E947B2884830F900F900F90F4
:10104000DF91CF911F910F9108950F931F93CF932D
:10105000DF9300D01F92CDB7DEB78C018091A7023D
:1010600080FF13C04091AA02493708F048E79E016B
:101070002F5F3F4F6091A902F80184810E941905FA
:101080004B8169818A810E94CA07F80184818F5F40
:1010900084830F900F900F90DF91CF911F910F914C
:1010A00008958091A702282F269530E0211531055B
:1010B00019F48170826005C02631310524F08170F9
:1010C0008A628093A7028091AA02893718F088E784
:1010D0008093AA020895CF92DF92EF92FF926B0164
:1010E0007C010E945108B701A60188E090E0FF90C2
:1010F000EF90DF90CF900C943928AF92BF92CF92AF
:10110000DF92EF92FF920F931F93CF93DF9300D064
:101110001F92CDB7DEB7082FF62E142FE22E809146
:10112000A70280FF80C0E82FE695AE2FB0E0A55C57
:10113000BE4F9C91909397028E7F823081F4493705
:1011400008F048E79E012F5F3F4F6F2D802F0E94D0
:1011500019054B8169818A810E94CA0741C092307A
:1011600019F40091A8023CC09530D9F39B30C1F529
:10117000EB508E2F8170D82EE695F0E0E45EFD4FA7
:10118000A590B490C12CBB2460910F01C61630F518
:101190002C2D30E0A29EC001A39E900DB29E900D1A
:1011A000112470E00E946728802FD11002C0860FA2
:1011B00001C0861B90910D01290F311DA901440F1B
:1011C000551F240F351F25533E4F412F193708F067
:1011D00048E76F2D0E941905C394D6CF0E9440079F
:1011E0008091A802081308C08091A902F81204C0D7
:1011F0008091AA02181729F0809199028260809349
:1012000099020093A802F092A9021093AA02EE207C
:1012100051F06091A7027091A8028091A90290916B
:10122000AA020E946B080F900F900F90DF91CF9150
:101230001F910F91FF90EF90DF90CF90BF90AF90F4
:101240000895E7EAF2E0438121E1421B08F440E01F
:1012500021E0628181810C947D08E7EAF2E043811C
:1012600021E1420F08F44FEF21E0628181810C946B
:101270007D08E7EAF2E0628121E1621B08F460E0A8
:1012800021E0438181810C947D08E7EAF2E06281EC
:1012900021E1620F08F46FEF21E0438181810C941A
:1012A0007D08E7EAF2E0818121E043816281885094
:1012B0000C947D08E7EAF2E0818121E043816281BC
:1012C000885F0C947D088091AB02882319F08150CF
:1012D0008093AB026091A7027091A8028091A9024D
:1012E0009091AA020C946B088091AB02833018F4A1
:1012F0008F5F8093AB026091A7027091A8028091EA
:10130000A9029091AA020C946B08E7EAF2E083E04C
:10131000808311828FEF828388E783831482A7E919
:10132000B2E012968C911297836012968C93608132
:101330007181828193810C946B088091CA01811123
:1013400012C08091D80080618093D8008AE18A958C
:10135000F1F700C08091D90080FD02C082E001C099
:1013600081E08093CA0181E09091CA01913009F037
:1013700080E00895F894E82FE295EF70F0E031A155
:10138000282F2F7081E090E001C0880F2A95EAF79E
:10139000982F9095932391A392A1892B82A378945F
:1013A0000895CF93DF9328E3829FC0011124FC01AD
:1013B00047E0749FE00DF11D1124E60FF11DEE0FC3
:1013C000FF1FE051FD4FC591D491CE01C238D10528
:1013D00069F1B0F4C133D10509F475C048F4C932DC
:1013E000D10509F469C0CA32D10509F473C085C0BA
:1013F000C533D10509F459C0C933D105B9F07DC051
:10140000C33ED10571F138F4C03ED105B1F0C23E02
:10141000D10511F172C0C63ED105B9F1C73ED10563
:10142000C9F1C43ED10509F068C024C020919F02D3
:1014300020FD5DC021FD5BC060C020919F0220FDAA
:1014400050C02091A00220FF42C180919F0284FDE4
:101450003CC183EE90E03BC120919F0222FF37C147
:10146000F4CF80919F0282FD3FC08091A00280FD59
:101470003EC0EBCF2091A00221FF29C180919F02A5
:1014800084FD23C187EE90E022C120919F0223FFBB
:101490001EC1F4CF80919F0283FD2CC08091A002D9
:1014A00081FFECCF84EE90E012C120919F0225FFD6
:1014B0000EC189E290E00BC120919F0225FF07C178
:1014C00085E390E004C120919F0226FF00C18AE2DB
:1014D00090E0FDC020919F0226FFF9C081E390E0DB
:1014E000F6C089E390E0F3C082EE90E0F0C080EEB9
:1014F00090E0EDC086EE90E0EAC0C11552E5D50758
:1015000008F06BC0C11521E5D20728F09C2F882771
:10151000816F906ADCC0C83ED10570F5C03ED10530
:1015200008F0D5C0C83AD105B8F4C53AD10550F095
:101530008C2F855AC82FD0E0C457DE4F888190E0A9
:101540009064C5C0C130D10509F4C1C008F4BDC064
:10155000249708F4BAC0BBC0CF3BD10508F0B5C092
:101560008C2F885AC82FD0E0CC0FDD1FC157DE4F1B
:10157000888199819464ABC0C11540E5D407F0F02F
:10158000CE01F4E096958795FA95E1F7282F237020
:101590003C2F337081E090E002C0880F991F3A958C
:1015A000E2F79C68922B2C2F2F702695269550E2FF
:1015B000259F90011124822B932B89C0C11550E4E3
:1015C000D50720F0CE019F70906A81C09E013A95A8
:1015D00021153F4108F47BC078C0C11556E5D507F9
:1015E00008F03FC0C11585E5D80748F08C2F0E9450
:1015F000AF058F7190E0982F8827906268C0C11561
:1016000024E5D20728F09C2F8827846F906A5FC05A
:101610009E01237033279C2F96959695C115D3452F
:1016200080F441E050E002C0440F551F2A95E2F7D4
:1016300080E2989F90011124CA01822B932B9C6811
:1016400046C041E050E002C0440F551F2A95E2F722
:1016500080E2989F90011124CA01822B932B9A68F3
:1016600036C0C1155AE5D507B0F4C11589E5D807CC
:1016700018F18C2F8F700E94AF059E0194E0369573
:1016800027959A95E1F72F7030E0322F22273069A5
:10169000A901482B0FC0CE01905681159042A8F4A5
:1016A0008D2F8F710E94AF059E01332730628F719D
:1016B000A901582BCA010BC0C11528E5D20728F093
:1016C0009C2F8827806F906A02C080E090E0DF91B5
:1016D000CF9108950F931F93CF93DF93C42FD22FF1
:1016E000FC0182818823C9F04093DE020E949D198B
:1016F000909363028093620280E28C0F883008F03E
:101700005EC0C77081E001C0880FCA95EAF7DF911B
:10171000CF911F910F910C9479238091DE02481391
:101720003EC080916202909163020E948219883CBF
:101730009105A8F510E21D0FCD17B9F080E28C0FCE
:10174000883040F4C77081E001C0880FCA95EAF77D
:101750000E946E23183048F481E09D2F977001C0DD
:10176000880F9A95EAF70E947923802F0E94DF2341
:10177000093349F4FFEF27EE83E0F1502040804029
:10178000E1F700C00000802F0E9483231830B8F4D6
:10179000D77081E001C0880FDA95EAF70AC080E2CD
:1017A0008C0F883060F4C77081E001C0880FCA9543
:1017B000EAF7DF91CF911F910F910C946E23DF9187
:1017C000CF911F910F9108956091A702669570E0E7
:1017D0004BE050E080E091E00E949528892B19F4BD
:1017E00081E0809398020E949D19909392028093C9
:1017F000910280919902846080939902089590915A
:10180000A70290FF3BC09170811102C0926006C098
:10181000863110F09A6202C0880F982B9093A7022D
:1018200080919902816080939902662351F06091C2
:10183000A7027091A8028091A9029091AA020E9429
:101840006B086091A702669570E04BE050E080E085
:1018500091E00E949528892B19F00E94390702C057
:101860000E94E40B81E08093940220E04091AA0260
:101870006091A9028091A8020C947D08089580913E
:10188000A7028695815009F485E161E00C94FF0B75
:101890008091A70286958F5F863108F081E061E034
:1018A0000C94FF0B9091A70290FF04C09695981797
:1018B00040F003C0811105C090E0961710F40C941D
:1018C000480C61E00C94FF0B8F929F92AF92BF92F5
:1018D000CF92DF92EF92FF920F931F93CF93DF93FC
:1018E000C5E6D1E007E712E099E6892E91E0992E4E
:1018F0007801D12CAA24A394B12CBE018881F8943C
:10190000E82FE295EF70F0E021A18F70A50102C0F1
:10191000440F551F8A95E2F7CA01922F982B91A385
:1019200092A18095892382A3789450EA5A95F1F781
:10193000EDE6F1E020E030E0C12C4191842F82956A
:101940008F7090E0DC0190968C9190E04F7002C017
:10195000959587954A95E2F780FD07C08A2D022E5E
:1019600001C0880F0A94EAF701C080E0C82A2F5FFF
:101970003F4F2730310509F72196FB0180810E94F6
:10198000BA09D7018C91C81619F0CC9281E001C038
:1019900080E0D82ABFEFEB1AFB0A8C169D0609F0EF
:1019A000ACCFC0918002DD2049F081E08093C0017E
:1019B0000E949D199093BF018093BE018091C00148
:1019C0008823B9F08091BE019091BF010E948219D5
:1019D000069778F0EC2FF0E0EA57FD4F8BE792E0A6
:1019E000D8012D918D0121938A179B07C9F7109279
:1019F000C0010E949D09882309F456C0C0917F024E
:101A0000809199028823E9F085E0E7EAF2E0A8E610
:101A1000B2E001900D928A95E1F780919702909142
:101A20009802A091990280936D0290936E02A09308
:101A30006F0281E090E00E948727892B11F41092B9
:101A4000990280E090E00E948727892B09F0F8C076
:101A5000EC2FF0E0EA57FD4F80E090E0DC01AF585A
:101A6000BD4F2C912193019684309105B9F7E091F7
:101A70008202F0E0E656FD4F809175029081891B4D
:101A8000982F19162CF4915020812F5F2083F9CFC5
:101A9000982F87FD90E0891B882309F471C08F5F20
:101AA000908191509083F8CFE0918002CE2FD0E0CA
:101AB00080917002883009F04CC080916F0280FFE5
:101AC00025C0909168028091A70290FF0AC08160B2
:101AD0008093A7028091680260E086950E94FF0BC8
:101AE00015C08E7F8093A7020E94390780919902CA
:101AF000816080939902EFEFF0E722E0E150F0403F
:101B00002040E1F700C000000E94400780916F0272
:101B100081FF09C020E040916B0260916A028091D0
:101B200069020E947D0880916F0282FF09C0809146
:101B30006E02882319F00E94E40B02C00E9439074C
:101B400080916F0283FF03C081E080939402109222
:101B50007002FE01EA57FD4F80E090E02191DC0128
:101B6000AF58BD4F2C93019684309105B9F7E091A1
:101B70009D02F0E0E656FD4F80818093750272C0B1
:101B80001092C9018091830290918402843FB1E058
:101B90009B0758F4019690938402809383020A97DE
:101BA00009F060C0BB24B39401C0B12CC3E3D1E001
:101BB00005EC11E081ECE82E81E0F82E20E0C12C4C
:101BC0003981888190E0FC01BB2019F0E958FD4F74
:101BD00002C0EA57FD4F808190E002C0959587953D
:101BE0003A95E2F7382F3170F80131938F01D70120
:101BF0004D917D01431302C0BB2051F0C11007C0BD
:101C000080FF02C080E001C081E00E94F20521E077
:101C1000C3942296B4E0CB12D3CF222319F1809142
:101C2000C5019091C601A091C701B091C8018093F0
:101C3000C1019093C201A093C301B093C40112C02B
:101C40008091C9018F5F8093C901863008F49ACFD3
:101C5000E0917F02F0E0EA57FD4F1082118212827C
:101C6000138290CF8D2DDF91CF911F910F91FF9017
:101C7000EF90DF90CF90BF90AF909F908F9008959E
:101C8000CF93DF93CDB7DEB7AC970FB6F894DEBF36
:101C90000FBECDBF84B7877F84BF0FB6F894A895D9
:101CA00080916000886180936000109260000FBE98
:101CB00090E080E80FB6F894809361009093610003
:101CC0000FBE85B7806885BF85B7806885BF0E94D5
:101CD000D3210E94F2218091E20084608093E2008F
:101CE000789480915D038823A1F01091E9001F7022
:101CF0009091EC00892F817090FD80E8182B109254
:101D0000E9008091E80083FD0E94C61E1F701093B9
:101D1000E90082E084BD93E095BD9AEF97BD809382
:101D20006E0022982A9A579A5F9825E02A95F1F733
:101D3000000083B182FB882780F957985F9A30EAC8
:101D40003A95F1F78093200180912001882321F0BA
:101D500010920B0189E103C089E180930B0180930C
:101D60000C010E949D09882331F062E070E080E15F
:101D700091E00E94A526809120018091200181118F
:101D800002C094E001C090E09093800284E0891B3F
:101D900080937F0284E90E94BA0986E60E94BA090C
:101DA00087E90E94BA0986EC0E94BA090DE611E0A3
:101DB00054E7E52E51E0F52ED8018D918D010E945A
:101DC000BA09E016F106C1F7E7E7F2E08FE792E023
:101DD000A6E8B2E011921D928E179F07D9F780E016
:101DE00090E00E9421288C3E9E4F11F00E940A1A1A
:101DF0000E949D09811106C062E070E080E191E0DF
:101E00000E94AE261092CC0280E8809367030E9465
:101E100060256DE070E086E392E00E94711E892BE0
:101E200009F043C08091CC0263E070E081FD3AC0CC
:101E300083E392E00E94711E892BB9F56DE070E09A
:101E400083E292E00E94711E892B79F50E9491191C
:101E5000DC01CB01805A9541AF4FBF4F8093CE023A
:101E60009093CF02A093D002B093D102EAE6F3E0C0
:101E700080E092E0DF019C011D9221503040E1F7AB
:101E8000F0937105E09370058FEF9FEF90936903D6
:101E90008093680381E08093D3028093D2021092F2
:101EA000CD0203C080E392E0C5CF80E090E00E94C5
:101EB00021288C3E9E4F11F00E940A1A82E090E089
:101EC0000E9413288093D5020E94F9199093A002D2
:101ED00080939F0283E090E00E941328682F70E0B7
:101EE00080E090E00E94B41B8091810281113BC090
:101EF00080E090E00E9421288C3E9E4F21F00E94BD
:101F00000A1A0E94850988E090E00E941B286093CD
:101F1000A7027093A8028093A9029093AA028091CD
:101F200099028360809399026E7F71F40E94850903
:101F300088E090E00E941B286093A7027093A8029B
:101F40008093A9029093AA020E9451080E94390727
:101F50008091A70280FF04C060E086950E94FF0B7D
:101F600081E08093810226982E9A25982D9A83B13C
:101F700086FB882780F91D9902C090E001C092E09D
:101F8000892B80939E029091200181E09827909365
:101F90009D02891B80938202109284021092830218
:101FA00088E291E09093A2028093A10222242394DC
:101FB000312CFE0131966F0180915D03853009F06F
:101FC0003AC080915D03843021F11092850220E4B3
:101FD00088E190E00FB6F894A895809360000FBE5A
:101FE0002093600083B7817F846083BF83B7816063
:101FF00083BF7894889583B78E7F83BF0FB6F8949C
:10200000A8958091600088618093600010926000C4
:102010000FBE80915C03882309F4CECF0E94640C2C
:102020008EE892E0E6E8F2E02191211149C38E1793
:102030009F07D1F7C1CF0E94640CB82E0E949D0962
:102040008823A1F1E6EDF2E0A6E8B2E000E010E0BE
:10205000302F2D919191922721F180E0FF24F3946C
:10206000492F4F21D1F08F8F38A32F2181E009F420
:1020700080E089A30E949D198160782F9BA38AA389
:102080004F8D58A169A18BA10E940906F801EA525F
:10209000FD4F8081F826F08219C08F5FFF0C8730DA
:1020A000F9F60F5F1F4F0830110591F68FEF8CA3E3
:1020B0008DA31EA20E949D198160782F98A78FA3DF
:1020C0004CA15DA16EA188A50E940906809198028D
:1020D000882309F489C080919702E091A702E695D0
:1020E000E81BE0939302823059F4F0E0E85BFD4F87
:1020F000E4910E2F10E035E2E32E38E0F32E1FC0FE
:10210000853061F4E695F0E0EB5BFD4FE4910E2F36
:1021100010E02CE8E22E27E0F22E11C0853149F4C0
:10212000E3E4F2E00591149195EEE92E97E0F92EA3
:1021300006C000ED17E088E1E82E85E0F82E8091DA
:102140009402882389F0109294020E949D199801AC
:1021500020953095820F931F909392028093910265
:1021600010929602109295028091910290919202A3
:102170000E94821980179107B8F1809190028823FC
:10218000B1F01092900280918E0290918F020E9485
:1021900082198033954758F00E949D1990938F02C1
:1021A00080938E028091990288608093990280903A
:1021B000950290909602E0919102F09192020E0F9A
:1021C0001F1F109392020093910281E992E0F701A0
:1021D00009958091950290919602892B29F489287E
:1021E00019F081E08093900280919E02E82FEE0F1B
:1021F000EE0FE0939E0283B186FB882780F989A7C2
:102200001AA61D9903C080E090E002C082E090E031
:1022100029A53AA5822B932B8E2B80939E02909119
:102220009D028F70E82FF0E0EC58FE4F20818091E6
:102230009C02820F843044F0E92F990FFF0BE65681
:10224000FD4F90819F5F09C08D3F44F4E92F990FA6
:10225000FF0BE656FD4F908191509083082E000CA5
:10226000990B64E070E00E947B2880939C0280912F
:10227000D302882309F415C28AE693E0909371058E
:10228000809370050E949D09882309F4BCC0809149
:102290009F0282FD0BC082EA92E00E94631E80EAE8
:1022A00092E00E94631E85EA92E00AC088EA92E00A
:1022B0000E94631E8EE992E00E94631E8BEA92E008
:1022C0000E94631E8CE992E00E94631E84E992E002
:1022D0000E94631E4091A3025091A4026091A50246
:1022E0007091A602CB01AA27BB270097A105B105D3
:1022F00021F0AC01BD0180E101C080E0052F162F67
:10230000272F3327011511052105310519F0885FA5
:10231000B901A8018A019B01A4E03695279517957C
:102320000795AA95D1F7011511052105310519F079
:102330008C5FB901A8018A019B01F2E036952795CF
:1023400017950795FA95D1F7011511052105310566
:1023500019F08E5FB901A801769567955795479555
:10236000452B462B472B09F08F5F813081F038F0E9
:10237000823041F0833071F485E792E005C08BE84C
:1023800092E002C084E892E00E94631E0AC08DE7DA
:1023900092E0FACF8BE692E00E94631E81E00E94F9
:1023A000030789E692E00E94631EE091A102F0918A
:1023B000A202309729F00190F081E02D099501C02B
:1023C00080E081FB002700F982FB112710F980FDD6
:1023D00003C08FE592E002C084E692E00E94631E93
:1023E000011103C085E592E002C08AE592E00E94F7
:1023F000631E111103C08BE492E002C080E592E0FD
:102400000E94631E41C08EEA92E00E94631E2091EA
:10241000A70220FF39C08091AA0231E1632F0E94F8
:102420005B281F928F938091A9020E945B281F92C4
:102430008F938091A8028695869586951F928F939B
:1024400026951F922F93A1E5B1E0BF93AF931F9202
:102450008EE18F93DF92CF920E94AF28F601019018
:102460000020E9F78F01015011090FB6F894DEBF83
:102470000FBECDBF7601E016F10630F4D7018D9185
:102480007D010E94E31DF7CF8091D302882309F4D8
:10249000E1C020916803309169032115310509F4E9
:1024A000D9C08091CD028111D5C0482E512C710127
:1024B000082E02C0EE0CFF1C0A94E2F7A9014E217F
:1024C0005F21452B11F48F5FF0CF9091CC029201E8
:1024D00075E0220F331F7A95E1F790FD12C08295C7
:1024E000880F807680932301220F232F221F330B26
:1024F000319520932601815E80932401109227015B
:1025000012C055E0369527955A95E1F7220F220F14
:10251000220F2093230110922601295F209324018A
:1025200083E08093270124E630E047E050E061E259
:1025300071E088E70E94ED25892B09F08BC080911E
:10254000CC0280FD23C0C20145E0880F991F4A9547
:10255000E1F7AC0146595C4F04E610E020E230E0C0
:1025600060E488E70E941426892B09F073C00E945A
:10257000DD06E094F0948091680390916903E8226D
:10258000F922F0926903E092680364C080E2ECEA09
:10259000F2E011928A95E9F735E0440C551C3A9522
:1025A000E1F728E831E03CA72BA764E871E0ABA590
:1025B000BCA58D91BCA7ABA7FB019191BF01A20166
:1025C000490F511D46595C4F90E084559D4FFC01C9
:1025D00027E0922E9F01281B390B722C01C0770C2B
:1025E0002A95EAF78A01812CD801AD908D01A720A8
:1025F000292D28192770622E022E000C330BBA2DBC
:1026000001C0BB0F6A94EAF76B2E31952195310911
:102610002770332701C0A6942A95EAF76A28A0807C
:102620006A286082839428E08212DECF9A943196E1
:102630003FEF9312CFCF8CE891E0ABA5BCA58A17F2
:102640009B0709F0B4CF04E610E020E230E04CEA4A
:1026500052E086CF8091D202882319F10E9491190D
:102660000091CE021091CF022091D0023091D10280
:10267000DC01CB01801B910BA20BB30B8F3F9F4F53
:10268000AF4FBF4770F48091D302882351F062E0CE
:1026900070E08EEE92E00E94711E892B11F4109270
:1026A000D202B1100E94DD060E94D1069091D402A0
:1026B000891709F481CC0E94D1068093D4027CCC86
:1026C00080E189BD82E189BD09B400FEFDCF809122
:1026D000D8008F7D8093D8008091E0008260809345
:1026E000E0008091E00081FDFCCF66CC8F929F924C
:1026F000AF92BF92CF92DF92EF92FF920F931F9310
:10270000CF93DF93CDB7DEB72A970FB6F894DEBF2D
:102710000FBECDBFFC010081D18083819481892BC4
:1027200039F01FEFD11206C091E00F3F19F403C03A
:1027300091E001C090E090FD41C57F0185E0DE01A0
:10274000169601900D928A95E1F7F70122818E810C
:102750009F81222349F00E94A71A182F682F8E818B
:102760009F810E94201B03C00E94F41A182F28E3A7
:10277000129FF001112437E0D39EE00DF11D1124CA
:10278000E00FF11DEE0FFF1FE051FD4F0591149179
:10279000043F8CE5180759F190F4093DECE51E075C
:1027A000E9F00A3DFCE51F07A1F1083D2CE5120701
:1027B000B1F506E221EE41EE68ED7CE514C0063F7E
:1027C0003CE5130701F1C8F0073F9CE5190739F50F
:1027D00007E225EE46EE67EF7CE505C007E225EE51
:1027E00045EE69ED7CE5C7010E946A0B75C406E2FF
:1027F00021EE40EE64EF7CE5F6CF07E225EE44EEF5
:1028000065EF7CE5F0CF06E221EE42EE66EF7CE577
:10281000EACF08E221E045EE6AED7CE5E4CFF7017E
:102820009281992309F43FC11092DE020230FCE547
:102830001F0708F422C106312CE5120738F0980171
:102840002B5F3C452930310508F017C10E94F9196A
:102850009093A00280939F0200313CE5130709F496
:10286000C3C008F041C008309CE5190709F49AC0BC
:10287000F0F40430FCE51F0709F487C068F4023067
:102880003CE5130709F477C003301C4509F0E5C0A7
:1028900080919F02826076C006309CE5190709F49A
:1028A0006EC008F07BC080919F0288606BC00C30C6
:1028B000FCE51F0709F485C068F40A303CE51307FE
:1028C00009F474C008F079C00E94632380919F02CC
:1028D000806858C00E309CE5190709F476C008F0EE
:1028E0007FC080919F028BC00C3FFCE51F0709F45D
:1028F0004FC018F503313CE5130709F47DC078F4A7
:1029000001319CE5190709F473C002311C4509F037
:10291000A4C00E94632380919F028F7733C005314A
:10292000FCE51F0709F472C008F486C00B3F1C4584
:1029300009F093C08091A0023EC001158DE51807F3
:1029400009F45FC058F40E3FECE51E0709F444C0DB
:1029500008F43FC08091A00282602DC002302DE5B6
:10296000120709F475C008F45DC003301D4509F075
:1029700074C060E06EC080919F02816003C080914E
:102980009F02806180939F0268C080919F0211C066
:102990008091A00282608093A0025FC080919F021C
:1029A0008062F0CF80919F028064ECCF80919F0283
:1029B00088608460E7CF8160EECF80919F028E7F38
:1029C000E1CF80919F028D7FDDCF80919F02877F35
:1029D000D9CF8091A00218C08091A0028D7FDBCF5B
:1029E00080919F028F7ECECF80919F028F7DCACF34
:1029F00080919F028F7BC6CF80919F02877F8B7FC4
:102A0000C1CF8091A0028D7F8E7FC5CF80919F0224
:102A100082FB222720F991E0922790FB82F990FB1C
:102A200083F9B0CF8091A002982F909591708E7FFE
:102A3000892B90FB81F9AFCF0E94632380919F0285
:102A400087FB222720F991E0922790FB87F99ACF04
:102A500061E08EE090E00E94272860919F02109133
:102A6000A00284E090E00E942728612F81E290E09C
:102A70000E9427280E9463232FC306312CE51207EA
:102A800019F5809146038A7A91E009F490E09093D9
:102A9000DF02882311F065E301C069E280EE92E075
:102AA0000E94DF190EC00631FCE51F0799F58091E1
:102AB000DF02882309F42FC365E380EE92E00E94D1
:102AC000D2190E947A1A08C301152CE5120731F0B9
:102AD0000F3D1C4549F50E940A1AFEC20E9463235D
:102AE0008FEF94E3ECE081509040E040E1F700C0CC
:102AF000000087E797E790930108809300089AE029
:102B000088E10FB6F894A895809360000FBE90936B
:102B10006000FFCF809146038272F801E35CFC45C0
:102B2000E431F10508F4F9C2F7010081118199231C
:102B300049F0C8010E94A71AD82E682FC8010E9428
:102B4000201B04C0C8010E94F41AD82EB8018D2D94
:102B50000E94D1098C01982EF701A580A2942FE044
:102B6000A222D280D1101092450380914303877036
:102B700099F0DD2089F0812F807F803421F080E280
:102B8000800F883048F082E00E947A1B80914303D6
:102B90008770CC24C3948111C12CB12EB2949FE0D4
:102BA000B9228B2D90E08C30910508F035C2FC01E4
:102BB000EA5AFF4F0C948F28812F807F1F70882343
:102BC00011F01295107FDD20B9F0112309F40FC226
:102BD00080E2800F883010F0911006C0809146038B
:102BE000182B1093460305C080914503182B1093B2
:102BF00045030E947A1AFBC1802F0E948323112370
:102C000009F40AC2005E1095083010F0911006C059
:102C10008091460318231093460305C08091450315
:102C20001823109345030E947A1AF6C1812F807FE2
:102C30001F70803211F01295107F992021F0F1E081
:102C40009F16E1F02AC0DD2081F080914703AA2081
:102C500051F001E0A01207C0182B181709F4DCC1CD
:102C600010934703D9C1812B10C0AA2021F021E085
:102C7000A21609F4D1C10E94741A27C0DD2041F0C8
:102C800035E03A1508F4C8C1812F0E947923C4C1E8
:102C900084E08A1508F4C0C118C0DD2049F0AA20DC
:102CA00099F3F701858180FFA2C18F708583ECCFF6
:102CB000AA2059F0093309F0ACC1FFEF17EE23E069
:102CC000F15010402040E1F7A2C1812F0E946E23F5
:102CD000A3C1812F86958695837019F0813059F0B4
:102CE0009BC1DD2019F0C801937002C080E090E024
:102CF0000E94BB0697C1DD2019F0C801937002C085
:102D000080E090E00E94A5068DC1812F837009F0BC
:102D100069C0D11085C1902F929596959770990FA3
:102D2000990F802F8F70882E912CA12CB12C092EF9
:102D300004C0880C991CAA1CBB1C0A94D2F704FF7F
:102D400012C04FE050E060E070E004C0440F551F37
:102D5000661F771F9A95D2F7DB01CA01809590957F
:102D6000A095B09503C080E090E0DC011695169523
:102D7000412F4370423019F1C8F40091480310917B
:102D8000490320914A0330914B03413059F088297F
:102D90009929AA29BB29BC01CD0160237123822373
:102DA00093230AC0802A912AA22AB32ABC01CD010A
:102DB000682979298A299B290E94B41B31C1882955
:102DC0009929AA29BB290091480310914903209110
:102DD0004A0330914B03BC01CD0160277127822744
:102DE0009327EACFDD2019F0812F817001C08695ED
:102DF000882309F415C1902F929596959770990F95
:102E0000990F802F8F70882E912CA12CB12C092E18
:102E100004C0880C991CAA1CBB1C0A94D2F704FF9E
:102E200012C04FE050E060E070E004C0440F551F56
:102E3000661F771F9A95D2F7DB01CA01809590959E
:102E4000A095B09503C080E090E0DC011695169542
:102E5000412F43704230D9F068F50091A3021091E0
:102E6000A4022091A5023091A602413059F0882990
:102E70009929AA29BB29BC01CD0160237123822392
:102E800093231EC0802A912AA22AB32A13C088291C
:102E90009929AA29BB290091A3021091A40220918B
:102EA000A5023091A602BC01CD01602771278227BF
:102EB000932706C0BC01CD01682979298A299B295D
:102EC0000E944B1BADC01F70DD2039F0812F0E9486
:102ED000931B802F0E947923A3C0802F0E946E2312
:102EE000812F0E94551B9CC0802F32EF931609F44E
:102EF00040C0391538F090EF991661F0E1EF9E1659
:102F000099F170C0F3EF9F16D9F124EF921609F4EE
:102F10004EC068C0DD2019F134E03A1508F47CC0D9
:102F20001F7181E090E0A0E0B0E0AC01BD0104C001
:102F3000440F551F661F771F1A95D2F78091A30281
:102F40009091A402A091A502B091A6028A019B01D2
:102F5000082719272A273B27C901B80125C025E0E2
:102F60002A1508F459C0DCCFDD2029F0812F8F719C
:102F70002CC0DD20D9F3812F8F710E94551B4CC0CE
:102F8000DD2079F01F7181E090E0A0E0B0E0BC01AD
:102F9000CD0104C0660F771F881F991F1A95D2F7BD
:102FA00003C060E070E0CB010E944B1B35C0DD2008
:102FB00079F01F71812F0E94931B38E0139FC0018D
:102FC0001124836080934303812F0E94931B24C0AC
:102FD00081E00E947A1B81E08A15F0F482E00E9471
:102FE0007A1B1AC0DD2039F0AA2009F4BFCF802F48
:102FF0000E94DF2311C0AA2009F4BDCF893349F410
:103000009FEFE7EEF3E09150E040F040E1F700C0C1
:103010000000802F0E94832388EF8B0D843010F4F2
:103020000E94D106CC20A9F08091430380FD11C0FD
:10303000F70112828595859585950E94931BC7019E
:103040000E947613809143038595859585950E940E
:10305000551B85E0F701DE01119601900D928A95CE
:10306000E1F789819A810E94F41A9A8108E3809F8E
:10307000F001112417E0919FE00DF11D11248981C9
:10308000E80FF11DEE0FFF1FE051FD4F8591949168
:1030900095C08091A70280FF44C08E7F8093A702D5
:1030A0006091A7027091A8028091A9029091AA0252
:1030B0000E946B080E943907809199028160809379
:1030C00099029FEFE0E7F2E09150E040F040E1F735
:1030D00000C000000E94400780914303877009F4FC
:1030E0006DC0F7018281882309F468C082E02A96C6
:1030F0000FB6F894DEBF0FBECDBFDF91CF911F9109
:103100000F91FF90EF90DF90CF90BF90AF909F9086
:103110008F900C947A1B69E2D0CCEE59FF4F0C943F
:103120008F2881608093A70261E0869544C04FE3B9
:103130005CE068E47CE02CC048E45CE06FE37CE0A9
:1031400027C041E559E06AE579E022C04AE559E047
:1031500061E579E01DC049E359E065E479E018C014
:1031600045E459E069E379E013C041E259E06DE2DA
:1031700079E00EC04DE259E061E279E009C043E632
:1031800059E064E779E004C044E759E063E679E098
:103190000E943307A1CF61E081E00DC064E082E0CE
:1031A00005C06AE085E002C064E18BE00E94520C39
:1031B00093CF61E085E10E94FF0B8ECF2A960FB678
:1031C000F894DEBF0FBECDBFDF91CF911F910F915D
:1031D000FF90EF90DF90CF90BF90AF909F908F9037
:1031E00008950895809152030895CF93DF9300D0FE
:1031F0001F92CDB7DEB790915D03943019F58983A6
:103200007B836A8382E08093E9008FEF9091E800EE
:10321000815095FD06C095ED9A95F1F7000081115A
:10322000F5CF8091E80085FF0DC040E050E063E0FD
:1032300070E0CE0101960E949A1E8091E8008E7780
:103240008093E8000F900F900F90DF91CF91089539
:10325000BC0184E00C94F518BC0183E00C94F518D3
:10326000CF93DF9321E02093E9002FEF3091E80026
:10327000215035FD06C035ED3A95F1F700002111DA
:10328000F5CF2091E80025FF14C0EC0140E050E0AC
:1032900068E070E00E949A1E8091E8008E7780932B
:1032A000E80088E0FE01A3E5B3E001900D928A9565
:1032B000E1F7DF91CF91089578941F920F920FB6A6
:1032C0000F9211248F939F93AF93BF9380914C03E0
:1032D00090914D03A0914E03B0914F030196A11D13
:1032E000B11D80934C0390934D03A0934E03B09374
:1032F0004F03BF91AF919F918F910F900FBE0F9091
:103300001F9018959C014FB7F89480914C039091B1
:103310004D03A0914E03B0914F034FBF821B930BFF
:1033200008952FB7F89460914C0370914D038091EC
:103330004E0390914F032FBF08952FB7F8948091BB
:103340004C0390914D03A0914E03B0914F032FBFBA
:1033500008951F920F920FB60F9211248F939F938F
:10336000AF93BF9380918502811113C080914C036C
:1033700090914D03A0914E03B0914F034196A11D32
:10338000B11D80934C0390934D03A0934E03B093D3
:103390004F03BF91AF919F918F910F900FBE0F90F0
:1033A0001F9018959C012A5F3F4FFC0142814613F4
:1033B00001C01282019682179307B9F708959C0104
:1033C000FC0132969FEF80E04191461789F09F3FC4
:1033D00019F4411101C0982F8F5F8630A9F79F3FE4
:1033E00039F0F901E90FF11D97FDFA95628308950F
:1033F0000895CF9384E090E00E941328C82F81E2C3
:1034000090E00E9413282C2F30E0A901582BCA010C
:10341000CF9108956CEE7EEF80E090E00E94452809
:1034200060E082E090E00E94272860E083E090E086
:103430000E942728109248031092490310924A03D1
:1034400010924B0360E084E090E00E94272860E047
:1034500081E290E00E94272860E085E090E00E94F1
:10346000272860E086E090E00E9427286FEF87E041
:1034700090E00E94272840E050E0BA0188E090E008
:103480000E94392860E08DE090E00E94272840E00B
:1034900050E0BA0188E190E00E94392860E087E1BD
:1034A00090E00E94272840E050E0BA018CE190E0D3
:1034B0000E94392860E080E290E00E94272840E0E6
:1034C00050E0BA0188E190E00E94392840E050E0E5
:1034D000BA018FE090E00E94392840E050E0BA0144
:1034E00083E190E00C943928809147038111109278
:1034F000470308959091460380914503892B2091BD
:103500004403982F922B9093E002809147038823E5
:1035100089F0892B8093E002E2EEF2E097E080E010
:10352000915029F021912223D9F38F5FF9CF811196
:103530000E94741AE091A102F091A202309731F03A
:103540000280F381E02D80EE92E009940895BF920D
:10355000CF92DF92EF92FF920F931F93CF93DF935F
:103560008C01C090A302D090A402E090A502F0903C
:10357000A6028091480390914903A0914A03B0911B
:103580004B03C82AD92AEA2AFB2ACFE1D0E0D70187
:10359000C6010C2E04C0B695A795979587950A94F9
:1035A000D2F780FD04C0219790F7B12C07C0BC2E44
:1035B000B8018C2F0E94D1090197A9F38B2DDF91BF
:1035C000CF911F910F91FF90EF90DF90CF90BF9020
:1035D0000895CF93DF93EC010E94A71ABE010E94C9
:1035E000D109DF91CF91089527E0929F800D11249A
:1035F000682F669566956695982F977085E0689F09
:10360000B001112440E050E080E0FB01E40FF51F21
:10361000E05EFC4F208130E0092E02C036952795F0
:103620000A94E2F721703327042E01C0220F0A9476
:10363000EAF7822B4F5F5F4F4530510531F7089510
:1036400027E0929F800D1124E82FE695E695E695F8
:10365000877051E001C0550F8A95EAF785E0E89F31
:10366000F0011124E05EFC4F20E030E070E040818A
:10367000CB01022E02C0969587950A94E2F78170DD
:10368000819584278523842781932F5F3F4F2530A1
:10369000310569F708956093A3027093A4028093A3
:1036A000A5029093A6020C9455230F931F9341E01B
:1036B00050E060E070E004C0440F551F661F771FA4
:1036C0008A95D2F740955095609570958091A302A8
:1036D0009091A402A091A502B091A6028A019B013B
:1036E000082319232A233B23C901B8011F910F91F5
:1036F0000C944B1B209143038095822380934303BA
:10370000982F977079F430E0482F082E000C550B55
:103710002417350739F08595859585950E94551BA9
:103720001092430308950F931F9341E050E060E02F
:1037300070E004C0440F551F661F771F8A95D2F7AB
:103740008091A3029091A402A091A502B091A6023B
:103750008A019B01082B192B2A2B3B2BC901B8018D
:103760001F910F910C944B1B609348037093490376
:1037700080934A0390934B030C94552380911F032D
:103780009091EE02891719F08F5F8770FBCF089533
:103790000F931F93CF93DF938091ED0282958F70EB
:1037A00009F05DC08091EA02882309F458C0809135
:1037B0001F031091EE026091E8027091E902C0913E
:1037C000EB02D091EC0291E06F3F09F090E0292FDD
:1037D00006E0811709F443C0209721F07F3F21F0D4
:1037E00030E003C031E001C0322F90E030FD34C042
:1037F000089FF001099FF00D1124DF01A151BD4F79
:1038000011963C911197371327C03C91361324C071
:1038100012963C91129731111FC013964D915C91F5
:1038200014974C1B5D0B483C5105B0F48091ED02A0
:103830008F7080618093ED02EC50FD4F80818F701E
:103840008061808388EE92E00E947613DF91CF91B1
:103850001F910F910C94BE1B01968770BACFDF9118
:10386000CF911F910F9108959F92AF92BF92CF92E7
:10387000DF92EF92FF920F931F93CF93DF93CDB719
:10388000DEB761970FB6F894DEBF0FBECDBF8C01D7
:1038900085E0F801DE011D9601900D928A95E1F711
:1038A000F80190818181E2803091E8026091E90223
:1038B0004091EB025091EC024115510531F06F3F00
:1038C00031F421E03F3F19F403C021E001C020E0C2
:1038D000F22FF1709F2E20FD23C1F801C380D48008
:1038E00028EEA22E22E0B22EF090EA02F601E41BAE
:1038F000F50BFF2009F4CEC02091ED02E83CF10564
:1039000008F099C0422F407F09F051C0681311C0E0
:1039100039130FC0FE2CE1100CC02F7020612093D2
:10392000ED02C5010E9476138091ED02F8018583B6
:1039300037C1CD2831F08F3F31F421E09F3F19F49A
:1039400003C021E001C020E020FD03C021E02E25BE
:1039500002C020E030E0F22FF170FF2E20FF1DC0EA
:1039600020911F034091EE0256E0241709F4F6C09F
:1039700030E0529FF001539FF00D1124E151FD4FB3
:103980006181861306C06081961303C06281E612CE
:1039900004C02F5F3F4F2770E8CFFE2CEE2009F4C4
:1039A000FFC08091ED0281608093ED0250C06813EA
:1039B00007C0391305C0E11003C0F80125838DC08D
:1039C0009D878E878D859E850E942C23882369F193
:1039D000EE2059F12091ED02822F82958F7090E0B8
:1039E000029774F08091E8029091E90298878F83A2
:1039F0001986DB86CA862C87CE0107960E9476132D
:103A000086E0F801A8EEB2E001900D928A95E1F708
:103A10000E94C81B0DC06817E1F09D878E878D85B9
:103A20009E850E942C2381111EC0C8010E9476131E
:103A3000FF24F394B5C0422F407F69F788EE92E0EF
:103A40000E94761386E0F50111928A95E9F7F12C30
:103A5000A7C03913E2CFE110E0CFF8012583C801F8
:103A60000E94761357C0EE2001F32091ED02822FC1
:103A700082958F7090E002971CF28091E8029091FD
:103A8000E9029A8389831B82DD82CC822E83CE0158
:103A90000196B4CFE83CF105E8F5FE2CEE2029F2C2
:103AA000681327C0391325C02091ED0220FD18C0EE
:103AB000822F82958F70482F50E04115510581F07B
:103AC000F80125834F30510541F08F5F982F929573
:103AD000907F822F8F70892B8583C8010E94761377
:103AE00086E0F801A8EEB2E001900D928A95E1F728
:103AF00057C09D878E878D859E850E942C238111BE
:103B00007FCF8091ED0281608093ED02C8010E9419
:103B1000761346C086E0F50111928A95E9F740C018
:103B2000EE2009F482CF9D878E878D859E850E9429
:103B30002C23F82E882309F478CF86E0F801A8EE2C
:103B4000B2E001900D928A95E1F78091E8029091A0
:103B5000E9020E94E91A0E94C81B22C09D878E8735
:103B60008D859E850E94E91A292F22952F7022307B
:103B700028F49F7039F0811105C00BC0243028F45F
:103B80009F7049F4805E883020F0C8010E9476134F
:103B90009F2CF92C05C0F8019581907F99F7F9CFFA
:103BA0008F2D61960FB6F894DEBF0FBECDBFDF91AB
:103BB000CF911F910F91FF90EF90DF90CF90BF902A
:103BC000AF909F900895CF93DF938A3011F481E0F6
:103BD00003C08D3029F480E0DF91CF910C9403076E
:103BE000682F809170059091710526E0FC01AAE68E
:103BF000B5E001900D922A95E1F7603E30F026E0A5
:103C0000FC0111922A95E9F70AC0F6E06F9FB00116
:103C10001124635A7B4F46E050E00E940A28C0916D
:103C20007005D091710546E050E0BE018AE695E04E
:103C30000E94A228892B49F19E012A563340A901EE
:103C400085E0569547958A95E1F781E090E0BC01C3
:103C500002C0660F771F4A95E2F7409168035091C2
:103C60006903462B572B2B5F3F4F65E03695279511
:103C70006A95E1F702C0880F991F2A95E2F7842B15
:103C8000952B90936903809368039E0124563340DB
:103C900040916703642F70E0C9010E946728481BA8
:103CA000463010F4240F311D211582E0380710F042
:103CB00020E030E026593C4F309371052093700589
:103CC000DF91CF910895CF93DF93EC01FE018491B2
:103CD000882321F00E94E31D2196F8CFDF91CF9138
:103CE0000895EF92FF920F931F93CF93DF93EC0110
:103CF0007B0164E670E088E70E9466258C01EC0E8B
:103D0000FD1ECE15DF0561F017FD0AC0FE0184918E
:103D100064E670E00E94BD258C012196892B89F311
:103D20000E944126C801DF91CF911F910F91FF9012
:103D3000EF900895EF92FF920F931F93CF93DF932D
:103D40007C018B010E947B24811119C0E7010115C0
:103D50001105A1F08091E80085FD0AC08091E8007E
:103D60008E778093E8000E947B24882381F307C02C
:103D700089918093F10001501109E9CF80E0DF9132
:103D8000CF911F910F91FF90EF9008951F93CF93C4
:103D9000DF93CDB7DEB7AA970FB6F894DEBF0FBE9C
:103DA000CDBFEFE5F3E08091F100819323E0E736AA
:103DB000F207C9F780916003833009F460C030F4E2
:103DC000813071F0823009F49AC0B1C08A3009F4B0
:103DD00086C08B3009F46BC0893009F0A8C020C0C0
:103DE00080915F03813A09F0A2C08091E800877F4B
:103DF0008093E8008091630390916403892B21F400
:103E000068E083E593E003C060E080E090E070E06C
:103E10000E9402258091E8008B778093E80087C09C
:103E200080915F03813209F082C080916303909199
:103E30006403029708F07BC08091E800877F80933D
:103E4000E8008091E80082FD05C080915D0381114A
:103E5000F8CF6DC02091F3008091F20090E0922B9A
:103E6000029729F48091F1008B7F813021F48091B9
:103E7000F100809352038091E8008B7754C08091C9
:103E80005F03813A09F053C080916303909164030A
:103E9000892B09F04CC08091E800877F8093E8006F
:103EA0008091E80080FFFCCF8091320137C0809183
:103EB0005F038132E1F58091630390916403892B64
:103EC000B1F58091E800877F8093E8000E94AE24DE
:103ED00080916103809332010E94632328C0809106
:103EE0005F03813221F58091E800877F8093E800AD
:103EF0000E94AE24809162038093510318C0809188
:103F00005F03813AA1F48091E800877F8093E80005
:103F10008091E80080FFFCCF809151038093F100F5
:103F20008091E8008E778093E8000E94AE24809113
:103F3000E80083FFCCC180915F0390916003492F1B
:103F400050E04A30510508F0C2C1FA01EA58FF4F6B
:103F50000C948F28803821F0823809F0B8C108C04D
:103F600080915B0390915C03992389F082600FC07C
:103F7000809163038F70873008F0A9C18093E900B6
:103F80008091EB0085FB882780F91092E9009091E1
:103F9000E800977F9093E8008093F1001092F10081
:103FA00065C1282F2D7F09F092C1882319F0823036
:103FB00061F08DC180916103813009F088C1933037
:103FC00009F080E080935C032EC080916103811131
:103FD0002AC0809163038F702FEF280F263008F0DE
:103FE00076C18093E9002091EB0020FF1CC0933044
:103FF00021F48091EB00806214C09091EB009061FD
:104000009093EB0021E030E0A90102C0440F551F5E
:104010008A95E2F74093EA001092EA008091EB0063
:1040200088608093EB001092E9008091E800877F20
:1040300020C181114CC1109161031F778091E30071
:104040008078812B8093E3008091E800877F8093C4
:10405000E8000E94AE248091E80080FFFCCF8091B0
:10406000E30080688093E300111102C082E001C088
:1040700083E080935D032BC18058823008F027C114
:1040800080916103909162038C3D53E0950779F52F
:1040900083E08A838AE289834FB7F894DE0113961E
:1040A00020E03EE051E2E32FF0E050935700E4912E
:1040B00020FF03C0E295EF703F5FEF708E2F90E01E
:1040C000EA3010F0C79601C0C0968D939D932F5F84
:1040D000243149F74FBF8091E800877F8093E80043
:1040E0006AE270E0CE0101960E940225AEC04091C6
:1040F000630350916403292F332723303105A9F03E
:1041000068F42130310509F4F1C02230310509F09D
:10411000DEC08BE390E0E2EDF3E044C021323105F4
:1041200021F12232310571F1D2C0992781309105F8
:10413000A1F058F0029709F0CAC0EFE1F4E0E49171
:104140008E2F90E0EFE1F4E02AC0E9E5F4E0E4919D
:104150008E2F90E0E9E5F4E022C0E3E4F4E0E4919E
:104160008E2F90E0E3E4F4E01AC04115510509F404
:10417000C2C04130510509F0AAC089E090E0EDEFDE
:10418000F3E010C04115510509F4BAC041305105A2
:1041900009F09DC082E390E0E0E6F3E003C0009701
:1041A00009F495C02091E800277F2093E800209132
:1041B0006503309166038217930708F49C0140E081
:1041C0002115310589F180915D03882309F43DC0F3
:1041D0008530D9F18091E80083FD37C08091E800F7
:1041E00082FD2FC08091E80080FFEACF4091F3006C
:1041F0008091F20090E0942B2115310559F0883020
:10420000910540F444914093F100319621503109D9
:104210000196F2CF41E0089709F040E08091E80074
:104220008E778093E800CCCF4111CDCF0AC080912A
:104230005D03882351F0853041F08091E80083FDD3
:1042400004C08091E80082FFF2CF8091E8008B7774
:104250008093E8003CC08038D1F58091E800877FEA
:104260008093E80080915E038093F1008091E800E4
:104270008E778093E8000E94AE2429C0811127C068
:1042800080916103909162039927029704F58091D0
:10429000E800877F8093E8001091610310935E032C
:1042A0000E94AE24111106C08091E30087FD02C078
:1042B00081E001C084E080935D0342E061EC81E035
:1042C0000E94CD2442E261EC82E00E94CD248091E4
:1042D000E80083FF1AC08091E800877F8093E800A0
:1042E0008091EB0080628093EB000FC082E190E050
:1042F000EDE0F4E057CF89E090E0E4EEF3E052CF58
:1043000080E490E0E2E9F3E04DCFAA960FB6F8948E
:10431000DEBF0FBECDBFDF91CF911F9108951F92D9
:104320000F920FB60F9211242F933F934F935F93E9
:104330006F937F938F939F93AF93BF93CF93DF93AD
:10434000EF93FF93C091E900CF708091EC00D82FDC
:10435000D17080FDD0E81092E9008091F000877F55
:104360008093F00078940E94C61E1092E90080911C
:10437000F00088608093F000CD2BCF70C093E900EF
:10438000FF91EF91DF91CF91BF91AF919F918F916D
:104390007F916F915F914F913F912F910F900FBE41
:1043A0000F901F901895E8EDF0E080818E7F80835C
:1043B0001092E2001092DA001092E100A0EEB0E05C
:1043C0008C9181608C9380818F77808319BCA7ED5D
:1043D000B0E08C918E7F8C9380818F7E8083109251
:1043E00050030895CF92DF92EF92FF920F931F93A5
:1043F000CF93DF93C8EDD0E088818F7E8883E7ED8F
:10440000F0E080818160808384E082BF81E08093DE
:10441000500388818E7F888302EE10E0F8011082BD
:104420001092DA0081EEC82ED12CF601108288811C
:104430008F77888388818068888388818F7D88834F
:1044400019BC10925D0310925E0310925C031092EF
:104450005B0390EEE92EF12CF70180818B7F808346
:1044600088818160888342E060E080E00E94CD2402
:10447000F60180818E7F8083F80180818160808356
:10448000808188608083F70180818E7F808388812E
:1044900080618883DF91CF911F910F91FF90EF9002
:1044A000DF90CF9008951F920F920FB60F921124B4
:1044B0002F933F934F935F936F937F938F939F932C
:1044C000AF93BF93EF93FF938091E10082FF09C008
:1044D0008091E20082FF05C08091E1008B7F809394
:1044E000E1008091DA0080FF2AC08091D80080FF2F
:1044F00026C08091DA008E7F8093DA008091D90007
:1045000080FF18C080E189BD82E189BD09B400FE49
:10451000FDCF81E080935D038091500381110FC036
:104520000E94D3210E94F2218091E2008460809356
:10453000E20005C019BC10925D03109250038091F7
:10454000E10080FF17C08091E20080FF13C08091DE
:10455000E2008E7F8093E2008091E2008061809390
:10456000E2008091D80080628093D80019BC85E079
:1045700080935D038091E10084FF32C08091E2006E
:1045800084FF2EC080E189BD82E189BD09B400FEAF
:10459000FDCF8091D8008F7D8093D8008091E1007D
:1045A0008F7E8093E1008091E2008F7E8093E20015
:1045B0008091E20081608093E20080915E03882315
:1045C00011F084E007C08091E30087FD02C081E024
:1045D00001C083E080935D030E9463230E94D106A3
:1045E0008091E10083FF27C08091E20083FF23C018
:1045F0008091E100877F8093E10082E080935D03FA
:1046000010925E038091E1008E7F8093E1008091A3
:10461000E2008E7F8093E2008091E20080618093CF
:10462000E20042E060E080E00E94CD248091F00052
:1046300088608093F000FF91EF91BF91AF919F91BF
:104640008F917F916F915F914F913F912F910F903B
:104650000FBE0F901F9018950E94E91A292F2F70F6
:10466000E92FE295EF704E2F50E0FA013297EE30CD
:10467000F105B8F4E058FF4F0C948F28803F99F073
:1046800018F4883E70F40FC0843F59F40CC0883E83
:1046900050F0813F31F407C0822F8695869586952C
:1046A000089580E0089581E00895109245031092E6
:1046B00044030E947A1A80E090E00E94BB0680E0EA
:1046C00090E00C94A5061092460386E0E2EEF2E03C
:1046D000DF011D928A95E9F70C945523882341F058
:1046E0008095909146038923809346030C947A1A0F
:1046F0000895882339F090914603892B80934603CF
:104700000C947A1A0895882309F458C0682F8238C7
:1047100069F40E94D10681FF51C069E380EE92E006
:104720000E94DF190E947A1A69E30EC0833891F45F
:104730000E94D10680FF42C063E580EE92E00E94B5
:10474000DF190E947A1A63E580EE92E00E94D21986
:104750000C947A1A843869F40E94D10682FF2EC024
:1047600067E480EE92E00E94DF190E947A1A67E403
:10477000EBCF8CEF860F813A38F380E2860F8830DA
:1047800070F4677081E090E001C0880F6A95EAF7E5
:10479000809590914603892380934603D9CF8BE57A
:1047A000860F833020F480E090E00C94BB06685ABA
:1047B000673120F480E090E00C94A5060895CF9333
:1047C000882309F496C0C82F8238B1F40E94D1061C
:1047D00081FD8FC069E380EE92E00E94DF190E94A4
:1047E0007A1A2FEF81EE94E0215080409040E1F75B
:1047F00000C0000069E317C08338E1F40E94D106CD
:1048000080FD77C063E580EE92E00E94DF190E9490
:104810007A1A2FEF81EE94E0215080409040E1F72A
:1048200000C0000063E580EE92E00E94D219CF91B3
:104830000C947A1A8438B1F40E94D10682FD59C0D2
:1048400067E480EE92E00E94DF190E947A1A2FEF4F
:1048500081EE94E0215080409040E1F700C00000DC
:1048600067E4E1CF8CEF8C0F813A80F4E2EEF2E066
:1048700088EE92E02191C217A1F18E179F07D1F720
:104880006C2F80EE92E00E94DF19D1CF80E28C0F76
:10489000883068F4C77081E090E001C0880FCA9545
:1048A000EAF790914603892B80934603C0CFEBE54E
:1048B000EC0FE33040F4F0E0E457FE4F808190E0ED
:1048C000CF910C94BB06C85AC73198F4EC2FF0E096
:1048D000EE0FFF1FE157FE4F80819181CF910C9425
:1048E000A5066C2F80EE92E00E94D2190E947A1ADF
:1048F000C7CFCF9108952091E4003091E50095E66F
:104900004091EC00842F817040FF23C08091E8002B
:1049100080FD1DC080915D03882399F0853099F05A
:104920008091EB0085FD11C04091E4005091E500BD
:104930002417350729F3915011F09A01E1CF84E053
:10494000089582E0089583E0089581E0089580E06D
:1049500008954091E80042FFDDCF089580915F0304
:1049600087FF11C08091E80082FD05C080915D0342
:104970008111F8CF11C08091E8008B770BC0809136
:104980005D03882349F08091E80080FFF8CF809193
:10499000E8008E778093E8000895982F973068F5A7
:1049A0009093E900981739F07091EC002091ED0098
:1049B0005091F00003C0242F762F50E021FD02C05B
:1049C0009F5FECCF3091EB003E7F3093EB00309156
:1049D000ED003D7F3093ED003091EB00316030937E
:1049E000EB007093EC002093ED005093F0002091C9
:1049F000EE0027FDE5CF80E008958F708093E900F9
:104A000081E00895209165033091660326173707EA
:104A100048F06115710539F42091E8002E77209354
:104A2000E80001C0B901FC0120E06115710579F1D0
:104A300080915D038823F1F18530F1F18091E800E8
:104A400083FD3CC08091E80082FD2EC08091E8008B
:104A500080FFEBCF2091F3008091F20090E0922B49
:104A60006115710551F08830910538F4219120933A
:104A7000F100615071090196F3CF21E0089709F028
:104A800020E08091E8008E778093E800CECF21115E
:104A9000CFCF0AC080915D03882361F0853061F03B
:104AA0008091E80083FD0AC08091E80082FFF2CF88
:104AB00080E0089582E0089583E0089581E00895FC
:104AC0001092B9008CE08093B8000895EF92FF92A5
:104AD0000F931F93CF93DF93182FEB011092BC001D
:104AE00084EA8093BC000E949D197C018091BC00E7
:104AF00087FD0EC0CF3F8FEFD807C1F30E949D19ED
:104B00008E199F098C179D0788F38EEF9FEF2EC09B
:104B10008091B900887F883041F08091B900887F0A
:104B2000803119F08FEF9FEF21C01093BB0084E814
:104B30008093BC000E949D198C018091BC0087FD70
:104B40000CC0CF3F8FEFD807C1F30E949D19801B87
:104B5000910B8C179D0788F3D8CF8091B900887F7F
:104B6000883111F08034F1F680E090E0DF91CF9150
:104B70001F910F91FF90EF9008950F931F93CF9384
:104B8000DF93EB018093BB0084E88093BC000E941C
:104B90009D198C018091BC0087FD0EC0CF3F8FEF27
:104BA000D807C1F30E949D19801B910B8C179D079C
:104BB00088F38EEF9FEF0CC02091B900287F81E031
:104BC00090E0283211F480E090E091958195910970
:104BD000DF91CF911F910F910895CF92DF92EF92C5
:104BE000FF920F931F93CF93DF936B018A0179019B
:104BF000B9010E946625E6010C0D1D1DC017D107E5
:104C000061F424E92093BC00DF91CF911F910F91B3
:104C1000FF90EF90DF90CF90089597FDF2CFB7010E
:104C200089910E94BD25EACFCF92DF92EF92FF9249
:104C30000F931F93CF93DF93C62F6A017901B801B9
:104C40000E94662597FD11C0B8018C2F0E94BD25DA
:104C5000E601EC0CFD1CCE15DF0539F097FD05C013
:104C6000B80189910E94BD25F6CF24E92093BC00AC
:104C7000DF91CF911F910F91FF90EF90DF90CF9038
:104C8000089584E98093BC0008958EE14A9B02C098
:104C90008150E1F74A9BFECF08955A9880E28A95A9
:104CA000F1F75A9A0895FC012AE02A95F1F790E06D
:104CB00020E080E031E0261779F040E14A95F1F7F5
:104CC000880F4A9B02C08160932700C0000040E12A
:104CD0004A95F1F72F5FEFCF20E12A95F1F729B13F
:104CE00000C0000030E13A95F1F722FB222720F9BD
:104CF00092272081920F90830895EF92FF920F9355
:104D00001F93CF93DF931F92CDB7DEB719828C012B
:104D10007C01E60EF11C0E151F0559F00E94452678
:104D200068E0CE0101960E945326F80181938F011D
:104D3000F2CF81E09981911180E00F90DF91CF91C6
:104D40001F910F91FF90EF900895909374058093B9
:104D5000730560937205529A5A9A08959093740558
:104D6000809373056093720552985A9AEA9AE9E61D
:104D7000F0E080818F7C80830895615091E001C0D4
:104D8000990F6A95EAF720E031E0992361F0492F05
:104D9000482319F05A9A232701C05A9840E24A95AD
:104DA000F1F79695F2CF222311F05A9A01C05A9842
:104DB00080E28A95F1F75A980895FF920F931F9316
:104DC000CF93DF93EC018C01060F111DC017D107A3
:104DD00041F0F9900E944D2668E08F2D0E94BD267B
:104DE000F5CFDF91CF911F910F91FF9008951F9202
:104DF0000F920FB60F9211240F931F932F933F938F
:104E00004F935F936F937F938F939F93AF93BF93D2
:104E1000EF93FF93CF93DF931F92CDB7DEB7198245
:104E20000E94452667E0CE0101960E945326382F46
:104E3000369536953695932F96959570232F257038
:104E4000920F292F2370969596958770920F89134C
:104E500048C08981811145C080917205831708F48B
:104E600040C080E18A95F1F75A9A529AA2E0AA9539
:104E7000F1F700C00091730510917405B8E03B9FF5
:104E8000000D111D11245A98F8016581662321F047
:104E9000868197810E94DD260E944D26F0E1FA95D9
:104EA000F1F75A9852985A9A80E18A95F1F7D80109
:104EB00012966C911297662369F013968D919C91CE
:104EC00014970E947D26D801ED91FC91811105C0B7
:104ED00082E004C0D801ED91FC9188E080830E94BB
:104EE00045260F90DF91CF91FF91EF91BF91AF9148
:104EF0009F918F917F916F915F914F913F912F91F2
:104F00001F910F910F900FBE0F901F9018950F9348
:104F10001F93CF93DF932091720530E02817390754
:104F20000CF471C09C0193E0220F331F9A95E1F7B6
:104F3000C0917305D0917405C20FD31FF894529A93
:104F40005A9845E04A95F1F70000982F969595708C
:104F50008570890F982F937086958695890F8901A2
:104F6000082B0E944D2684E08A95F1F700C067E087
:104F7000802F0E94BD2640E14A95F1F752985A9A37
:104F80004A9902C000C0FCCF87E090E04A9B0EC067
:104F9000019751F4529A5A9AE881F98181E080830D
:104FA000789481E090E031C000C0F0CF6D8166233D
:104FB00081F08E819F810E947D2681110AC0529AC4
:104FC0005A9AE881F98182E08083789482E090E0C7
:104FD0001CC00E94452680E28A95F1F75A98529AA1
:104FE00040E14A95F1F76A81662321F08B819C812B
:104FF0000E94DD260E944D26E881F9811082789476
:1050000080E090E002C084E090E0DF91CF911F91BA
:105010000F910895FB01DC0102C005900D924150F3
:105020005040D8F70895F999FECF92BD81BDF89A06
:10503000992780B50895A6E1B0E044E050E00C94D3
:105040004D28A8E1B0E042E050E00C944D28262F16
:10505000F999FECF92BD81BDF89A019700B402166E
:1050600039F01FBA20BD0FB6F894FA9AF99A0FBE1C
:1050700008950396272F0E9428280E942728252F6D
:105080000E942828242F0C9428280196272F0E945C
:1050900028280C942728DC01CB01FC01F999FECFCC
:1050A00006C0F2BDE1BDF89A319600B40D924150B0
:1050B0005040B8F70895991B79E004C0991F9617DE
:1050C00008F0961B881F7A95C9F780950895AA1B4A
:1050D000BB1B51E107C0AA1FBB1FA617B70710F0E3
:1050E000A61BB70B881F991F5A95A9F78095909515
:1050F000BC01CD01089597FB072E16F4009407D04C
:1051000077FD09D00E94672807FC05D03EF49095F2
:1051100081959F4F0895709561957F4F0895EE0F8B
:10512000FF1F0590F491E02D0994FC01415050407F
:1051300030F001900616D1F73197CF0108958827F6
:1051400099270895FB01DC0104C08D91019080191D
:1051500021F441505040C8F7881B990B0895AEE0E8
:10516000B0E0E5EBF8E20C947E2B0D891E898F8967
:10517000988D26E02C831A83098397FF02C080E074
:1051800090E801979E838D83AE01455E5F4F698DE8
:105190007A8DCE0101960E94DF284D815E8157FDF8
:1051A0000AC02F813885421753070CF49A01F80181
:1051B000E20FF31F10822E96E4E00C949A2BABE0E2
:1051C000B0E0E5EEF8E20C94702B6C017B018A01F3
:1051D000FC0117821682838181FFCCC1CE0101962A
:1051E0003C01F6019381F70193FD859193FF819135
:1051F0007F01882309F4BAC1853239F493FD859182
:1052000093FF81917F01853229F4B60190E00E94DD
:10521000D62AE7CF912C212C312CFFE1F315D8F0C1
:105220008B3279F038F4803279F08332A1F4232D77
:1052300020611DC08D3261F0803369F4232D21601F
:1052400016C0832D8260382EE32DE4603E2E2AC0E6
:10525000F32DF8601DC037FC2DC020ED280F2A303B
:1052600040F08E32B9F436FC81C1232D2064322EF9
:1052700019C036FE06C08AE0989E200D1124922E99
:1052800011C0EAE02E9E200D1124222EF32DF06293
:105290003F2E08C08C3621F4832D8068382E02C042
:1052A000883641F4F70193FD859193FF81917F0149
:1052B0008111B3CF982F9F7D9554933028F40C5FC4
:1052C0001F4F9FE399830DC0833631F0833771F010
:1052D000833509F059C021C0F801808189830E5FB0
:1052E0001F4F88248394912C530113C02801F2E0AE
:1052F0004F0E511CF801A080B18036FE03C0692D0D
:1053000070E002C06FEF7FEFC5010E94CB2A4C0115
:105310008201F32DFF773F2E16C0280122E0420EB6
:10532000511CF801A080B18036FE03C0692D70E0E9
:1053300002C06FEF7FEFC5010E94C02A4C01F32D20
:10534000F0683F2E820133FC1BC0822D90E088164E
:105350009906B0F4B60180E290E00E94D62A2A9421
:10536000F4CFF50137FC859137FE81915F01B601DD
:1053700090E00E94D62A21102A9421E0821A9108F6
:105380008114910471F7E8C0843611F0893641F533
:10539000F80137FE07C060817181828193810C5FC3
:1053A0001F4F08C060817181072E000C880B990B7C
:1053B0000E5F1F4FF32DFF763F2E97FF09C090958C
:1053C0008095709561957F4F8F4F9F4FF0683F2E6E
:1053D0002AE030E0A3010E94122B882E861845C0D7
:1053E000853731F4232D2F7EB22E2AE030E025C000
:1053F000932D997FB92E8F36C1F018F4883579F046
:10540000B5C0803719F0883721F0B0C0E92FE061CE
:10541000BE2EB4FE0DC0FB2DF460BF2E09C034FEBD
:105420000AC0292F2660B22E06C028E030E005C051
:1054300020E130E002C020E132E0F801B7FE07C011
:1054400060817181828193810C5F1F4F06C06081F2
:10545000718180E090E00E5F1F4FA3010E94122B2C
:10546000882E8618FB2DFF773F2E36FE0DC0232D8C
:105470002E7FA22E891458F434FE0BC032FC09C0D2
:10548000832D8E7EA82E05C0B82CA32C03C0B82C6B
:1054900001C0B92CA4FE0FC0FE01E80DF11D8081F2
:1054A000803321F49A2D997EA92E09C0A2FE06C050
:1054B000B394B39404C08A2D867809F0B394A3FC06
:1054C00011C0A0FE06C0B21488F4280C922C9B18C0
:1054D0000EC0B21460F4B60180E290E00E94D62AB9
:1054E000B394F7CFB21418F42B1802C0982C212CC7
:1054F000A4FE10C0B60180E390E00E94D62AA2FE6E
:1055000017C0A1FC03C088E790E002C088E590E0E6
:10551000B6010CC08A2D867859F0A1FE02C08BE23C
:1055200001C080E2A7FC8DE2B60190E00E94D62A7D
:10553000891438F4B60180E390E00E94D62A9A9448
:10554000F7CF8A94F301E80DF11D8081B60190E058
:105550000E94D62A8110F5CF222009F442CEB6014E
:1055600080E290E00E94D62A2A94F6CFF601868146
:10557000978102C08FEF9FEF2B96E2E10C948C2B6A
:10558000FC010590615070400110D8F7809590950E
:105590008E0F9F1F0895FC01615070400190011013
:1055A000D8F7809590958E0F9F1F08950F931F93A6
:1055B000CF93DF93FB01238121FD03C08FEF9FEF8A
:1055C0002CC022FF16C046815781248135814217A5
:1055D000530744F4A081B1819D012F5F3F4F318378
:1055E00020838C93268137812F5F3F4F378326831B
:1055F00014C08B01EC01FB010084F185E02D0995BD
:10560000892BE1F6D80116968D919C9117970196FA
:1056100017969C938E931697CE01DF91CF911F9191
:105620000F910895FA01AA27283051F1203181F114
:10563000E8946F936E7F6E5F7F4F8F4F9F4FAF4F9A
:10564000B1E03ED0B4E03CD0670F781F891F9A1FAD
:10565000A11D680F791F8A1F911DA11D6A0F711D61
:10566000811D911DA11D20D009F468943F912AE06D
:10567000269F11243019305D3193DEF6CF01089555
:10568000462F4770405D4193B3E00FD0C9F7F6CF86
:10569000462F4F70405D4A3318F0495D31FD40524E
:1056A000419302D0A9F7EACFB4E0A69597958795E4
:1056B00077956795BA95C9F70097610571050895C3
:1056C0009B01AC010A2E069457954795379527956F
:1056D000BA95C9F7620F731F841F951FA01D089507
:1056E0002F923F924F925F926F927F928F929F92F2
:1056F000AF92BF92CF92DF92EF92FF920F931F93E0
:10570000CF93DF93CDB7DEB7CA1BDB0B0FB6F89490
:10571000DEBF0FBECDBF09942A88398848885F84D0
:105720006E847D848C849B84AA84B984C884DF8041
:10573000EE80FD800C811B81AA81B981CE0FD11D25
:105740000FB6F894DEBF0FBECDBFED010895F894FB
:02575000FFCF89
:10575200010B0C0D0E0F1011121314003200323215
:1057620076020076020571027002086802000000EB
:10577200010021007F220003F2183019F1182C19C0
:1057820028190100060106050606060001020202AA
:105792000505050505050B0B0B0B0B0B0B0B0B0B7B
:1057A20015204C4544202532643A2025642C25647A
:1057B2002C25642000946697C600000000F4F5F6DC
:1057C200F731333200FF0100010000FFFF0000014A
:1057D2000001FF000008101818100800818283E2FF
:1057E20000E900EA00B500B600B700CD008301CCA5
:1057F200008A019201940121022302240225022639
:0E5802000227022A02B300B4006F00700000FB
:00000001FF
