:100000000C943F050C9486050C9486050C946D2881
:100010000C9486050C9486050C9486050C94860534
:100020000C9486050C9486050C9491230C94CD2297
:100030000C94A51A0C9486050C9486050C948605E0
:100040000C9486050C9486050C9486050C94860504
:100050000C9486050C94261A0C9486050C9486053F
:100060000C9486050C9486050C9486050C948605E4
:100070000C9486050C9486050C9486050C948605D4
:100080000C9486050C9486050C9486050C948605C4
:100090000C9486050C9486050C9486050C948605B4
:1000A0000C9486050C9486050C948605A416A4165B
:1000B000DE16DE163117D418D418D4184D172B18A5
:1000C0003C183C1811195F19641969196E197319D4
:1000D00078197D19821987198C1993193419961971
:1000E00099193419341934199C19A119101C101CB0
:1000F000231C231C191C231C231C231C101C101C38
:100100001E1C231C231C1E1CE8200F21A5220F21CE
:10011000A52257217A21A52269227C220001010112
:1001200001010101010102020202020202020203B4
:100130000303030303030304040404040404050584
:100140000505050606060606070707070708080847
:1001500008090909090A0A0A0B0B0B0C0C0C0D0DF6
:100160000D0E0E0E0F0F0F1010111111121213138E
:100170001414151516161717181819191A1A1B1B07
:100180001C1D1D1E1E1F2020212222232424252663
:1001900026272829292A2B2C2D2D2E2F303132329B
:1001A000333435363738393A3B3C3D3E3F404142A7
:1001B000434445464748494A4C4D4E4F505153548D
:1001C000555658595A5B5D5E5F6162646566686941
:1001D0006B6C6D6F7072737577787A7B7D7E8082C1
:1001E000838587888A8C8E8F91939596989A9C9E0A
:1001F000A0A2A3A5A7A9ABADAFB1B3B5B7BABCBE1A
:10020000C0C2C4C6C9CBCDCFD1D4D6D8DBDDDFE2E6
:10021000E4E7E9EBEEF0F3F5F8FAFDFFFFAA7F550E
:100220004000AF00DA0281FFD9F1DB20A4A62EAF97
:1002300000A0C000A1C800AED580A81FD300408D8B
:100240001420000004643214783C1E20202020007A
:100250005343522000202020200043415020002002
:10026000202020004E554D20000A00556E64656622
:10027000696E65640041646A7573740A004C6F7737
:1002800065720A0052616973650A004465666175AA
:100290006C740A004C617965723A200020000A00F3
:1002A0000A00959600B5B600979800B7B80080810F
:1002B00082838485868788898A8B8C8D8E8F9091A6
:1002C000929394A0A1A2A3A4A5A6A7A8A9AAABAC07
:1002D000ADAEAFB0B1B2B3B4C0C1C2C3C4C5C6C77E
:1002E000C8C9CACBCCCDCECFD0D1D2D3D40000AEEA
:1002F000290014001A0008001500170000002B0048
:1003000004001600070009000A000000E2001D00BA
:100310001B000600190005000000E300E0003500A6
:100320002C00E1000151125000000000000000000C
:1003300000000000000000000000000000000000BD
:1003400000000000000000000000000000000000AD
:10035000000000000000000000000000000000009D
:100360001C0018000C00120013004C0000000B00D1
:100370000D000E000F0033002A00000011001000D5
:1003800036003700380028000000E300E0003500A8
:100390002C00E1000100000000000000000000004F
:1003A000000000000000000000000000000000004D
:1003B000000000000000000000000000000000003D
:1003C000000000000000000000000000000000002D
:1003D00040004100420043004400450000003A0054
:1003E0003B003C003D003E003F000000500052003A
:1003F00051004F00E200E30000004B004A004D00B6
:100400004E00E100E000105000000000000000007D
:1004100000000000000000000000000000000000DC
:1004200000000000000000000000000000000000CC
:1004300000000000000000000000000000000000BC
:1004400005010980A101850319012AB700150126BC
:10045000B700950175108100C0050C0901A1018547
:100460000419012AA002150126A002950175108128
:1004700000C005010906A101050719E029E71500DB
:10048000250195087501810295017508810105070F
:10049000190029FF150026FF009506750881000543
:1004A00008190129059505750191029501750391BA
:1004B00001C009023B00020100A0FA09040000018A
:1004C00003010100092111010001224000070581FB
:1004D0000308000A090401000103000000092111BA
:1004E0000100012232000705820320000A120110D8
:1004F0000100000008653204000100010200012231
:1005000003480065006C00690078002000720065F7
:1005100000760033002000340072006F0077007313
:100520000000001403790075007300680061006B1F
:10053000006F0062006F0000000403090400000067
:100540000000003E5B4F5B3E003E6B4F6B3E001C6D
:100550003E7C3E1C00183C7E3C18001C577D571CFE
:10056000001C5E7F5E1C0000183C180000FFE7C303
:10057000E7FF00001824180000FFE7DBE7FF00306A
:10058000483A060E00262979292600407F050507EE
:1005900000407F05253F005A3CE73C5A007F3E1C47
:1005A0001C0800081C1C3E7F0014227F2214005FE0
:1005B0005F005F5F0006097F017F00006689956A22
:1005C0000060606060600094A2FFA2940008047E56
:1005D00004080010207E20100008082A1C080008CB
:1005E0001C2A0808001E10101010000C1E0C1E0CF7
:1005F0000030383E383000060E3E0E060000000087
:1006000000000000005F0000000007000700001469
:100610007F147F1400242A7F2A12002313086462A7
:1006200000364956205000000807030000001C2235
:100630004100000041221C00002A1C7F1C2A0008E7
:10064000083E08080000807030000008080808080C
:10065000000000606000002010080402003E5149C4
:10066000453E0000427F4000007249494946002152
:1006700041494D33001814127F1000274545453974
:10068000003C4A49493100412111090700364949D6
:10069000493600464949291E0000001400000000A8
:1006A00040340000000008142241001414141414F3
:1006B000000041221408000201590906003E415D74
:1006C000594E007C1211127C007F49494936003E88
:1006D00041414122007F4141413E007F494949411A
:1006E000007F09090901003E41415173007F08085C
:1006F000087F0000417F4100002040413F01007F12
:1007000008142241007F40404040007F021C027FCD
:10071000007F0408107F003E4141413E007F0909EF
:100720000906003E4151215E007F09192946002635
:10073000494949320003017F0103003F4040403FE7
:10074000001F2040201F003F4038403F0063140836
:100750001463000304780403006159494D43000009
:100760007F41414100020408102000004141417FC7
:100770000004020102040040404040400000030722
:100780000800002054547840007F28444438003842
:100790004444442800384444287F003854545418B2
:1007A0000000087E09020018A4A49C78007F0804B9
:1007B00004780000447D4000002040403D00007F60
:1007C000102844000000417F4000007C0478047839
:1007D000007C0804047800384444443800FC1824A1
:1007E00024180018242418FC007C0804040800487D
:1007F000545454240004043F4424003C4040207CD2
:10080000001C2040201C003C4030403C004428108C
:100810002844004C9090907C004464544C44000068
:100820000836410000000077000000004136080053
:10083000000201020402003C2623263C0003071F9D
:100840007FFFFFFEF8F0C020F8FEFFFE79271F7F34
:10085000FFFFFEF8F0C020F8FEFFFF7F3F3F7FFF65
:10086000FEF8F0C000000000FFFFFFFFFFFF0000E8
:100870000000000000FF7F7F7FBFBFC0C0C0E0E07E
:10088000E0E0F0F0F0F878787C3C3CFEFEFEFFFF04
:10089000FF000000000000000000008080BFBFDFFC
:1008A000DFEFEF0003071F7FFFFFFFFEF8E0C0E070
:1008B000F8FEFFFFFF7F1F07030000E0F0F0F0E00D
:1008C000ECEEF7F37020007C7C7C7E007E7E7E7FE9
:1008D0007F7F000080C0E07E5B4F5BFEC00000C0F9
:1008E00000DCD7DEDEDED7DC00C000000000000048
:1008F00000000000000000000000000000000000F8
:1009000000C1F3CFBF7FFFFFFCFBE78100000000C9
:1009100080E3CF3FFFFFFFFCFBE781000000008189
:10092000E7FFFFFFFF3C0000FFFFFFFFFFFFF8F8BE
:10093000FC7C7E7E3EFEFFFFFFFFFFF7F7F7FBFB31
:100940007D7D7DBEBEBEDFDFE0E000FFFFFFFFFF7D
:10095000FF00FCFC7C7E7E3E3E1F1F1F0FFFFFFF43
:10096000FFFFFF000000000081E7FFFFFFFFFFFF28
:10097000FFFFFFE7810000000000000F1F3F7F7FA7
:100980007F7F7F3F1E0C001F1F1F3F003F3F3F7FA9
:100990007F7F00307B7F7830202030787F3B0003E2
:1009A000000F7F0F0F0F7F0F0003000000000000FB
:1009B0000000000000000000000000000060707CEB
:1009C0007F7F7F7F1F0601030F3F7F7F7E7C7C7EC2
:1009D0007F7F7F1F0601070F3F7F7F7E7C7C7E7FAE
:1009E0007F3F0F03000000007F7F7F7F7F7F00003D
:1009F00000000000007F7F7F7F7F7F7D7D3D3E1E6A
:100A00001F1F1F0F0F0707070303007F7F7F7F7FD5
:100A10007F7C7C7C7C7C7C7C7C7C7C7C007F7F7F86
:100A20007F7F7F004070787E7F7F7F3F0F030103D1
:100A30000F3F7F7F7F7E7870400000000000000045
:100A400000000000000000000000000000000000A6
:100A50000000000000000000000000000000000096
:100A60000000000000000000000000000000000086
:100A70000000000000000000000000000000112441
:100A80001FBECFEFDAE0DEBFCDBF04B603FE27C046
:100A900080917F0590918005A0918105B09182059C
:100AA0008730904BA740B04BD1F410927F05109245
:100AB0008005109281051092820514BE84B7877F4D
:100AC00084BF0FB6F894A8958091600088618093E8
:100AD0006000109260000FBEE0E0F8E3099511E0BD
:100AE000A0E0B1E0EEE3FAE502C005900D92AE3B66
:100AF000B107D9F725E0AEEBB1E001C01D92AF37E9
:100B0000B207E1F70E94F60E0C941D2D0C94000024
:100B10000895AF92BF92CF92DF92EF92FF920F9320
:100B20001F93CF93DF93E82EF62EE901E42FF0E038
:100B3000611106C0E45EFE4FE4914E2F2E2F71C06E
:100B4000062F10E0E45EFE4F4491F42FC42ED12C0A
:100B500026E0829FC00111242FEF30E0B9010E94EE
:100B6000DD295BEA5603C001579F900D11248E0DBD
:100B7000911D8E0D911D582F550F580FD901A01B97
:100B8000B10BAC9DC001AD9D900DBC9D900D11248D
:100B9000E92FF59ED0011124AB2FBB277901EA1A6A
:100BA000FB0AEC9CD001ED9CB00DFC9CB00D112417
:100BB0005901A51AB108A09E7001A19EF00CB09E2B
:100BC000F00C1124EF2CFF242E193F092C9D8001DD
:100BD0002D9D100D3C9D100D1124212F62307105AB
:100BE00091F048F461157105E1F061307105B9F4D7
:100BF000242F4B2F16C06430710569F040F0663029
:100C0000710579F00CC0242F492FE12F0AC0492F1C
:100C1000EF2F2B2F06C0292FE42F412F02C0292FA1
:100C2000EB2F49832883EA83DF91CF911F910F91A6
:100C3000FF90EF90DF90CF90BF90AF90089590918C
:100C4000960292FF0DC0282F2871283019F4877F53
:100C5000846006C0282F2471243011F48B7F8860B3
:100C600093FF0DC0282F2871283119F4877E8461E5
:100C700006C0282F2471243111F48B7E88612091C5
:100C8000970220FF0DC0382F3871383019F4877F54
:100C9000816006C0382F3171313011F48E7F886049
:100CA00021FF0DC0282F2871283119F4877E81611A
:100CB00006C0282F2171213111F48E7E886194FDA8
:100CC000877E089560919E02669570E04BE050E04B
:100CD00080E091E00E940B2A892B19F481E0809337
:100CE0008F020E949C1A90938902809388028091BF
:100CF00090028460809390020895CF9391E08927B9
:100D0000E6E9F2E0608180FB63F980FB62F96083D1
:100D1000C091970284E090E00E949D296C2F81E2AF
:100D200090E0CF910C949D291F93CF93DF93CDB783
:100D3000DEB767970FB6F894DEBF0FBECDBF342F76
:100D40004B8B252F5C8B6D8B7E8B8F8B4E895F89B8
:100D5000611110923C0386E0FE013D96DF01982F61
:100D60001D929A95E9F73D872E876F87598B488B9F
:100D7000DE01179601900D928A95E1F7CE01079654
:100D80000E94671D81113EC086E0FE013796DE019C
:100D9000119601900D928A95E1F7FF81E8856A85A9
:100DA0007B856115710531F0EF3F31F481E0FF3F44
:100DB00019F403C081E001C080E080FD23C02091D0
:100DC000E50230E0C901019687709927409116032A
:100DD00050E08417950779F1F983EA837D836C836A
:100DE00096E0929FD001939FB00D1124AA51BD4F60
:100DF000FE01319601900D929A95E1F78093E502FC
:100E00000E94F11C16E0809116039091E50289176B
:100E1000F9F0189FC00111248A519D4F0E94671D4F
:100E20008823B1F08091160390E00196877099278E
:100E300080931603E8CF0E94161F1092E5021092CD
:100E40001603EFEDF2E086E0DF011D928A95E9F7E7
:100E500067960FB6F894DEBF0FBECDBFDF91CF917E
:100E60001F9108950C944C1A2091680230916902E8
:100E70002817390771F09093690280936802E09116
:100E80009802F0919902309721F00084F185E02DCD
:100E90000994089520916602309167022817390756
:100EA00071F09093670280936602E0919802F0914E
:100EB0009902309721F00680F781E02D099408957A
:100EC000E0919802F0919902309721F00190F08121
:100ED000E02D099480E008958091CA028823F9F0FA
:100EE0000E944C1ADC01CB01805A9541AF4FBF4F95
:100EF0008093C5029093C602A093C702B093C80224
:100F00008091C90281110BC062E070E081E292E041
:100F10000E94AF1F892B19F481E08093C902809150
:100F2000C9020895CF93E82F209167053091680595
:100F30002156334040915E03642F70E0C9010E9446
:100F4000DD29481B842FEE2351F066E00E94D12951
:100F5000C82FC150A8F080E20E94211FFACFA9013A
:100F6000480F511D4115524018F080E020E030E05C
:100F7000280F311D2F593C4F30936805209367058A
:100F8000CF910895E0917902F0E0EF56FD4FDC013A
:100F90008C919081891B282F90E0121634F42150F7
:100FA00090819F5F908391E0F8CF282F87FD20E00C
:100FB000821B882331F08F5F90819150908391E064
:100FC000F8CF91110C9432070895E0919402F0E06B
:100FD000EF56FD4F2081FC0120830895882311F0F6
:100FE000FA0101C0FB010994EEE8F2E0118282816E
:100FF00084608283089525E0EEE9F2E0DC0101904F
:101000000D922A95E1F720918E0230918F02409146
:101010009002FC0125833683478308951092900245
:10102000089580919002089530910C0180919E0264
:1010300080FF16C0E0910B0163E0E69FF0011124F0
:10104000E353FE4F539A8BB1877F9BB198602FB7C4
:10105000F894AF0163E0369F400D511D112414C078
:1010600080910D0190910E01891720F7E82FF0E093
:10107000AF01440F551FE40FF51FE353FE4F1182DC
:10108000108212828F5FF0CFE417F50789F031915B
:1010900068E09BB9000000C037FF8BB9330F000038
:1010A00000C000C000C08BB900C06A9591F7ECCFBA
:1010B0002FBF8FE594E00197F1F700C0000008957D
:1010C000FF920F931F93CF93DF93EC01F12C0FEF5F
:1010D00010E060910F01F61608F580910D012F2D9B
:1010E00030E0280F311DC901880F991F280F391FC3
:1010F00023533E4F4091A102493708F048E770E082
:10110000C8010E94F129962F8C816091A002F99E5E
:10111000800D11240E948905F394DBCF0E941408EE
:101120009A818C8190FF02C08F5F01C081508C83B7
:10113000DF91CF911F910F91FF90089590919E02A2
:1011400090FF16C090910D0120910E01921770F43E
:10115000E92FF0E0DF01AA0FBB1FEA0FFB1FE353EB
:10116000FE4F8183608342839F5FF0CF0C9414080D
:1011700008950F931F93CF93DF9300D01F92CDB7A5
:10118000DEB78C018091630281110AC09E012F5F3E
:101190003F4F48E76FEF0E9489058A818093630281
:1011A000F8018481813051F028F0823061F440915F
:1011B00063020AC08091630240E007C0609163024D
:1011C00040E080E003C040E080E060E00E949E08D4
:1011D000F801848190E0019663E070E00E94F129BB
:1011E00084830F900F900F90DF91CF911F910F91FB
:1011F00008950F931F93CF93DF9300D01F92CDB725
:10120000DEB78C0180919E0280FF13C04091A10245
:10121000493708F048E79E012F5F3F4F6091A002D9
:10122000F80184810E9489054B8169818A810E942D
:101230009E08F80184818F5F84830F900F900F9038
:10124000DF91CF911F910F91089580919E02282FD9
:10125000269530E02115310519F48170826005C0B2
:101260002631310524F081708A6280939E0280913C
:10127000A102893718F088E78093A1020895CF92E0
:10128000DF92EF92FF926B017C010E942509B7016A
:10129000A60188E090E0FF90EF90DF90CF900C9453
:1012A000AF29AF92BF92CF92DF92EF92FF920F934E
:1012B0001F93CF93DF9300D01F92CDB7DEB7082FD7
:1012C000F62E142FE22E80919E0280FF80C0E82F20
:1012D000E695AE2FB0E0A55CBE4F9C9190938E0238
:1012E0008E7F823081F4493708F048E79E012F5FF6
:1012F0003F4F6F2D802F0E9489054B8169818A8124
:101300000E949E0841C0923019F400919F023CC097
:101310009530D9F39B30C1F5EB508E2F8170D82ECC
:10132000E695F0E0E45EFD4FA590B490C12CBB249F
:1013300060910F01C61630F52C2D30E0A29EC00141
:10134000A39E900DB29E900D112470E00E94DD29A5
:10135000802FD11002C0860F01C0861B90910D0115
:10136000290F311DA901440F551F240F351F235389
:101370003E4F412F193708F048E76F2D0E9489052D
:10138000C394D6CF0E94140880919F02081308C00E
:101390008091A002F81204C08091A102181729F0D0
:1013A0008091900282608093900200939F02F0925D
:1013B000A0021093A102EE2051F060919E02709164
:1013C0009F028091A0029091A1020E943F090F907C
:1013D0000F900F90DF91CF911F910F91FF90EF90A1
:1013E000DF90CF90BF90AF900895EEE9F2E0438197
:1013F00024E0421B08F440E021E0628181810C94EA
:101400005109EEE9F2E0438124E0420F08F44FEF86
:1014100021E0628181810C945109EEE9F2E0628160
:1014200021E1621B08F460E021E0438181810C949A
:101430005109EEE9F2E0628121E1620F08F46FEFF9
:1014400021E0438181810C945109EEE9F2E0818130
:1014500021E0438162818A500C945109EEE9F2E067
:10146000818121E043816281865F0C9451098091E2
:10147000A202882319F081508093A20260919E02FB
:1014800070919F028091A0029091A1020C943F095B
:101490008091A202833018F48F5F8093A202609142
:1014A0009E0270919F028091A0029091A1020C94E3
:1014B0003F0990919E0290FF3BC09170811102C044
:1014C000926006C0863110F09A6202C0880F982B95
:1014D00090939E0280919002816080939002662397
:1014E00051F060919E0270919F028091A0029091B4
:1014F000A1020E943F0960919E02669570E04BE058
:1015000050E080E091E00E940B2A892B19F00E94A4
:10151000F40702C00E94620681E080938B0220E003
:101520004091A1026091A00280919F020C94510908
:1015300008951F93CF93DF93EC01162F8F8180FFC7
:1015400022C0988180919E0290FF08C081608093A4
:101550009E02888186950E94590A15C08E7F8093CD
:101560009E020E94F4078091900281608093900215
:101570002FEF80E792E0215080409040E1F700C0DB
:1015800000000E9414088F8181FF06C0212F4B812B
:101590006A8189810E9451098F8182FF08C08E81F2
:1015A000882319F00E94620602C00E94F4078F810E
:1015B00083FF03C081E080938B02DF91CF911F9165
:1015C000089580919E028695815009F485E161E03D
:1015D0000C94590A80919E0286958F5F863108F09F
:1015E00081E061E00C94590A90919E0290FF04C042
:1015F0009695981740F003C0811105C090E09617AA
:1016000010F40C94EA0A61E00C94590AEEE9F2E055
:1016100083E0808311828FEF828388E78383148243
:10162000AEE8B2E012968C911297836012968C937A
:1016300060817181828193810C943F098091CC01FA
:10164000811112C08091D80080618093D8008AE116
:101650008A95F1F700C08091D90080FD02C082E038
:1016600001C081E08093CC0181E09091CC01913068
:1016700009F080E00895F894E82FE295EF70F0E02B
:1016800031A1282F2F7081E090E001C0880F2A95AA
:10169000EAF7982F9095932391A392A1892B82A387
:1016A00078940895CF93DF9328E3829FC00111249B
:1016B000FC0147E0749FE00DF11D1124E60FF11DC0
:1016C000EE0FFF1FE051FD4FC591D491CE01C238FE
:1016D000D10569F1B0F4C133D10509F475C048F4FE
:1016E000C932D10509F469C0CA32D10509F473C001
:1016F00085C0C533D10509F459C0C933D105B9F046
:101700007DC0C33ED10571F138F4C03ED105B1F0C2
:10171000C23ED10511F172C0C63ED105B9F1C73E36
:10172000D105C9F1C43ED10509F068C024C020919B
:10173000960220FD5DC021FD5BC060C02091960235
:1017400020FD50C02091970220FF42C18091960257
:1017500084FD3CC183EE90E03BC12091960222FFC4
:1017600037C1F4CF8091960282FD3FC080919702ED
:1017700080FD3EC0EBCF2091970221FF29C18091CF
:10178000960284FD23C187EE90E022C1209196024B
:1017900023FF1EC1F4CF8091960283FD2CC080915F
:1017A000970281FFECCF84EE90E012C12091960267
:1017B00025FF0EC189E290E00BC12091960225FF22
:1017C00007C185E390E004C12091960226FF00C185
:1017D0008AE290E0FDC02091960226FFF9C081E3E5
:1017E00090E0F6C089E390E0F3C082EE90E0F0C0B4
:1017F00080EE90E0EDC086EE90E0EAC0C11552E5C3
:10180000D50708F06BC0C11521E5D20728F09C2F41
:101810008827816F906ADCC0C83ED10570F5C03E54
:10182000D10508F0D5C0C83AD105B8F4C53AD105FC
:1018300050F08C2F855AC82FD0E0C457DE4F8881D6
:1018400090E09064C5C0C130D10509F4C1C008F46E
:10185000BDC0249708F4BAC0BBC0CF3BD10508F087
:10186000B5C08C2F885AC82FD0E0CC0FDD1FC157D0
:10187000DE4F888199819464ABC0C11540E5D407DF
:10188000F0F0CE01F4E096958795FA95E1F7282FD0
:1018900023703C2F337081E090E002C0880F991FC5
:1018A0003A95E2F79C68922B2C2F2F70269526955F
:1018B00050E2259F90011124822B932B89C0C115E2
:1018C00050E4D50720F0CE019F70906A81C09E0140
:1018D0003A9521153F4108F47BC078C0C11556E503
:1018E000D50708F03FC0C11585E5D80748F08C2F13
:1018F0000E941F068F7190E0982F8827906268C021
:10190000C11524E5D20728F09C2F8827846F906AA0
:101910005FC09E01237033279C2F96959695C11525
:10192000D34580F441E050E002C0440F551F2A9592
:10193000E2F780E2989F90011124CA01822B932B39
:101940009C6846C041E050E002C0440F551F2A95F4
:10195000E2F780E2989F90011124CA01822B932B19
:101960009A6836C0C1155AE5D507B0F4C11589E5A6
:10197000D80718F18C2F8F700E941F069E0194E0EB
:10198000369527959A95E1F72F7030E0322F222770
:101990003069A901482B0FC0CE01905681159042A5
:1019A000A8F48D2F8F710E941F069E01332730628D
:1019B0008F71A901582BCA010BC0C11528E5D207A8
:1019C00028F09C2F8827806F906A02C080E090E00A
:1019D000DF91CF910895EF92FF920F93CF93DF9312
:1019E000C42FD22FFC0182818823D1F04093D502ED
:1019F0000E94901A909365028093640280E28C0F9B
:101A0000883008F078C0C77081E001C0880FCA959F
:101A1000EAF7DF91CF910F91FF90EF900C94712432
:101A20008091D502481356C020916402309165021E
:101A30004FB7F8948091430390914403A0914503DC
:101A4000B09146034FBF821B930B883C910508F071
:101A500041C0CD17C9F080E28C0F883040F4C770C8
:101A600081E001C0880FCA95EAF70E94662480E2EF
:101A70008D0F883048F481E09D2F977001C0880F4A
:101A80009A95EAF70E947124093319F0E12CF12CA0
:101A900003C080E5E82EF12C802F0E94D724E114AA
:101AA000F10451F08FE99FE00197F1F700C00000C9
:101AB00091E0E91AF108F3CF802F0E947B2480E2A5
:101AC0008D0F8830C0F4D77081E001C0880FDA959F
:101AD000EAF70AC080E28C0F883068F4C77081E0B2
:101AE00001C0880FCA95EAF7DF91CF910F91FF905F
:101AF000EF900C946624DF91CF910F91FF90EF90BF
:101B000008958F929F92AF92BF92CF92DF92EF9201
:101B1000FF920F931F93CF93DF9300D000D0CDB7E8
:101B2000DEB705E611E02EE6E22E22E0F22E4701B6
:101B3000A12CCC24C394D12CB801D8018C91F89459
:101B4000E82FE295EF70F0E021A18F70A60102C0AE
:101B5000440F551F8A95E2F7CA01922F982B91A343
:101B600092A18095892382A3789400C0EDE6F1E0EC
:101B700020E030E0B12C4191842F82958F7090E06D
:101B8000DC0190968C9190E04F7002C095958795FE
:101B90004A95E2F780FD07C08C2D022E01C0880F08
:101BA0000A94EAF701C080E0B82A2F5F3F4F273040
:101BB000310509F70F5F1F4FFB0180810E943B0B2E
:101BC000F0EAFA95F1F7D4018C91B81619F0BC92AD
:101BD00081E001C080E0A82ABFEF8B1A9B0AE1E0F8
:101BE00009361E0709F0A8CFE09177020E2F10E00A
:101BF000AA2049F081E08093C2010E94901A90933C
:101C0000C1018093C0018091C201882309F1209114
:101C1000C0013091C1014FB7F89480914303909176
:101C20004403A0914503B09146034FBF821B930B21
:101C3000069770F0F801E358FD4FD7018D917D01B3
:101C40008193B2E7EB16B2E0FB06B9F71092C2013E
:101C50000E941E0B60917702882309F4A5C01982A7
:101C60001A821B821C82862F90E0BE016F5F7F4F1D
:101C700083589D4F0E948126811118C08091CB010D
:101C80008F5F8093CB01863050F1E0917602F0E0D7
:101C9000E358FD4FDE011196CE01059611921D927B
:101CA000A817B907D9F7BB24B3941AC01092CB0177
:101CB000E0917602F0E0E358FD4FDE0111969E01BF
:101CC0002B5F3F4FB12C8D919081981719F0808335
:101CD000BB24B39431962A173B07A9F701C0B12C56
:101CE00080917A0290917B02843FE1E09E0758F454
:101CF000019690937B0280937A020A9709F05FC065
:101D00008824839401C0812C03E311E087ECC82E62
:101D100081E0D82E93ECE92E91E0F92E40E0912C51
:101D2000D80111965C9111978C9190E0FC0188206C
:101D300019F0E259FD4F02C0E358FD4F208130E019
:101D400002C0359527955A95E2F7822F8170F601EA
:101D500081936F01D7019D917D01981302C0882066
:101D600051F0911007C020FF02C080E001C081E067
:101D70000E947D0641E093940E5F1F4FB4E09B12DA
:101D8000CFCF4423E1F08091C7019091C801A09189
:101D9000C901B091CA018093C3019093C401A0937B
:101DA000C501B093C6010BC070E063587D4F8091B0
:101DB000760290E083589D4F0E94B326B12CA1106B
:101DC00002C08B2D02C081E090E00F900F900F9029
:101DD0000F90DF91CF911F910F91FF90EF90DF90C7
:101DE000CF90BF90AF909F908F900895CF93DF9347
:101DF000CDB7DEB7AC970FB6F894DEBF0FBECDBF40
:101E000084B7877F84BF0FB6F894A895809160004F
:101E1000886180936000109260000FBE90E080E8BF
:101E20000FB6F89480936100909361000FBE85B760
:101E3000806885BF85B7806885BF8DEB99E19093F9
:101E4000BF018093BE010E9411230E943023809124
:101E5000E20084608093E2007894809154038823A8
:101E6000A1F01091E9001F709091EC00892F817012
:101E700090FD80E8182B1092E9008091E80083FD26
:101E80000E9404201F701093E90082E084BD93E05B
:101E900095BD9AEF97BD80936E0010926A021092E2
:101EA0006B0210926C0210926D0222982A9A579A35
:101EB0005F9825E02A95F1F7000083B182FB88271F
:101EC00080F957985F9A30EA3A95F1F780931001BC
:101ED00080911001882321F010920B0189E103C049
:101EE00089E180930B0180930C010E941E0B8111EC
:101EF0000E9458268091100180911001811102C02A
:101F000094E001C090E09093770284E0891B809375
:101F1000760284E90E943B0B86E60E943B0B87E930
:101F20000E943B0B86EC0E943B0B0DE611E064E740
:101F3000E62E61E0F62ED8018D918D010E943B0BBB
:101F4000E016F106C1F7EEE6F2E086E792E0ADE7D3
:101F5000B2E011921D928E179F07D9F780E090E0B2
:101F60000E9497298B3E9E4F11F00E94061B0E94F3
:101F70001E0B811102C00E945E261092C30280E8EF
:101F800080935E030E94D6266DE070E086E392E0C7
:101F90000E94AF1F892B09F043C08091C30263E008
:101FA00070E081FD3AC083E392E00E94AF1F892B6D
:101FB000B9F56DE070E083E292E00E94AF1F892BDB
:101FC00079F50E944C1ADC01CB01805A9541AF4F44
:101FD000BF4F8093C5029093C602A093C702B093EF
:101FE000C802E1E6F3E080E092E0DF019C011D928F
:101FF00021503040E1F7F0936805E09367058FEFDB
:102000009FEF9093600380935F0381E08093CA0207
:102010008093C9021092C40203C080E392E0C5CF4E
:1020200080E090E00E9497298B3E9E4F11F00E9425
:10203000061B82E090E00E9489298093CC020E94D6
:10204000F51A909397028093960283E090E00E94A5
:102050008929682F70E080E090E00E94E71C809161
:10206000780281113BC080E090E00E9497298B3E6E
:102070009E4F21F00E94061B0E94060B88E090E014
:102080000E94912960939E0270939F028093A00208
:102090009093A102809190028360809390026E7F62
:1020A00071F40E94060B88E090E00E9491296093F1
:1020B0009E0270939F028093A0029093A1020E94BF
:1020C00025090E94F40780919E0280FF04C060E011
:1020D00086950E94590A81E08093780226982E9A6C
:1020E00025982D9A83B186FB882780F91D9902C017
:1020F00090E001C092E0892B8093950290911001AD
:1021000081E0982790939402891B80937902109222
:102110007B0210927A0288E191E090939902809379
:10212000980240E4642E22242394312C809154039D
:10213000853009F044C000E112E1809154038530FC
:1021400009F039C080915403843019F110927C0257
:1021500088E190E00FB6F894A895809360000FBED8
:102160006092600083B7817F846083BF83B78160A2
:1021700083BF7894889583B78E7F83BF0FB6F8941A
:10218000A895809160008861809360001092600043
:102190000FBE80915303882309F4CFCF0E94810D95
:1021A000EDE7F2E08191811156C3A5E8B2E0AE17E8
:1021B000BF07C1F7C2CF0E94161F0E9460070E948E
:1021C000810DC82E81110E944C1AEDECF2E0ADE7B2
:1021D000B2E000E010E0B02EDD9081918D2549F154
:1021E000E12CFF24F394982F9F21F1F00E941E0B05
:1021F000882399F0EF8EB8A2DF2081E009F480E017
:1022000089A30E94901A8160782F9BA38AA34F8D87
:1022100058A169A18BA10E949406F801E353FD4FD8
:102220008081F826F0821AC0E394FF0C27E0E212C6
:10223000DACF0F5F1F4F0830110569F68FEF8CA3BF
:102240008DA31EA20E94901A8160782F98A78FA359
:102250004CA15DA16EA188A50E94940680918F0279
:10226000882309F483C080918E02E0919E02E69556
:10227000E81BE0938A02823059F4F0E0E85BFD4FFE
:10228000E4910E2F10E039EFE32E38E0F32E1FC05B
:10229000853061F4E695F0E0EB5BFD4FE4910E2FA5
:1022A00010E020E6E22E28E0F22E11C0853149F43C
:1022B000E3E4F2E00591149199EBE92E98E0F92E10
:1022C00006C000ED17E088E8E82E85E0F82E809142
:1022D0008B02882361F010928B020E949C1A9093CB
:1022E00089028093880210928D0210928C020E94C3
:1022F0009C1AE0918802F09189029C012E1B3F0BF1
:102300002F3F3F4798F5209187022223B1F010928A
:1023100087022091850230918602821B930B8F3FAA
:102320009F4758F4205D3A483093860220938502F7
:1023300080919002886080939002A0908C02B0906F
:102340008D020E0F1F1F109389020093880288E8E8
:1023500092E0F701099580918C0290918D02892B72
:1023600029F4AB2819F081E08093870280919502CF
:10237000E82FEE0FEE0FE093950283B186FB8827DE
:1023800080F989A71AA61D9903C080E090E002C0D9
:1023900082E090E029A53AA5822B932B8E2B809387
:1023A0009502909194028F70E82FF0E0EC58FE4F68
:1023B000208180919302820F843044F0E92F990F9D
:1023C000FF0BEF56FD4F90819F5F09C08D3F5CF47E
:1023D000E92F990FFF0BEF56FD4F9081915090839D
:1023E000DD24D39401C0D12C082E000C990B64E09D
:1023F00070E00E94F12980939302D1100E9432076D
:102400008091CA02882309F415C281E693E0909373
:102410006805809367050E941E0B882309F4BCC0E1
:102420008091960282FD0BC082EA92E00E94A11F79
:1024300080EA92E00E94A11F85EA92E00AC088EA41
:1024400092E00E94A11F8EE992E00E94A11F8BEAF8
:1024500092E00E94A11F8CE992E00E94A11F84E9F2
:1024600092E00E94A11F40919A0250919B026091BC
:102470009C0270919D02CB01AA27BB270097A10562
:10248000B10521F0AC01BD0180E101C080E0052F64
:10249000162F272F3327011511052105310519F0B6
:1024A000885FB901A8018A019B01A4E036952795B0
:1024B00017950795AA95D1F7011511052105310545
:1024C00019F08C5FB901A8018A019B01F2E03695F1
:1024D000279517950795FA95D1F70115110521054F
:1024E000310519F08E5FB901A8017695679557956A
:1024F0004795452B462B472B09F08F5F813081F0A4
:1025000038F0823041F0833071F485E792E005C005
:102510008BE892E002C084E892E00E94A11F0AC00A
:102520008DE792E0FACF8BE692E00E94A11F81E056
:102530000E94920789E692E00E94A11FE091980212
:10254000F0919902309729F00190F081E02D0995E2
:1025500001C080E081FB002700F982FB112710F900
:1025600080FD03C08FE592E002C084E692E00E9405
:10257000A11F011103C085E592E002C08AE592E047
:102580000E94A11F111103C08BE492E002C080E5FC
:1025900092E00E94A11F42C08EEA92E00E94A11F19
:1025A00020919E0220FF3AC08091A10286958695D7
:1025B0001F928F938091A00261E10E94D1291F9206
:1025C0008F9380919F026AE00E94D1291F928F937E
:1025D00026951F922F9381E591E09F938F931F92F1
:1025E0008EE18F938E010F5F1F4F1F930F930E94F9
:1025F000252AF80101900020E9F7CF0101977C011D
:102600000FB6F894DEBF0FBECDBF0E151F0530F418
:10261000F80181918F010E94211FF7CF8091CA029A
:10262000882309F4E0C020915F03309160032115F5
:10263000310509F4D8C08091C4028111D4C0482E5C
:10264000512C7101082E02C0EE0CFF1C0A94E2F717
:10265000A9014E215F21452B11F48F5FF0CF90919E
:10266000C302920175E0220F331F7A95E1F790FDC6
:1026700012C08295880F807680931301220F232F3A
:10268000221F330B319520931601815E8093140134
:102690001092170112C055E0369527955A95E1F72B
:1026A000220F220F220F2093130110921601295F8F
:1026B0002093140183E08093170124E630E047E083
:1026C00050E061E171E088E70E946327892B09F0FF
:1026D0008AC08091C30280FD23C0C20145E0880FFB
:1026E000991F4A95E1F7AC014F595C4F04E610E0A1
:1026F00020E230E060E488E70E948A27892B09F015
:1027000072C00E946C07E094F09480915F039091F6
:102710006003E822F922F0926003E0925F0363C055
:1027200080E2E3EAF2E0DF011D928A95E9F735E005
:10273000440C551C3A95E1F7E8E8F1E0FCA7EBA75B
:1027400064E871E0ABA5BCA58D91BCA7ABA7FB016C
:102750009191BF01A201490F511D4F595C4F90E06B
:102760008D559D4FFC0127E0A22E9F01281B390BA0
:10277000822C01C0880C2A95EAF78A01912CD80195
:10278000BD908D01B8202A2D29192770722E022E96
:10279000000C330BBB2D01C0BB0F7A94EAF77B2EE4
:1027A0003195219531092770332701C0B6942A95B8
:1027B000EAF77B28B0807B287082939428E09212FD
:1027C000DECFAA9431963FEFA312CFCF8BA59CA565
:1027D0008C58914009F0B6CF04E610E020E230E0DA
:1027E00043EA52E087CF8091C902882319F10E9401
:1027F0004C1A0091C5021091C6022091C702309177
:10280000C802DC01CB01801B910BA20BB30B8F3FE5
:102810009F4FAF4FBF4770F48091CA02882351F099
:1028200062E070E08EEE92E00E94AF1F892B11F4FF
:102830001092C902C11001C0D1100E946C070E9401
:1028400060079091CB02891709F470CC0E94600751
:102850008093CB026BCC09BD19BD09B400FEFDCF3E
:102860008091D8008F7D8093D8008091E0008260B5
:102870008093E0008091E00081FDFCCF0E94161F54
:102880005CCC8F929F92AF92BF92CF92DF92EF92E9
:10289000FF920F931F93CF93DF93CDB7DEB72A97A5
:1028A0000FB6F894DEBF0FBECDBFFC010081D18012
:1028B00083819481892B39F01FEFD11206C091E0FA
:1028C0000F3F19F403C091E001C090E090FD3EC5B8
:1028D0007F0185E0DE01169601900D928A95E1F761
:1028E000F70122818E819F81222349F00E94B11B32
:1028F000182F682F8E819F810E94531C03C00E9455
:10290000271C182F28E3129FF001112437E0D39ED3
:10291000E00DF11D1124E00FF11DEE0FFF1FE0513E
:10292000FD4F05911491043F8CE5180759F190F47F
:10293000093DECE51E07E9F00A3DFCE51F07A1F1A2
:10294000083D2CE51207B1F506E221EE41EE68EDF7
:102950007CE514C0063F3CE5130701F1C8F0073FD2
:102960009CE5190739F507E225EE46EE67EF7CE5B1
:1029700005C007E225EE45EE69ED7CE5C7010E9442
:10298000EB0C72C406E221EE40EE64EF7CE5F6CF7C
:1029900007E225EE44EE65EF7CE5F0CF06E221EE9E
:1029A00042EE66EF7CE5EACF08E221E045EE6AED13
:1029B0007CE5E4CFF7019281992309F43FC110929D
:1029C000D5020230FCE51F0708F422C106312CE5D0
:1029D000120738F098012B5F3C452930310508F08B
:1029E00017C10E94F51A90939702809396020031C6
:1029F0003CE5130709F4C3C008F041C008309CE56A
:102A0000190709F49AC0F0F40430FCE51F0709F433
:102A100087C068F402303CE5130709F477C003303F
:102A20001C4509F0E5C080919602826076C00630B0
:102A30009CE5190709F46EC008F07BC080919602EE
:102A400088606BC00C30FCE51F0709F485C068F492
:102A50000A303CE5130709F474C008F079C00E94FD
:102A6000161F80919602806858C00E309CE51907A9
:102A700009F476C008F07FC0809196028BC00C3FAD
:102A8000FCE51F0709F44FC018F503313CE51307B7
:102A900009F47DC078F401319CE5190709F473C08D
:102AA00002311C4509F0A4C00E94161F80919602B5
:102AB0008F7733C00531FCE51F0709F472C008F4B5
:102AC00086C00B3F1C4509F093C0809197023EC021
:102AD00001158DE5180709F45FC058F40E3FECE5C9
:102AE0001E0709F444C008F43FC080919702826039
:102AF0002DC002302DE5120709F475C008F45DC041
:102B000003301D4509F074C060E06EC080919602EC
:102B1000816003C08091960280618093960268C0B4
:102B20008091960211C080919702826080939702F3
:102B30005FC0809196028062F0CF8091960280649F
:102B4000ECCF8091960288608460E7CF8160EECF01
:102B5000809196028E7FE1CF809196028D7FDDCFAE
:102B600080919602877FD9CF8091970218C080917B
:102B700097028D7FDBCF809196028F7ECECF8091A2
:102B800096028F7DCACF809196028F7BC6CF8091AF
:102B90009602877F8B7FC1CF809197028D7F8E7F3A
:102BA000C5CF8091960282FB222720F991E09227DF
:102BB00090FB82F990FB83F9B0CF80919702982F18
:102BC000909591708E7F892B90FB81F9AFCF0E94F9
:102BD000161F8091960287FB222720F991E0922709
:102BE00090FB87F99ACF61E08EE090E00E949D29EA
:102BF000609196021091970284E090E00E949D29D6
:102C0000612F81E290E00E949D290E94161F2CC333
:102C100006312CE5120719F580913D038A7A91E07F
:102C200009F490E09093D602882311F065E301C087
:102C300069E287ED92E00E94DB1A0EC00631FCE5E6
:102C40001F0799F58091D602882309F42CC365E308
:102C500087ED92E00E94CE1A0E94761B05C30115F3
:102C60002CE5120731F00F3D1C4549F50E94061B6B
:102C7000FBC20E94161F8FEF94E3ECE0815090405E
:102C8000E040E1F700C0000087E797E79093010874
:102C9000809300089AE088E10FB6F894A895809395
:102CA00060000FBE90936000FFCF80913D03827261
:102CB000F801E35CFC45E431F10508F4F6C2F701E4
:102CC00000811181992349F0C8010E94B11BD82EBF
:102CD000682FC8010E94531C04C0C8010E94271C11
:102CE000D82EB8018D2D0E94520B8C01982EF70121
:102CF000B280A580A2942FE0A22280913A0387702F
:102D000099F0BB2089F0812F807F803421F080E210
:102D1000800F883048F082E00E94AD1C80913A0319
:102D20008770DD24D3948111D12CC12EC2949FE0F1
:102D3000C9228C2D90E08C30910508F035C2FC0141
:102D4000EA5AFF4F0C94052A812F807F1F70882339
:102D500011F01295107FBB20B9F0112309F40FC2B6
:102D600080E2800F883010F0911006C080913D0302
:102D7000182B10933D0305C080913C03182B109332
:102D80003C030E94761BFBC1802F0E947B241123F1
:102D900009F40AC2005E1095083010F0911006C0C8
:102DA00080913D03182310933D0305C080913C039F
:102DB000182310933C030E94761BF6C1812F807F5D
:102DC0001F70803211F01295107F992021F0F1E0F0
:102DD0009F16E1F02AC0BB2081F080913E03AA201B
:102DE00051F001E0A01207C0182B181709F4DCC13C
:102DF00010933E03D9C1812B10C0AA2021F021E0FD
:102E0000A21609F4D1C10E94701B27C0BB2041F05B
:102E100035E03A1508F4C8C1812F0E947124C4C15D
:102E200084E08A1508F4C0C118C0BB2049F0AA206C
:102E300099F3F701858180FFA2C18F708583ECCF64
:102E4000AA2059F0093309F0ACC1FFEF17EE23E0D7
:102E5000F15010402040E1F7A2C1812F0E9466246A
:102E6000A3C1812F86958695837019F0813059F022
:102E70009BC1BB2019F0C801937002C080E090E0B4
:102E80000E944A0797C1BB2019F0C801937002C085
:102E900080E090E00E9434078DC1812F837009F09B
:102EA00069C0B11085C1902F929596959770990F32
:102EB000990F802F8F70882E912CA12CB12C092E68
:102EC00004C0880C991CAA1CBB1C0A94D2F704FFEE
:102ED00012C04FE050E060E070E004C0440F551FA6
:102EE000661F771F9A95D2F7DB01CA0180959095EE
:102EF000A095B09503C080E090E0DC011695169592
:102F0000412F4370423019F1C8F400913F031091F2
:102F100040032091410330914203413059F0882908
:102F20009929AA29BB29BC01CD01602371238223E1
:102F300093230AC0802A912AA22AB32ABC01CD0178
:102F4000682979298A299B290E94E71C31C188298F
:102F50009929AA29BB2900913F0310914003209190
:102F6000410330914203BC01CD01602771278227C4
:102F70009327EACFBB2019F0812F817001C086957D
:102F8000882309F415C1902F929596959770990F03
:102F9000990F802F8F70882E912CA12CB12C092E87
:102FA00004C0880C991CAA1CBB1C0A94D2F704FF0D
:102FB00012C04FE050E060E070E004C0440F551FC5
:102FC000661F771F9A95D2F7DB01CA01809590950D
:102FD000A095B09503C080E090E0DC0116951695B1
:102FE000412F43704230D9F068F500919A02109158
:102FF0009B0220919C0230919D02413059F088291A
:103000009929AA29BB29BC01CD0160237123822300
:1030100093231EC0802A912AA22AB32A13C088298A
:103020009929AA29BB2900919A0210919B0220910B
:103030009C0230919D02BC01CD016027712782273F
:10304000932706C0BC01CD01682979298A299B29CB
:103050000E947E1CADC01F70BB2039F0812F0E94E2
:10306000C61C802F0E947124A3C0802F0E9466245A
:10307000812F0E94881C9CC0802F32EF931609F488
:1030800040C0391538F090EF991661F0E1EF9E16C7
:1030900099F170C0F3EF9F16D9F124EF921609F45D
:1030A0004EC068C0BB2019F134E03A1508F47CC06A
:1030B0001F7181E090E0A0E0B0E0AC01BD0104C070
:1030C000440F551F661F771F1A95D2F780919A02F9
:1030D00090919B02A0919C02B0919D028A019B015C
:1030E000082719272A273B27C901B80125C025E051
:1030F0002A1508F459C0DCCFBB2029F0812F8F712D
:103100002CC0BB20D9F3812F8F710E94881C4CC02A
:10311000BB2079F01F7181E090E0A0E0B0E0BC013D
:10312000CD0104C0660F771F881F991F1A95D2F72B
:1031300003C060E070E0CB010E947E1C35C0BB2064
:1031400079F01F71812F0E94C61C38E0139FC001C7
:103150001124836080933A03812F0E94C61C24C0EF
:1031600081E00E94AD1C81E08A15F0F482E00E94AB
:10317000AD1C1AC0BB2039F0AA2009F4BFCF802FA4
:103180000E94D72411C0AA2009F4BDCF893349F485
:103190009FEFE7EEF3E09150E040F040E1F700C030
:1031A0000000802F0E947B2488EF8C0D843010F467
:1031B0000E946007DD20A9F080913A0380FD11C0D4
:1031C000F70112828595859585950E94C61CC701D9
:1031D0000E94411480913A038595859585950E94BA
:1031E000881C85E0F701DE01119601900D928A9509
:1031F000E1F789819A810E94271C9A8108E3809FC8
:10320000F001112417E0919FE00DF11D1124898137
:10321000E80FF11DEE0FFF1FE051FD4F85919491D6
:1032200095C080919E0280FF44C08E7F80939E0255
:1032300060919E0270919F028091A0029091A102E4
:103240000E943F090E94F407809190028160809360
:1032500090029FEFE0E7F2E09150E040F040E1F7AC
:1032600000C000000E94140880913A03877009F49E
:103270006DC0F7018281882309F468C082E02A9634
:103280000FB6F894DEBF0FBECDBFDF91CF911F9177
:103290000F91FF90EF90DF90CF90BF90AF909F90F5
:1032A0008F900C94AD1C69E2D3CCEE59FF4F0C9477
:1032B000052A816080939E0261E0869544C041EEBC
:1032C0005AE06AEE7AE02CC04AEE5AE061EE7AE00B
:1032D00027C045E25AE06EE27AE022C04EE25AE0B0
:1032E00065E27AE01DC04DE05AE069E17AE018C07D
:1032F00049E15AE06DE07AE013C045EF59E061E042
:103300007AE00EC041E05AE065EF79E009C047E39A
:103310005AE068E47AE004C048E45AE067E37AE0FF
:103320000E94EE07A1CF61E081E00DC064E082E081
:1033300005C06AE085E002C064E18BE00E94F40A07
:1033400093CF61E085E10E94590A8ECF2A960FB68D
:10335000F894DEBF0FBECDBFDF91CF911F910F91CB
:10336000FF90EF90DF90CF90BF90AF909F908F90A5
:103370000895089580914903089580E00895CF93BA
:10338000DF9300D01F92CDB7DEB7909154039430F5
:1033900019F589837B836A8382E08093E9008FEF4C
:1033A0009091E800815095FD06C095ED9A95F1F752
:1033B00000008111F5CF8091E80085FF0DC040E04D
:1033C00050E063E070E0CE0101960E94D81F80912A
:1033D000E8008E778093E8000F900F900F90DF91B8
:1033E000CF910895BC0184E00C94BF19BC0183E027
:1033F0000C94BF19CF93DF9321E02093E9002FEFC6
:103400003091E800215035FD06C035ED3A95F1F7D1
:1034100000002111F5CF2091E80025FF14C0EC0138
:1034200040E050E068E070E00E94D81F8091E80022
:103430008E778093E80088E0FE01AAE4B3E0019073
:103440000D928A95E1F7DF91CF91089578941F92BC
:103450000F920FB60F9211248F939F93AF93BF9348
:103460008091430390914403A0914503B09146039A
:103470000196A11DB11D8093430390934403A09333
:103480004503B0934603BF91AF919F918F910F90E9
:103490000FBE0F901F9018952FB7F89460914303BB
:1034A0007091440380914503909146032FBF089586
:1034B0000F931F930E941E0B882321F01F910F91E1
:1034C0000C944C1A0E944C1A00916A0210916B02E3
:1034D00020916C0230916D02600F711F821F931F4B
:1034E0001F910F910895CF92DF92EF92FF926B019F
:1034F0007C010E941E0B81110EC00E944C1AC61A3C
:10350000D70AE80AF90AC0926A02D0926B02E092E6
:103510006C02F0926D02FF90EF90DF90CF900895D3
:103520002FB7F8948091430390914403A0914503F1
:10353000B09146032FBF08950E941E0B81110C9479
:10354000901A0E94581ACB0108951F920F920FB63D
:103550000F9211248F939F93AF93BF9380917C021E
:10356000811113C08091430390914403A0914503BE
:10357000B09146034196A11DB11D809343039093E2
:103580004403A0934503B0934603BF91AF919F912D
:103590008F910F900FBE0F901F9018959C012A5F7E
:1035A0003F4FFC014281461301C0128201968217EF
:1035B0009307B9F708959C01FC0132969FEF80E0D4
:1035C0004191461789F09F3F19F4411101C0982F8E
:1035D0008F5F8630A9F79F3F39F0F901E90FF11DA0
:1035E00097FDFA95628308950895CF9384E090E063
:1035F0000E948929C82F81E290E00E9489292C2FFE
:1036000030E0A901582BCA01CF9108956BEE7EEFEF
:1036100080E090E00E94BB2960E082E090E00E94A0
:103620009D2960E083E090E00E949D2910923F0375
:1036300010924003109241031092420360E084E034
:1036400090E00E949D2960E081E290E00E949D2927
:1036500060E085E090E00E949D2960E086E090E0D7
:103660000E949D296FEF87E090E00E949D2940E035
:1036700050E0BA0188E090E00E94AF2960E08DE060
:1036800090E00E949D2940E050E0BA0188E190E07E
:103690000E94AF2960E087E190E00E949D2940E010
:1036A00050E0BA018CE190E00E94AF2960E080E236
:1036B00090E00E949D2940E050E0BA0188E190E04E
:1036C0000E94AF2940E050E0BA018FE090E00E94F4
:1036D000AF2940E050E0BA0183E190E00C94AF29BB
:1036E00080913E03811110923E03089590913D0315
:1036F00080913C03892B20913B03982F922B909330
:10370000D70280913E03882389F0892B8093D702CA
:10371000E9EDF2E097E080E0915029F02191222339
:10372000D9F38F5FF9CF81110E94701BE09198024D
:10373000F0919902309731F00280F381E02D87ED0E
:1037400092E00994089580E090E00E944A0780E0AA
:1037500090E00E94340710923C0310923B030C94BB
:10376000761BBF92CF92DF92EF92FF920F931F933F
:10377000CF93DF938C01C0909A02D0909B02E0908F
:103780009C02F0909D0280913F0390914003A09194
:103790004103B0914203C82AD92AEA2AFB2ACFE181
:1037A000D0E0D701C6010C2E04C0B695A795979519
:1037B00087950A94D2F780FD04C0219790F7B12C29
:1037C00007C0BC2EB8018C2F0E94520B0197A9F3A1
:1037D0008B2DDF91CF911F910F91FF90EF90DF9094
:1037E000CF90BF900895CF93DF93EC010E94B11B5F
:1037F000BE010E94520BDF91CF9108950E94F31BEE
:10380000292F2F70E92FE295EF704E2F50E0FA012B
:103810003297EE30F105B8F4EA58FF4F0C94052AC0
:10382000803F99F018F4883E70F40FC0843F59F43B
:103830000CC0883E50F0813F31F407C0822F86953E
:1038400086958695089580E0089581E0089527E0A3
:10385000929F800D1124682F669566956695982F26
:10386000977085E0689FB001112440E050E080E04F
:10387000FB01E40FF51FE95EFC4F208130E0092ECB
:1038800002C0369527950A94E2F721703327042E5B
:1038900001C0220F0A94EAF7822B4F5F5F4F453039
:1038A000510531F7089527E0929F800D1124E82FEC
:1038B000E695E695E695877051E001C0550F8A952B
:1038C000EAF785E0E89FF0011124E95EFC4F20E073
:1038D00030E070E04081CB01022E02C096958795C2
:1038E0000A94E2F781708195842785238427819348
:1038F0002F5F3F4F2530310569F7089560939A0295
:1039000070939B0280939C0290939D020C94A31B46
:103910000F931F9341E050E060E070E004C0440F5B
:10392000551F661F771F8A95D2F740955095609571
:10393000709580919A0290919B02A0919C02B09107
:103940009D028A019B01082319232A233B23C901D5
:10395000B8011F910F910C947E1C20913A03809521
:10396000822380933A03982F977079F430E0482FA0
:10397000082E000C550B2417350739F085958595D1
:1039800085950E94881C10923A0308950F931F9307
:1039900041E050E060E070E004C0440F551F661F36
:1039A000771F8A95D2F780919A0290919B02A091FD
:1039B0009C02B0919D028A019B01082B192B2A2B96
:1039C0003B2BC901B8011F910F910C947E1C609391
:1039D0003F037093400380934103909342030C9400
:1039E000A31B809116039091E502891719F08F5F50
:1039F0008770FBCF08950F931F93CF93DF93809130
:103A0000E40282958F7009F05DC08091E102882305
:103A100009F458C0809116031091E5026091DF020D
:103A20007091E002C091E202D091E30291E06F3F19
:103A300009F090E0292F06E0811709F443C0209790
:103A400021F07F3F21F030E003C031E001C0322F90
:103A500090E030FD34C0089FF001099FF00D112463
:103A6000DF01AA51BD4F11963C911197371327C022
:103A70003C91361324C012963C91129731111FC00D
:103A800013964D915C9114974C1B5D0B483C51056E
:103A9000B0F48091E4028F7080618093E402E5517C
:103AA000FD4F80818F70806180838FED92E00E9456
:103AB0004114DF91CF911F910F910C94F11C01964D
:103AC0008770BACFDF91CF911F910F9108959F9288
:103AD000AF92BF92CF92DF92EF92FF920F931F931C
:103AE000CF93DF93CDB7DEB761970FB6F894DEBF03
:103AF0000FBECDBF8C0185E0F801DE011D9601905F
:103B00000D928A95E1F7F80190818181E2803091F0
:103B1000DF026091E0024091E2025091E302411520
:103B2000510531F06F3F31F421E03F3F19F403C0FC
:103B300021E001C020E0F22FF1709F2E20FD23C173
:103B4000F801C380D4802FEDA22E22E0B22EF09097
:103B5000E102F601E41BF50BFF2009F4CEC0209131
:103B6000E402E83CF10508F099C0422F407F09F0DB
:103B700051C0681311C039130FC0FE2CE1100CC0E6
:103B80002F7020612093E402C5010E9441148091AE
:103B9000E402F801858337C1CD2831F08F3F31F43D
:103BA00021E09F3F19F403C021E001C020E020FD87
:103BB00003C021E02E2502C020E030E0F22FF1709A
:103BC000FF2E20FF1DC0209116034091E50256E014
:103BD000241709F4F6C030E0529FF001539FF00D16
:103BE0001124EA51FD4F6181861306C0608196134E
:103BF00003C06281E61204C02F5F3F4F2770E8CFF9
:103C0000FE2CEE2009F4FFC08091E40281608093D5
:103C1000E40250C0681307C0391305C0E11003C0A7
:103C2000F80125838DC09D878E878D859E850E9496
:103C3000FE1B882369F1EE2059F12091E402822FC6
:103C400082958F7090E0029774F08091DF029091DE
:103C5000E00298878F831986DB86CA862C87CE017F
:103C600007960E94411486E0F801AFEDB2E00190A2
:103C70000D928A95E1F70E94FB1C0DC06817E1F0D8
:103C80009D878E878D859E850E94FE1B81111EC09B
:103C9000C8010E944114FF24F394B5C0422F407F15
:103CA00069F78FED92E00E94411486E0F5011192D0
:103CB0008A95E9F7F12CA7C03913E2CFE110E0CFE4
:103CC000F8012583C8010E94411457C0EE2001F37A
:103CD0002091E402822F82958F7090E002971CF26F
:103CE0008091DF029091E0029A8389831B82DD82BA
:103CF000CC822E83CE010196B4CFE83CF105E8F5E5
:103D0000FE2CEE2029F2681327C0391325C020911C
:103D1000E40220FD18C0822F82958F70482F50E05A
:103D20004115510581F0F80125834F30510541F0CF
:103D30008F5F982F9295907F822F8F70892B85832C
:103D4000C8010E94411486E0F801AFEDB2E0019095
:103D50000D928A95E1F757C09D878E878D859E8548
:103D60000E94FE1B81117FCF8091E40281608093CD
:103D7000E402C8010E94411446C086E0F501119298
:103D80008A95E9F740C0EE2009F482CF9D878E879F
:103D90008D859E850E94FE1BF82E882309F478CF1E
:103DA00086E0F801AFEDB2E001900D928A95E1F75F
:103DB0008091DF029091E0020E94F31B0E94FB1CA5
:103DC00022C09D878E878D859E850E94F31B292F9B
:103DD00022952F70223028F49F7039F0811105C090
:103DE0000BC0243028F49F7049F4805E883020F0A6
:103DF000C8010E9441149F2CF92C05C0F80195813F
:103E0000907F99F7F9CF8F2D61960FB6F894DEBFAA
:103E10000FBECDBFDF91CF911F910F91FF90EF901B
:103E2000DF90CF90BF90AF909F90089510923D0388
:103E300086E0E9EDF2E0DF011D928A95E9F70C9446
:103E4000A31BCF93DF938A3011F481E003C08D3040
:103E500029F480E0DF91CF910C949207682F809134
:103E600067059091680526E0FC01A1E6B5E00190A8
:103E70000D922A95E1F7603E30F026E0FC011192A8
:103E80002A95E9F70AC0F6E06F9FB0011124635C40
:103E90007A4F46E050E00E948029C0916705D0919A
:103EA000680546E050E0BE0181E695E00E94182AD0
:103EB000892B49F19E0121563340A90185E0569591
:103EC00047958A95E1F781E090E0BC0102C0660F5A
:103ED000771F4A95E2F740915F0350916003462BAC
:103EE000572B2B5F3F4F65E0369527956A95E1F795
:103EF00002C0880F991F2A95E2F7842B952B909387
:103F0000600380935F039E012B55334040915E0315
:103F1000642F70E0C9010E94DD29481B463010F46F
:103F2000240F311D211582E0380710F020E030E029
:103F30002F593C4F3093680520936705DF91CF914F
:103F40000895CF93DF93EC01FE018491882321F043
:103F50000E94211F2196F8CFDF91CF910895EF9213
:103F6000FF920F931F93CF93DF93EC017B0164E6E5
:103F700070E088E70E94DC268C01EC0EFD1ECE1559
:103F8000DF0561F017FD0AC0FE01849164E670E070
:103F90000E9433278C012196892B89F30E94B72731
:103FA000C801DF91CF911F910F91FF90EF9008957D
:103FB000EF92FF920F931F93CF93DF937C018B01BE
:103FC0000E947325811119C0E70101151105A1F0A7
:103FD0008091E80085FD0AC08091E8008E7780938B
:103FE000E8000E947325882381F307C0899180939C
:103FF000F10001501109E9CF80E0DF91CF911F91CD
:104000000F91FF90EF9008951F93CF93DF93CDB75B
:10401000DEB7AA970FB6F894DEBF0FBECDBFE6E5B8
:10402000F3E08091F100819323E0EE35F207C9F7C8
:1040300080915703833009F460C030F4813071F00F
:10404000823009F49AC0B1C08A3009F486C08B303E
:1040500009F46BC0893009F0A8C020C080915603D4
:10406000813A09F0A2C08091E800877F8093E80040
:1040700080915A0390915B03892B21F468E08AE4D4
:1040800093E003C060E080E090E070E00E94FA25D9
:104090008091E8008B778093E80087C08091560379
:1040A000813209F082C080915A0390915B0302979C
:1040B00008F07BC08091E800877F8093E8008091C2
:1040C000E80082FD05C0809154038111F8CF6DC0D6
:1040D0002091F3008091F20090E0922B029729F456
:1040E0008091F1008B7F813021F48091F1008093E9
:1040F00049038091E8008B7754C080915603813A40
:1041000009F053C080915A0390915B03892B09F009
:104110004CC08091E800877F8093E8008091E800A0
:1041200080FFFCCF8091220137C0809156038132FD
:10413000E1F580915A0390915B03892BB1F5809151
:10414000E800877F8093E8000E94A62580915803AD
:10415000809322010E94161F28C08091560381324D
:1041600021F58091E800877F8093E8000E94A625D2
:10417000809159038093480318C080915603813A77
:10418000A1F48091E800877F8093E8008091E800A7
:1041900080FFFCCF809148038093F1008091E8007C
:1041A0008E778093E8000E94A6258091E80083FF27
:1041B000CCC18091560390915703492F50E04A306B
:1041C000510508F0C2C1FA01EC57FF4F0C94052AC3
:1041D000803821F0823809F0B8C108C080915203BC
:1041E00090915303992389F082600FC080915A0304
:1041F0008F70873008F0A9C18093E9008091EB00AF
:1042000085FB882780F91092E9009091E800977F5C
:104210009093E8008093F1001092F10065C1282F7F
:104220002D7F09F092C1882319F0823061F08DC191
:1042300080915803813009F088C1933009F080E003
:10424000809353032EC08091580381112AC080911E
:104250005A038F702FEF280F263008F076C1809315
:10426000E9002091EB0020FF1CC0933021F48091E5
:10427000EB00806214C09091EB0090619093EB0092
:1042800021E030E0A90102C0440F551F8A95E2F7F2
:104290004093EA001092EA008091EB0088608093DE
:1042A000EB001092E9008091E800877F20C1811126
:1042B0004CC1109158031F778091E3008078812BC7
:1042C0008093E3008091E800877F8093E8000E945C
:1042D000A6258091E80080FFFCCF8091E3008068F4
:1042E0008093E300111102C082E001C083E080935B
:1042F00054032BC18058823008F027C180915803A5
:10430000909159038C3D53E0950779F583E08A83BA
:104310008AE289834FB7F894DE01139620E03EE0ED
:1043200051E2E32FF0E050935700E49120FF03C0E7
:10433000E295EF703F5FEF708E2F90E0EA3010F063
:10434000C79601C0C0968D939D932F5F243149F786
:104350004FBF8091E800877F8093E8006AE270E0B9
:10436000CE0101960E94FA25AEC040915A035091A9
:104370005B03292F332723303105A9F068F421305E
:10438000310509F4F1C02230310509F0DEC08BE3BC
:1043900090E0E2EBF4E044C02132310521F1223219
:1043A000310571F1D2C0992781309105A1F058F003
:1043B000029709F0CAC0EFEFF4E0E4918E2F90E08D
:1043C000EFEFF4E02AC0E9E3F5E0E4918E2F90E00E
:1043D000E9E3F5E022C0E3E2F5E0E4918E2F90E01E
:1043E000E3E2F5E01AC04115510509F4C2C04130BD
:1043F000510509F0AAC089E090E0EDEDF4E010C0AD
:104400004115510509F4BAC04130510509F09DC06C
:1044100082E390E0E0E4F4E003C0009709F495C083
:104420002091E800277F2093E80020915C033091E1
:104430005D038217930708F49C0140E021153105C4
:1044400089F180915403882309F43DC08530D9F166
:104450008091E80083FD37C08091E80082FD2FC085
:104460008091E80080FFEACF4091F3008091F20054
:1044700090E0942B2115310559F08830910540F4D6
:1044800044914093F1003196215031090196F2CFC9
:1044900041E0089709F040E08091E8008E77809332
:1044A000E800CCCF4111CDCF0AC0809154038823BE
:1044B00051F0853041F08091E80083FD04C0809187
:1044C000E80082FFF2CF8091E8008B778093E800CC
:1044D0003CC08038D1F58091E800877F8093E80068
:1044E000809155038093F1008091E8008E7780934E
:1044F000E8000E94A62529C0811127C08091580399
:10450000909159039927029704F58091E800877FDD
:104510008093E80010915803109355030E94A6253C
:10452000111106C08091E30087FD02C081E001C047
:1045300084E08093540342E061EC81E00E94C52551
:1045400042E261EC82E00E94C5258091E80083FF91
:104550001AC08091E800877F8093E8008091EB008B
:1045600080628093EB000FC082E190E0EDEEF4E01A
:1045700057CF89E090E0E4ECF4E052CF80E490E0A3
:10458000E2E7F4E04DCFAA960FB6F894DEBF0FBE77
:10459000CDBFDF91CF911F9108951F920F920FB65B
:1045A0000F9211242F933F934F935F936F937F93B9
:1045B0008F939F93AF93BF93CF93DF93EF93FF932B
:1045C000C091E900CF708091EC00D82FD17080FDB0
:1045D000D0E81092E9008091F000877F8093F0008E
:1045E00078940E9404201092E9008091F000886085
:1045F0008093F000CD2BCF70C093E900FF91EF9135
:10460000DF91CF91BF91AF919F918F917F916F91EA
:104610005F914F913F912F910F900FBE0F901F9080
:104620001895E8EDF0E080818E7F80831092E200A3
:104630001092DA001092E100A0EEB0E08C9181605F
:104640008C9380818F77808319BCA7EDB0E08C912B
:104650008E7F8C9380818F7E808310924703089594
:10466000CF92DF92EF92FF920F931F93CF93DF933E
:10467000C8EDD0E088818F7E8883E7EDF0E080810F
:104680008160808384E082BF81E0809347038881DA
:104690008E7F888302EE10E0F80110821092DA001B
:1046A00081EEC82ED12CF601108288818F77888305
:1046B00088818068888388818F7D888319BC109267
:1046C000540310925503109253031092520390EE2C
:1046D000E92EF12CF70180818B7F808388818160B6
:1046E000888342E060E080E00E94C525F601808179
:1046F0008E7F8083F80180818160808380818860E3
:104700008083F70180818E7F8083888180618883A8
:10471000DF91CF911F910F91FF90EF90DF90CF909D
:1047200008951F920F920FB60F9211242F933F936B
:104730004F935F936F937F938F939F93AF93BF93A9
:10474000EF93FF938091E10082FF09C08091E20026
:1047500082FF05C08091E1008B7F8093E100809112
:10476000DA0080FF2AC08091D80080FF26C08091A7
:10477000DA008E7F8093DA008091D90080FF18C024
:1047800080E189BD82E189BD09B400FEFDCF81E0F1
:10479000809354038091470381110FC00E9411231D
:1047A0000E9430238091E20084608093E20005C083
:1047B00019BC10925403109247038091E10080FFCE
:1047C00017C08091E20080FF13C08091E2008E7FCD
:1047D0008093E2008091E20080618093E20080910A
:1047E000D80080628093D80019BC85E08093540380
:1047F0008091E10084FF2EC08091E20084FF2AC0F6
:1048000080E189BD82E189BD09B400FEFDCF8091C0
:10481000D8008F7D8093D8008091E1008F7E8093B7
:10482000E1008091E2008F7E8093E2008091E200BF
:1048300081608093E20080915503882311F084E029
:1048400007C08091E30087FD02C081E001C083E0E2
:10485000809354038091E10083FF27C08091E200A0
:1048600083FF23C08091E100877F8093E10082E095
:1048700080935403109255038091E1008E7F8093C2
:10488000E1008091E2008E7F8093E2008091E2005F
:1048900080618093E20042E060E080E00E94C525F4
:1048A0008091F00088608093F000FF91EF91BF91BC
:1048B000AF919F918F917F916F915F914F913F91B8
:1048C0002F910F900FBE0F901F901895882341F0E5
:1048D000809590913D03892380933D030C94761B32
:1048E0000895882339F090913D03892B80933D03EF
:1048F0000C94761B0895882309F458C0682F8238D9
:1049000069F40E94600781FF51C069E387ED92E07E
:104910000E94DB1A0E94761B69E30EC0833891F473
:104920000E94600780FF42C063E587ED92E00E942D
:10493000DB1A0E94761B63E587ED92E00E94CE1A97
:104940000C94761B843869F40E94600782FF2EC0A5
:1049500067E487ED92E00E94DB1A0E94761B67E411
:10496000EBCF8CEF860F813A38F380E2860F8830E8
:1049700070F4677081E090E001C0880F6A95EAF7F3
:10498000809590913D03892380933D03D9CF8BE59A
:10499000860F833020F480E090E00C944A07685A38
:1049A000673120F480E090E00C9434070895CF93B1
:1049B000882309F496C0C82F8238B1F40E9460079A
:1049C00081FD8FC069E387ED92E00E94DB1A0E94AF
:1049D000761B2FEF81EE94E0215080409040E1F76C
:1049E00000C0000069E317C08338E1F40E9460074B
:1049F00080FD77C063E587ED92E00E94DB1A0E949C
:104A0000761B2FEF81EE94E0215080409040E1F73B
:104A100000C0000063E587ED92E00E94CE1ACF91BE
:104A20000C94761B8438B1F40E94600782FD59C053
:104A300067E487ED92E00E94DB1A0E94761B2FEF5D
:104A400081EE94E0215080409040E1F700C00000EA
:104A500067E4E1CF8CEF8C0F813A80F4E9EDF2E06E
:104A60008FED92E02191C217A1F18E179F07D1F728
:104A70006C2F87ED92E00E94DB1AD1CF80E28C0F81
:104A8000883068F4C77081E090E001C0880FCA9553
:104A9000EAF790913D03892B80933D03C0CFEBE56E
:104AA000EC0FE33040F4F0E0E457FE4F808190E0FB
:104AB000CF910C944A07C85AC73198F4EC2FF0E014
:104AC000EE0FFF1FE157FE4F80819181CF910C9433
:104AD00034076C2F87ED92E00E94CE1A0E94761B5D
:104AE000C7CFCF9108952091E4003091E50095E67D
:104AF0004091EC00842F817040FF23C08091E8003A
:104B000080FD1DC080915403882399F0853099F071
:104B10008091EB0085FD11C04091E4005091E500CB
:104B20002417350729F3915011F09A01E1CF84E061
:104B3000089582E0089583E0089581E0089580E07B
:104B400008954091E80042FFDDCF0895809156031B
:104B500087FF11C08091E80082FD05C08091540359
:104B60008111F8CF11C08091E8008B770BC0809144
:104B70005403882349F08091E80080FFF8CF8091AA
:104B8000E8008E778093E8000895982F973068F5B5
:104B90009093E900981739F07091EC002091ED00A6
:104BA0005091F00003C0242F762F50E021FD02C069
:104BB0009F5FECCF3091EB003E7F3093EB00309164
:104BC000ED003D7F3093ED003091EB00316030938C
:104BD000EB007093EC002093ED005093F0002091D7
:104BE000EE0027FDE5CF80E008958F708093E90007
:104BF00081E0089520915C0330915D03261737070B
:104C000048F06115710539F42091E8002E77209362
:104C1000E80001C0B901FC0120E06115710579F1DE
:104C2000809154038823F1F18530F1F18091E800FF
:104C300083FD3CC08091E80082FD2EC08091E80099
:104C400080FFEBCF2091F3008091F20090E0922B57
:104C50006115710551F08830910538F42191209348
:104C6000F100615071090196F3CF21E0089709F036
:104C700020E08091E8008E778093E800CECF21116C
:104C8000CFCF0AC080915403882361F0853061F052
:104C90008091E80083FD0AC08091E80082FFF2CF96
:104CA00080E0089582E0089583E0089581E008950A
:104CB00062E070E083E291E00C941B2862E070E017
:104CC00083E291E00C9424280E941108882361F06B
:104CD00084E795E00E94FB0781E090E00E94FD28B8
:104CE000892B11F40C940E08089580917305883077
:104CF00039F460E084E795E00E94990A1092730508
:104D00000895CF93DF93D62FC72F0E94642680E0AB
:104D100090E00E94FD28892B11F5ED2FFC2F80E0FB
:104D200090E0DC01A259BA4F2C9121930196843076
:104D30009105B9F782E795E00E94C2070E94581AD0
:104D4000DC01CB010296A11DB11D80936A059093F1
:104D50006B05A0936C05B0936D0581E001C080E008
:104D6000DF91CF910895CF93DF93D62FC72F0E9465
:104D7000752660916A0570916B0580916C05909124
:104D80006D050E94731AED2FFC2F80E090E02191B9
:104D9000DC01A259BA4F2C93019684309105B9F7E2
:104DA00082E795E0DF91CF910C94E5071092B9006E
:104DB0008CE08093B8000895EF92FF920F931F93B9
:104DC000CF93DF93182FEB011092BC0084EA8093FD
:104DD000BC000E94901A7C018091BC0087FD0EC02F
:104DE000CF3F8FEFD807C1F30E94901A8E199F0909
:104DF0008C179D0788F38EEF9FEF2EC08091B9002E
:104E0000887F883041F08091B900887F803119F027
:104E10008FEF9FEF21C01093BB0084E88093BC000C
:104E20000E94901A8C018091BC0087FD0CC0CF3F7E
:104E30008FEFD807C1F30E94901A801B910B8C173B
:104E40009D0788F3D8CF8091B900887F883111F011
:104E50008034F1F680E090E0DF91CF911F910F91C7
:104E6000FF90EF9008950F931F93CF93DF93EB0183
:104E70008093BB0084E88093BC000E94901A8C0150
:104E80008091BC0087FD0EC0CF3F8FEFD807C1F3E4
:104E90000E94901A801B910B8C179D0788F38EEF50
:104EA0009FEF0CC02091B900287F81E090E028326C
:104EB00011F480E090E0919581959109DF91CF9177
:104EC0001F910F910895CF92DF92EF92FF920F936F
:104ED0001F93CF93DF936B018A017901B9010E947F
:104EE000DC26E6010C0D1D1DC017D10761F424E975
:104EF0002093BC00DF91CF911F910F91FF90EF9015
:104F0000DF90CF90089597FDF2CFB70189910E946D
:104F10003327EACFCF92DF92EF92FF920F931F9346
:104F2000CF93DF93C62F6A017901B8010E94DC2676
:104F300097FD11C0B8018C2F0E943327E601EC0CBD
:104F4000FD1CCE15DF0539F097FD05C0B80189912C
:104F50000E943327F6CF24E92093BC00DF91CF9144
:104F60001F910F91FF90EF90DF90CF90089584E90B
:104F70008093BC0008958EE14A9B02C08150E1F706
:104F80004A9BFECF08955A9880E28A95F1F75A9A83
:104F90000895FC012AE02A95F1F790E020E080E0F6
:104FA00031E0261779F040E14A95F1F7880F4A9BE6
:104FB00002C08160932700C0000040E14A95F1F7EC
:104FC0002F5FEFCF20E12A95F1F729B100C0000053
:104FD00030E13A95F1F722FB222720F99227208130
:104FE000920F90830895EF92FF920F931F93CF93A8
:104FF000DF931F92CDB7DEB719828C017C01E60EDC
:10500000F11C0E151F0559F00E94BB2768E0CE0168
:1050100001960E94C927F80181938F01F2CF81E0A8
:105020009981911180E00F90DF91CF911F910F91A5
:10503000FF90EF90089590937E0580937D05609397
:105040007C05529A5A9A089590937E0580937D0527
:1050500060937C0552985A9AEA9AE9E6F0E08081DA
:105060008F7C80830895615091E001C0990F6A950B
:10507000EAF720E031E0992361F0492F482319F045
:105080005A9A232701C05A9840E24A95F1F796951B
:10509000F2CF222311F05A9A01C05A9880E28A95E1
:1050A000F1F75A980895FF920F931F93CF93DF93D0
:1050B000EC018C01060F111DC017D10741F0F990CA
:1050C0000E94C32768E08F2D0E943328F5CFDF911F
:1050D000CF911F910F91FF9008951F920F920FB6DD
:1050E0000F9211240F931F932F933F934F935F932E
:1050F0006F937F938F939F93AF93BF93EF93FF93A0
:10510000CF93DF931F92CDB7DEB719820E94BB27E2
:1051100067E0CE0101960E94C927382F3695369553
:105120003695932F96959570232F2570920F292FE2
:105130002370969596958770920F891348C0898140
:10514000811145C080917C05831708F440C080E13F
:105150008A95F1F75A9A529AA2E0AA95F1F700C0FF
:1051600000917D0510917E05B8E03B9F000D111D5B
:1051700011245A98F8016581662321F08681978170
:105180000E9453280E94C327F0E1FA95F1F75A983C
:1051900052985A9A80E18A95F1F7D80112966C914B
:1051A0001297662369F013968D919C9114970E9433
:1051B000F327D801ED91FC91811105C082E004C074
:1051C000D801ED91FC9188E080830E94BB270F906D
:1051D000DF91CF91FF91EF91BF91AF919F918F910F
:1051E0007F916F915F914F913F912F911F910F91FF
:1051F0000F900FBE0F901F9018950F931F93CF9392
:10520000DF9320917C0530E0281739070CF471C03A
:105210009C0193E0220F331F9A95E1F7C0917D0521
:10522000D0917E05C20FD31FF894529A5A9845E048
:105230004A95F1F70000982F969595708570890F23
:10524000982F937086958695890F8901082B0E9467
:10525000C32784E08A95F1F700C067E0802F0E94A1
:10526000332840E14A95F1F752985A9A4A9902C078
:1052700000C0FCCF87E090E04A9B0EC0019751F43C
:10528000529A5A9AE881F98181E08083789481E08A
:1052900090E031C000C0F0CF6D81662381F08E8137
:1052A0009F810E94F32781110AC0529A5A9AE8817D
:1052B000F98182E08083789482E090E01CC00E94B3
:1052C000BB2780E28A95F1F75A98529A40E14A95B5
:1052D000F1F76A81662321F08B819C810E9453281B
:1052E0000E94C327E881F9811082789480E090E0E1
:1052F00002C084E090E0DF91CF911F910F9108955B
:10530000FB01DC0102C005900D9241505040D8F7DE
:105310000895F999FECF92BD81BDF89A992780B57D
:105320000895A6E1B0E044E050E00C94C329A8E160
:10533000B0E042E050E00C94C329262FF999FECF4B
:1053400092BD81BDF89A019700B4021639F01FBAD8
:1053500020BD0FB6F894FA9AF99A0FBE08950396F5
:10536000272F0E949E290E949D29252F0E949E2959
:10537000242F0C949E290196272F0E949E290C947D
:105380009D29DC01CB01FC01F999FECF06C0F2BDDD
:10539000E1BDF89A319600B40D9241505040B8F7F3
:1053A0000895991B79E004C0991F961708F0961B81
:1053B000881F7A95C9F780950895AA1BBB1B51E1F8
:1053C00007C0AA1FBB1FA617B70710F0A61BB70B75
:1053D000881F991F5A95A9F780959095BC01CD011A
:1053E000089597FB072E16F4009407D077FD09D097
:1053F0000E94DD2907FC05D03EF4909581959F4FD2
:105400000895709561957F4F0895EE0FFF1F0590E9
:10541000F491E02D0994FC014150504030F001908E
:105420000616D1F73197CF01089588279927089557
:10543000FB01DC0104C08D910190801921F44150E1
:105440005040C8F7881B990B0895AEE0B0E0EBE23E
:10545000FAE20C94F42C0D891E898F89988D26E030
:105460002C831A83098397FF02C080E090E801979C
:105470009E838D83AE01455E5F4F698D7A8DCE012F
:1054800001960E94552A4D815E8157FD0AC02F81E9
:105490003885421753070CF49A01F801E20FF31F05
:1054A00010822E96E4E00C94102DABE0B0E0EBE51A
:1054B000FAE20C94E62C6C017B018A01FC01178254
:1054C0001682838181FFCCC1CE0101963C01F60199
:1054D0009381F70193FD859193FF81917F0188234B
:1054E00009F4BAC1853239F493FD859193FF819116
:1054F0007F01853229F4B60190E00E944C2CE7CF61
:10550000912C212C312CFFE1F315D8F08B3279F05E
:1055100038F4803279F08332A1F4232D20611DC04C
:105520008D3261F0803369F4232D216016C0832D04
:105530008260382EE32DE4603E2E2AC0F32DF86001
:105540001DC037FC2DC020ED280F2A3040F08E32D0
:10555000B9F436FC81C1232D2064322E19C036FEE9
:1055600006C08AE0989E200D1124922E11C0EAE018
:105570002E9E200D1124222EF32DF0623F2E08C006
:105580008C3621F4832D8068382E02C0883641F491
:10559000F70193FD859193FF81917F018111B3CF35
:1055A000982F9F7D9554933028F40C5F1F4F9FE3F5
:1055B00099830DC0833631F0833771F0833509F05C
:1055C00059C021C0F801808189830E5F1F4F882454
:1055D0008394912C530113C02801F2E04F0E511C0B
:1055E000F801A080B18036FE03C0692D70E002C0D2
:1055F0006FEF7FEFC5010E94412C4C018201F32D1A
:10560000FF773F2E16C0280122E0420E511CF80100
:10561000A080B18036FE03C0692D70E002C06FEF3C
:105620007FEFC5010E94362C4C01F32DF0683F2E10
:10563000820133FC1BC0822D90E088169906B0F4DD
:10564000B60180E290E00E944C2C2A94F4CFF50140
:1056500037FC859137FE81915F01B60190E00E9491
:105660004C2C21102A9421E0821A91088114910473
:1056700071F7E8C0843611F0893641F5F80137FE3C
:1056800007C060817181828193810C5F1F4F08C0C8
:1056900060817181072E000C880B990B0E5F1F4FE4
:1056A000F32DFF763F2E97FF09C09095809570955A
:1056B00061957F4F8F4F9F4FF0683F2E2AE030E07B
:1056C000A3010E94882C882E861845C0853731F4A6
:1056D000232D2F7EB22E2AE030E025C0932D997F16
:1056E000B92E8F36C1F018F4883579F0B5C08037FF
:1056F00019F0883721F0B0C0E92FE061BE2EB4FE6A
:105700000DC0FB2DF460BF2E09C034FE0AC0292F46
:105710002660B22E06C028E030E005C020E130E06F
:1057200002C020E132E0F801B7FE07C0608171815C
:10573000828193810C5F1F4F06C06081718180E080
:1057400090E00E5F1F4FA3010E94882C882E8618C0
:10575000FB2DFF773F2E36FE0DC0232D2E7FA22E70
:10576000891458F434FE0BC032FC09C0832D8E7EA0
:10577000A82E05C0B82CA32C03C0B82C01C0B92C8E
:10578000A4FE0FC0FE01E80DF11D8081803321F4DD
:105790009A2D997EA92E09C0A2FE06C0B394B39497
:1057A00004C08A2D867809F0B394A3FC11C0A0FE32
:1057B00006C0B21488F4280C922C9B180EC0B214A8
:1057C00060F4B60180E290E00E944C2CB394F7CFD5
:1057D000B21418F42B1802C0982C212CA4FE10C06F
:1057E000B60180E390E00E944C2CA2FE17C0A1FC01
:1057F00003C088E790E002C088E590E0B6010CC0E5
:105800008A2D867859F0A1FE02C08BE201C080E2A9
:10581000A7FC8DE2B60190E00E944C2C891438F46C
:10582000B60180E390E00E944C2C9A94F7CF8A94C2
:10583000F301E80DF11D8081B60190E00E944C2C2F
:105840008110F5CF222009F442CEB60180E290E02B
:105850000E944C2C2A94F6CFF6018681978102C0D3
:105860008FEF9FEF2B96E2E10C94022DFC01059047
:10587000615070400110D8F7809590958E0F9F1F52
:105880000895FC016150704001900110D8F7809597
:1058900090958E0F9F1F08950F931F93CF93DF93C3
:1058A000FB01238121FD03C08FEF9FEF2CC022FF5E
:1058B00016C046815781248135814217530744F42D
:1058C000A081B1819D012F5F3F4F318320838C9355
:1058D000268137812F5F3F4F3783268314C08B018A
:1058E000EC01FB010084F185E02D0995892BE1F69F
:1058F000D80116968D919C911797019617969C93B7
:105900008E931697CE01DF91CF911F910F9108953D
:10591000FA01AA27283051F1203181F1E8946F93E0
:105920006E7F6E5F7F4F8F4F9F4FAF4FB1E03ED086
:10593000B4E03CD0670F781F891F9A1FA11D680F24
:10594000791F8A1F911DA11D6A0F711D811D911D57
:10595000A11D20D009F468943F912AE0269F1124CC
:105960003019305D3193DEF6CF010895462F477030
:10597000405D4193B3E00FD0C9F7F6CF462F4F708B
:10598000405D4A3318F0495D31FD4052419302D0E9
:10599000A9F7EACFB4E0A69597958795779567958F
:1059A000BA95C9F700976105710508959B01AC018F
:1059B0000A2E06945795479537952795BA95C9F7B6
:1059C000620F731F841F951FA01D08952F923F9291
:1059D0004F925F926F927F928F929F92AF92BF92FF
:1059E000CF92DF92EF92FF920F931F93CF93DF93AB
:1059F000CDB7DEB7CA1BDB0B0FB6F894DEBF0FBE08
:105A0000CDBF09942A88398848885F846E847D8454
:105A10008C849B84AA84B984C884DF80EE80FD8056
:105A20000C811B81AA81B981CE0FD11D0FB6F894CC
:0E5A3000DEBF0FBECDBFED010895F894FFCF8D
:105A3E00010B0C0D0E0F1011121314003200323226
:105A4E00010021007F220003BA19FA19B919F619BB
:105A5E00F219016905046A05056E057305087405DA
:105A6E0000000000060106050606060001020202FD
:105A7E000505050505050B0B0B0B0B0B0B0B0B0B8C
:105A8E0015204C4544202532643A2025642C25648B
:105A9E002C25642000946697C600000000F4F5F6ED
:105AAE00F731333200FF0100010000FFFF0000015B
:105ABE000001FF000008101818100800818283E210
:105ACE0000E900EA00B500B600B700CD008301CCB6
